:10000000020003758107120075E582600302006F2C
:10001000780079007A007B007C007D00EC4D601C4C
:1000200088828983E493A3A882A9838A828B83F040
:10003000A3AA82AB831CBCFFE31D80E07582007520
:1000400083007C007D00EC4D600AE4F0A31CBCFF43
:10005000F51D80F27582007583007C007D00EC4DFB
:10006000600AE4F0A31CBCFFF51D80F212007412BC
:1000700000A280FE2253D9BF75FF8075EF0643A909
:100080000343B20343A60275E24075820022AA82AE
:10009000AB831ABAFF011BEA4B60067C64DCFE806E
:1000A000F122C2A190C35012008ED2A190C350126F
:1000B000008E80EE00000000000000000000000044
:00000001FF
