:100000000200037581431200BBE582600302006FAA
:10001000780079007A007B007C007D00EC4D601C4C
:1000200088828983E493A3A882A9838A828B83F040
:10003000A3AA82AB831CBCFFE31D80E07582007520
:1000400083007C007D00EC4D600AE4F0A31CBCFF43
:10005000F51D80F27582007583007C007D00EC4DFB
:10006000600AE4F0A31CBCFFF51D80F21200BA1276
:10007000021A80FE1B5B324A000D0A5573696E67D7
:100080002041444320776974682061726269747208
:100090006172792070696E732E0D0A0056303D250D
:1000A000352E33662C2056313D25352E33662C20D7
:1000B00056323D25352E33660D002253D9BF75FFCC
:1000C0008075EF0643A90343B203759810758D3010
:1000D000538EF4438E08858D8B53890F438920D22C
:1000E0008ED29943A40175E10175E2407582002228
:1000F000AA82438E407592D07593FF859294859322
:10010000957591047B00C3EB9A500BE59130E7FBAA
:1001100053917F0B80F075910022AA82AB83BA00C5
:1001200004BB0001227582F9C002C0031200F07501
:1001300082F91200F07582F91200F07582FA12004D
:10014000F0D003D0021ABAFF011B80D275BCF8753B
:10015000E88075D10822AA82851AF005F074018022
:100160000225E0D5F0FBFBEA24FC4033EA2A2A9082
:1001700001737302017F02018702018F020197EB75
:10018000F452F1EB42D422EBF452F2EB42D522EBE3
:10019000F452F3EB42D622EBF4FA52F4EB42DF22B4
:1001A0008582BB75BA1FD2EC20ECFDD2EC20ECFDB1
:1001B000AABD7B00ADBE7C00EC2AF582ED3BF58349
:1001C000221201A01202D6AA82AB83ACF0FDC002BB
:1001D000C003C004C00590333375F053744012025D
:1001E000E2AA82AB83ACF0FDE58124FCF581E4C09A
:1001F000E0C0E07480C0E07444C0E08A828B838CED
:10020000F0ED1203BBAA82AB83ACF0FDE58124FCC8
:10021000F5818A828B838CF0ED227474C0E07400C7
:10022000C0E07480C0E012039A15811581158174B5
:1002300079C0E07400C0E07480C0E012039A1581B8
:1002400015811581751A07758202120156751A07F4
:10025000758201120156751A00758202120156123A
:10026000014C75820F1201C1AA82AB83ACF0FD8AEA
:10027000088B098C0A8D0B7582071201C1AA82AB0B
:1002800083ACF0FD8A0C8B0D8C0E8D0F75820812DD
:1002900001C1AA82AB83ACF0FD8A108B118C128D48
:1002A00013C010C011C012C013C00CC00DC00EC0CE
:1002B0000FC008C009C00AC00B749CC0E07400C025
:1002C000E07480C0E012039AE58124F1F58190008A
:1002D0006412011A808CE4AC83AB82FAF9748E024A
:1002E00004E312056FBC000302050EEF60FA30D57F
:1002F00002B2D1E583B4FF03020524E582B4FF0313
:10030000020524258340072482400B02050E248326
:10031000145003020524F582EA8DF0A4A8F0EA8EB9
:10032000F0A428F8E435F0F9EB8DF0A428E935F0D5
:10033000F9E433CA8FF0A429F9EA35F0FAEBF88E24
:10034000F0A429F9EA35F0FAE433FBEC8DF0A429A6
:10035000F9EA35F0FAE43BFBE88FF0A42AFAEB3532
:10036000F0FBE433CCFD8EF0A42AFAEB35F0FBE48D
:100370003CFCED8FF0A42BFBEC35F0FC20E70312E6
:10038000053C0204ED020F2985823085833185F01A
:100390003285193390038502097CC018858118E5E0
:1003A0001824FBF533E51824FBF88630088631085D
:1003B000863290038512097CD0182212056F30D541
:1003C00002B2D1BF0009BC0003020531020524BC02
:1003D000000302050EE583B4FF0BE582B4FF0302C0
:1003E000053102050EE582B4FF03020524C395839F
:1003F0005007247F400B02050E2480145003020591
:1004000024C0E0E4CCCBCAF98D1A8E1B8F1CEF54AC
:10041000F0C4F51D758306851DF0EB84F582E9C4F3
:10042000F9EAC4FAEBC4FBEC540FC47803D6FC1809
:10043000EBD6FB18EAD6FA8582F0EDA4A8F0FD858C
:1004400082F0EEA428FEE435F0F88582F0EFA428CF
:10045000FFE435F0F8E99DF9EA9EFAEB9FFBEC9892
:10046000FCAD1AAE1BAF1C30E7101582E92DF9EA7E
:100470003EFAEB3FFBE43CFC80EDC082D58398C3A1
:10048000E933F9EA33FAEB33FBEC33FCC3E99DEAD9
:100490009EEB9FEC9400B3E413F9D002D0E0C44A81
:1004A000FAD003D0E0C44BFBD004D0E0F5F0540FF9
:1004B000C44CFCD082158230F40FD3EC13FCEB1348
:1004C000FBEA13FAE913F90582E930E70A74012A15
:1004D000FAE43BFBE43CFC020505FCABF0AA83A973
:1004E00082749EC2D1F58212053C0204EDB98003EC
:1004F000EA13B34010EA2401FAE43BFBE43CFC506D
:10050000047C800582BC000EBB000BBA0008E4F539
:10051000F0F583F58222A2D1E582138CF092F78B5D
:10052000838A8222E4F583F58275F080F4A2D113E8
:1005300022E4F583F58275F0C0747F227804EC70B4
:1005400011E58224F8500AF582E4C9CACBFCD8EF41
:1005500022EC7820058220E713D5820122C3E933FB
:10056000F9EA33FAEB33FBEC33FCD8EA158222AA22
:1005700082AB83A2F73392D16002D2F7F582ACF05E
:10058000E58124F9F8E6FD08E6FE0886F008E6A213
:10059000F73392D56002D2F7F583AFF022AA8274C6
:1005A000AEC0E07405C0E0C022C0238A82220529C3
:1005B000E4B52902052A22AA8274302AFA24C650F8
:1005C0000A74072AFA3000034302208A8202059D3A
:1005D000E582FAC4540FF582C0021205B7D0027446
:1005E0000F5AF5820205B7AA24AB25AC26AD27AE7B
:1005F00028752F20EE2EFEED235401FF4206EA2A35
:10060000FAEB33FBEC33FCED33FDC3EE952B4008E6
:10061000EEC3952BFE430201D52FD98A248B258C5E
:10062000268D278E28227840E624D075F00AA4FA79
:100630007841E624D02AFA783F8603BB2D04C3E430
:100640009AFA752B01C3E464808AF063F08095F018
:100650005029752F038A0374F6252F401C052BE5BE
:100660002F142434F8E52F2434F98704A604772EB8
:100670001BEBFA6004052F80DE8B02EA30E70D7871
:100680003586037836A6037835762E0AE52D600A7E
:10069000E52D04FB252BF52B8005300B02052B786F
:1006A000348603E4BB2D0104FB70062006033007EB
:1006B00002052B30040302076D300557EB600C7503
:1006C000822DC00212059DD002801C30060C75825E
:1006D0002BC00212059DD002800D30070A758220C2
:1006E000C00212059DD00278358604BC2E0C75829E
:1006F00030C00212059DD002152CAC2C152CC3E580
:100700002B9C40030207B1758230C00212059DD0B8
:100710000280E7AC2C152CC3E52B9C500C75822075
:10072000C00212059DD00280EA78348604BC2D0CEC
:1007300075822DC00212059DD002801C30060C75FA
:10074000822BC00212059DD002800D30070A7582EF
:1007500020C00212059DD00278358604BC2E527549
:100760008230C00212059DD002152C8044EB600E31
:1007700075822DC00212059DD002152C80203006F6
:100780000E75822BC00212059DD002152C800F30F1
:10079000070C758220C00212059DD002152C7835F9
:1007A0008603BB2E0C758230C00212059DD0021547
:1007B0002C752F01C20DE52F2434F88603BB4503A9
:1007C00002086EBB2E348A03C3E464808BF063F0AE
:1007D0008095F0500F758230C00312059DD0031B29
:1007E0008B0280E48B02D20DE52D7038200B0302C2
:1007F000086E75822E12059D8074300D278A03EBDA
:1008000030E71FC3E46480852DF063F08095F050DD
:100810000C758230C00312059DD003152D0B8B0281
:1008200080DD8B02300D0EC3E46480852DF063F013
:100830008095F05021E52F2434F886038B82C00286
:1008400012059DD002300D0EE52F2434F88603BB2F
:100850002E028002152D152CC3E46480852DF063D3
:10086000F08095F04003200D05052F0207B6C3E484
:100870006480852DF063F08095F0500A7582301207
:10088000059D152D80E830040FAA2C152CEA600870
:1008900075822012059D80F122E52D7003300B0D2D
:1008A0007407252DFAE52CC39AF52C8006E52C2437
:1008B000FAF52C752F0078348602BA2B0F20060C1F
:1008C00078347620200705752F01052C200419AAFD
:1008D0002CC3E464808AF063F08095F0500A75823E
:1008E0002012059D152C80E7C20DE52F2434F886D3
:1008F00002BA00028069BA451F3000027665C3E47F
:100900006480852DF063F08095F0500A7582301276
:10091000059D152D80E8D20DC3E52F9402E433FA2E
:100920007014EA700EC3E46480852DF063F0809546
:10093000F04003300D16E52F2434F886028A821227
:10094000059DE52F24FD5012152D800E7402B52F44
:1009500009300B0675822E12059D052F0208EA301C
:100960000419AA2CC3E464808AF063F08095F050E7
:100970000A75822012059D152C80E722858222852A
:100980008323E4F529F52AAA30AB31AC328A828B75
:10099000838CF0120F3EFD74012AF530E43BF531F3
:1009A0008C32EDFA7003020F22BA25028003020F87
:1009B0001AC204C205C206C207C208C209C20AC2DC
:1009C0000BC201C202C203752B00752C00752DFFEE
:1009D000AB30AC31AD328B828C838DF0120F3EFA8E
:1009E000A3AB82AC838B308C318D32BA25078A82DF
:1009F00012059D80928A06BE3000402E8A06EE24A3
:100A0000C6402774FFB52D13E52C75F00AA4FEEA45
:100A100024D02EF52C70BFD20580BBE52D75F00AD1
:100A2000A4FEEA24D02EF52D80ACBA2E0A74FFB5B0
:100A30002DA4752D00809F8A06BE6100400E8A0697
:100A4000EE248540075302DFD2008002C200BA20A4
:100A5000028075BA2303020AD7BA2A03020ADCBA53
:100A60002B02805FBA2D028055BA4202805FBA43E2
:100A700003020B21BA4403020C5CBA4503020C7654
:100A8000BA4603020C72BA4703020C7ABA4903024F
:100A90000C5CBA4C02803BBA4E03020C7EBA4F0388
:100AA000020C63BA5003020BF5BA5303020B45BAAA
:100AB0005503020C68BA5803020C6D020CA8D2044C
:100AC0000209D6D2060209D6D2070209D6D20902F5
:100AD00009D6D20A0209D6D20B0209D674FFB52D67
:100AE0002030090BE53314F88833862C0209D6E54B
:100AF0003324FEF888338606088607188E2C0209F0
:100B0000D630090BE53314F88833862D0209D6E573
:100B10003324FEF888338606088607188E2D0209CE
:100B2000D630090AE53314F888338602800FE5339E
:100B300024FEF888338603088604188B028A821202
:100B4000059D020CADE53324FDF888338603088645
:100B50000408860518188B248C258D268B828C839F
:100B60008DF0121092AB82AC838B2E74FFB52D03E7
:100B7000852E2D20041DC3E52E952C5016E52CC383
:100B8000952EF52CAB2C152CEB60087582201205E8
:100B90009D80F18524828525838526F0120F3EFBFA
:100BA000FA6029AB2D152DC3E464808BF063F080CF
:100BB00095F050188A8212059DAB24AC25AD260B0A
:100BC000BB00010C8B248C258D2680C720040302DA
:100BD0000CADC3E52E952C4003020CADE52CC3955E
:100BE0002EF52CAB2C152CEB7003020CAD7582206E
:100BF00012059D80EEE53324FDF8883386030886D0
:100C00000408860518188B248C258D26E526FB30D4
:100C1000E7047A438013EB546060047A50800AEB57
:100C200030E6047A4980027A588A82C00212059D11
:100C300075823A12059D75823012059D7582781273
:100C4000059DD002BA4902800BBA50028006852564
:100C5000821205D08524821205D08051D208752BCE
:100C60000A804A752B088045752B0A8040752B1029
:100C7000803BD2018037D2028033D203802FE5330C
:100C800024FDF88833860308860408860518188B27
:100C9000248C258D268B828C838DF0E5291210798A
:100CA000A3E52A12107980058A8212059D2001068B
:100CB000200203300370E53324FCF88833860308F0
:100CC00086040886050886061818188B248C258D3E
:100CD000268E27E524E525E526E5278B828C838D66
:100CE000F0EE120F5A74FFB52D03752D0630032751
:100CF000747F5527FB8B28E528EB2BFB8B28E526FB
:100D000030E70674014528F528E528246840067474
:100D10009925284002D2023002061208990209875A
:100D2000120626020987E52B70030209877B3930FA
:100D3000092BE53314F88833E6FC3395E0FDFEFF1C
:100D40008C248D258E268F2720085EAC247D007E86
:100D5000007F008C248D258E268F27804C300A1F23
:100D6000E53324FCF88833860408860508860608DF
:100D700086071818188C248D258E268F27802AE543
:100D80003324FEF88833860408860518ED3395E091
:100D9000FEFF8C248D258E268F2720080CAC24ADD9
:100DA000257E007F008E268F27300B43E5244525C6
:100DB0004526452760397408B52B0C758230C00371
:100DC00012059DD00380287410B52B23758230C086
:100DD0000312059DD00330000C758278C003120504
:100DE0009DD003800A758258C00312059DD0033040
:100DF0000825AC24AD25AE26E527FF30E717C3E470
:100E00009CFCE49DFDE49EFEE49FFF8C248D258EDA
:100E1000268F278002C208752E00D20C8B00752801
:100E200000C0001205E7D000200C0DE528C4FCE648
:100E3000FD4CF61888038002A628052EB20CE52486
:100E400045254526452770D68803E52C7003752C6B
:100E50000120051A200417E52E04FCC3952C500E22
:100E6000758220C00312059DD003152C80E930083F
:100E70000E75822DC00312059DD003152C8024E52C
:100E80002E602030060E75822BC00312059DD00304
:100E9000152C800F30070C758220C00312059DD0E1
:100EA00003152C20041EAC2C152CC3E52E9C5027BA
:100EB0003005047C3080027C208C82C00312059DAA
:100EC000D00380E2C3E52E952C5009E52CC3952E66
:100ED000F52C8003752C008B00AB2E152EEB6022B9
:100EE000B20C200C0A08E6C4540FFB8B288007863E
:100EF00003740F5BF528852882C0001205B7D00067
:100F000080D7200403020987AB2C152CEB70030259
:100F1000098775822012059D80EE8A8212059D0246
:100F20000987852982852A8322AA82BA0A0810990C
:100F30000280FB75990D10990280FB8A992220F797
:100F40001430F6148883A88220F507E6A8837583F9
:100F50000022E280F7E49322E022C0E0F8458245D7
:100F60008345F07009F5F0FBFCFDFE021028E82334
:100F7000A2F792E0F8A982AA83D2F7ABF07C007EB8
:100F800007C3749798404074FF2EFE740A89F0A43A
:100F9000F985F082740A8AF0A4FA85F083740A8BCA
:100FA000F0A4FB740529F9EA3582FAEB3583FB746A
:100FB0000035F0FCC3EC13FCEB13FBEA13FAE91366
:100FC000F908EC70EF80BAE8C3947FF88B838EF059
:100FD000E4FBFCFDFEFF08C3E933F9EA33FAE583DD
:100FE00033F583EB3BD4FBEC3CD4FCED3DD4FDEE80
:100FF0003ED4FEEF3FD4FF602D05F074052BD4FBEB
:10100000E43CD4FCE43DD4FDE43ED4FEE43FD4FF14
:10101000758204C3EF13FFEE13FEED13FDEC13FC1A
:10102000EB13FBD582EDD8AF7834D0E020E704761F
:101030002B8002762D087906E7C4540F4430F60859
:10104000B90603762E08E7540F4430F60819B902A2
:10105000E7764508E5F020E704762B8004762DF44A
:10106000040875F00A844430F608E5F04430F608C8
:10107000E4F690003475F0402220F71030F6118825
:1010800083A88220F507F6A88375830022F280F7F3
:10109000F022AA82AB83ACF07D007E008A828B8333
:1010A0008CF0120F3EFFA3AA82AB83EF60070DBD49
:1010B00000EA0E80E78D828E83220000000000008F
:00000001FF
