:1000000002002E750900750A64750B00750C0075E9
:100010000D00750E00750F00E4F510F511220000BB
:1000200000000000000000000000000201CE758109
:1000300036120118E582600302009A780079007A8E
:10004000007B007C007D00EC4D601C88828983E48D
:1000500093A3A882A9838A828B83F0A3AA82AB830D
:100060001CBCFFE31D80E07582007583007C007D71
:1000700000EC4D600AE4F0A31CBCFFF51D80F27596
:1000800082007583007C007D00EC4D600AE4F0A3E3
:100090001CBCFFF51D80F212000312029980FE25A0
:1000A00064206469720A00256420706F7765720AA3
:1000B000001B5B324A00537175617265207761766F
:1000C000652067656E657261746F7220666F72205D
:1000D00074686520463338782E0D0A436865636B73
:1000E0002070696E732050322E3020616E64205073
:1000F000322E31207769746820746865206F7363CD
:10010000696C6C6F73636F70652E0D0A003C4E4F07
:1001100020464C4F41543E0053D9BF75FF8075EFC8
:100120000643A90343B203759810758D30538EF4BE
:10013000438E08858D8B53890F438920D28ED299A7
:1001400043A60343A41075E10175E24075C800435E
:100150008E1075CA7875CBEC75CCFF75CDFFD2AD1E
:10016000D2CAD2AF75820022AA82438E407592D045
:100170007593FF8592948593957591047B00C3EBED
:100180009A500BE59130E7FB53917F0B80F075910E
:100190000022AA82AB83BA0004BB0001227582F957
:1001A000C002C0031201687582F91201687582F9F4
:1001B0001201687582FA120168D003D0021ABAFFE0
:1001C000011B80D275BCF875E88075D10822C0E0AB
:1001D000C0D075D000C2CF0509E509249B50037536
:1001E0000900C3E50B95099200B392A2C3E50C95F3
:1001F000099200B392A5C3E50D95099200B392A4AC
:10020000C3E50E95099200B392A3D0D0D0E032207E
:1002100093183093FD740A250AF50A749C250A5038
:1002200003750A6490000A1201922097153097FD19
:1002300074F6250A5006E50A24F6F50A90000A121B
:100240000192E50F700C850A0BF50C850A0DF50E71
:10025000800C750B00850A0C750D00850A0EAA0F1F
:100260007B00C002C003749FC0E07400C0E07480D3
:10027000C0E01202E6E58124FBF581AA0A7B00C0FA
:1002800002C00374A7C0E07400C0E07480C0E01234
:1002900002E6E58124FBF58122750F0074B1C0E010
:1002A0007400C0E07480C0E01202E615811581156B
:1002B0008174B6C0E07400C0E07480C0E01202E651
:1002C00015811581158112020F9000641201928030
:1002D000F502092785823085833185F03285123316
:1002E0009002D1020390C008858108E50824FBF53F
:1002F00033E50824FBF88630088631088632900200
:10030000D1120390D00822AA827418C0E07403C0EE
:10031000E0C022C0238A82220529E4B52902052AE9
:1003200022AA8274302AFA24C6500A74072AFA30A4
:1003300001034302208A82020307E582FAC4540FB4
:10034000F582C002120321D002740F5AF582020313
:1003500021AA24AB25AC26AD27AE28752F20EE2E82
:10036000FEED235401FF4206EA2AFAEB33FBEC339D
:10037000FCED33FDC3EE952B4008EEC3952BFE43F9
:100380000201D52FD98A248B258C268D278E2822F1
:10039000858222858323E4F529F52AAA30AB31AC86
:1003A000328A828B838CF012093CFD74012AF5306D
:1003B000E43BF5318C32EDFA7003020920BA2502D4
:1003C0008003020918C205C206C207C208C209C2D8
:1003D0000AC20BC20CC202C203C204752B00752CE8
:1003E00000752DFFAB30AC31AD328B828C838DF03C
:1003F00012093CFAA3AB82AC838B308C318D32BABC
:1004000025078A8212030780928A06BE3000402E9A
:100410008A06EE24C6402774FFB52D13E52C75F02F
:100420000AA4FEEA24D02EF52C70BFD20680BBE5CC
:100430002D75F00AA4FEEA24D02EF52D80ACBA2E3C
:100440000A74FFB52DA4752D00809F8A06BE610039
:10045000400E8A06EE248540075302DFD201800257
:10046000C201BA20028075BA23030204EBBA2A0340
:100470000204F0BA2B02805FBA2D028055BA420204
:10048000805FBA4303020535BA4403020670BA45D9
:100490000302068ABA4603020686BA470302068E9C
:1004A000BA4903020670BA4C02803BBA4E030206F8
:1004B00092BA4F03020677BA5003020609BA5303F1
:1004C000020559BA550302067CBA58030206810296
:1004D00006BCD2050203EAD2070203EAD2080203ED
:1004E000EAD20A0203EAD20B0203EAD20C0203EABE
:1004F00074FFB52D20300A0BE53314F88833862CB1
:100500000203EAE53324FEF88833860608860718D6
:100510008E2C0203EA300A0BE53314F88833862D5B
:100520000203EAE53324FEF88833860608860718B6
:100530008E2D0203EA300A0AE53314F88833860266
:10054000800FE53324FEF888338603088604188B71
:10055000028A821203070206C1E53324FDF88833BC
:10056000860308860408860518188B248C258D269A
:100570008B828C838DF0120971AB82AC838B2E74CD
:10058000FFB52D03852E2D20051DC3E52E952C507E
:1005900016E52CC3952EF52CAB2C152CEB600875AD
:1005A000822012030780F18524828525838526F029
:1005B00012093CFBFA6029AB2D152DC3E464808B36
:1005C000F063F08095F050188A82120307AB24ACD8
:1005D00025AD260BBB00010C8B248C258D2680C7F6
:1005E0002005030206C1C3E52E952C40030206C177
:1005F000E52CC3952EF52CAB2C152CEB70030206C5
:10060000C175822012030780EEE53324FDF888339C
:10061000860308860408860518188B248C258D26E9
:10062000E526FB30E7047A438013EB546060047ADC
:1006300050800AEB30E6047A4980027A588A82C0F8
:100640000212030775823A120307758230120307FC
:10065000758278120307D002BA4902800BBA5002A1
:10066000800685258212033A85248212033A80513E
:10067000D209752B0A804A752B088045752B0A8094
:1006800040752B10803BD2028037D2038033D204D6
:10069000802FE53324FDF888338603088604088616
:1006A0000518188B248C258D268B828C838DF0E584
:1006B00029120958A3E52A12095880058A821203D3
:1006C0000720020620030330045AE53324FCF8888F
:1006D0003386030886040886050886061818188BD2
:1006E000248C258D268E2775240D75250175268071
:1006F00085243485253585263674012534FEE43578
:1007000035FFAB368E248F258B2685348285358345
:100710008536F012093CFBFA700302039B8A8212B1
:10072000030780CCE52B700302039B7B19300A2B57
:10073000E53314F88833E6FC3395E0FDFEFF8C24A6
:100740008D258E268F2720095EAC247D007E007FBC
:10075000008C248D258E268F27804C300B1FE5338F
:1007600024FCF88833860408860508860608860770
:100770001818188C248D258E268F27802AE533247F
:10078000FEF88833860408860518ED3395E0FEFFF1
:100790008C248D258E268F2720090CAC24AD257E38
:1007A000007F008E268F27300C43E5244525452603
:1007B000452760397408B52B0C758230C0031203CD
:1007C00007D00380287410B52B23758230C0031224
:1007D0000307D00330010C758278C003120307D0E1
:1007E00003800A758258C003120307D0033009251D
:1007F000AC24AD25AE26E527FF30E717C3E49CFC0B
:10080000E49DFDE49EFEE49FFF8C248D258E268FC3
:10081000278002C209752E00D20D8B00752800C0FA
:1008200000120351D000200D0DE528C4FCE6FD4C5C
:10083000F61888038002A628052EB20DE52445256A
:100840004526452770D68803E52C7003752C0120BA
:10085000061A200517E52E04FCC3952C500E758250
:1008600020C003120307D003152C80E930090E7550
:10087000822DC003120307D003152C8024E52E60BF
:100880002030070E75822BC003120307D003152CEE
:10089000800F30080C758220C003120307D00315A7
:1008A0002C20051EAC2C152CC3E52E9C50273006A1
:1008B000047C3080027C208C82C003120307D003AA
:1008C00080E2C3E52E952C5009E52CC3952EF52C1E
:1008D0008003752C008B00AB2E152EEB6022B20D21
:1008E000200D0A08E6C4540FFB8B2880078603748A
:1008F0000F5BF528852882C000120321D00080D725
:1009000020050302039BAB2C152CEB700302039B09
:1009100075822012030780EE8A8212030702039B6E
:10092000852982852A8322AA82BA0A081099028020
:10093000FB75990D10990280FB8A992220F71430DB
:10094000F6148883A88220F507E6A8837583002221
:10095000E280F7E49322E02220F71030F61188833A
:10096000A88220F507F6A88375830022F280F7F0AD
:1009700022AA82AB83ACF07D007E008A828B838CBE
:10098000F012093CFFA3AA82AB83EF60070DBD0004
:10099000EA0E80E78D828E832200000000000000B6
:00000001FF
