:1000000002002E2020202020202020202020202020
:100010002020200025342E33666D73002564001BDC
:100020005B324A00000000000000000202547581AB
:10003000721200D2E582600302009A780079007A99
:10004000007B007C007D00EC4D601C88828983E48D
:1000500093A3A882A9838A828B83F0A3AA82AB830D
:100060001CBCFFE31D80E07582007583007C007D71
:1000700000EC4D600AE4F0A31CBCFFF51D80F27596
:1000800082007583007C007D00EC4D600AE4F0A3E3
:100090001CBCFFF51D80F212009F1208EE80FE7559
:1000A000220075231E75240075250075260075270E
:1000B00000752800752900752A03E4F52B752C00BE
:1000C000E4F52DF52E752F00753000753100753271
:1000D000002253D9BF75FF8075EF0643A90343B2D1
:1000E00003759810758D30538EF4438E08858D8B73
:1000F00053890F438920D28ED29943A60343A4018A
:1001000075E10175E24075820022AA82438E407536
:1001100092D07593FF8592948593957591047B0099
:10012000C3EB9A500BE59130E7FB53917F0B80F0C6
:1001300075910022AA82AB83BA0004BB000122752C
:1001400082F9C002C00312010A7582F912010A7510
:1001500082F912010A7582FA12010AD003D0021A3A
:10016000BAFF011B80D25389F0438901C28C2275EA
:10017000C800438E1075CA7875CBEC75CCFF75CD71
:10018000FFD2ADD2CA2275BCF875E88075D10822BD
:10019000AA828511F005F07401800225E0D5F0FBFC
:1001A000FBEA24FC4033EA2A2A9001AD730201B92C
:1001B0000201C10201C90201D1EBF452F1EB42D4B8
:1001C00022EBF452F2EB42D522EBF452F3EB42D69F
:1001D00022EBF4FA52F4EB42DF228582BB75BA1FA0
:1001E000D2EC20ECFDD2EC20ECFDAABD7B00ADBE34
:1001F0007C00EC2AF582ED3BF583221201DA120B2A
:100200001DAA82AB83ACF0FDC002C003C004C005D0
:1002100090DD2F75F0547440120B89AA82AB83AC29
:10022000F0FDE58124FCF581E4C0E0C0E07480C00D
:10023000E07444C0E08A828B838CF0ED120D73AAC7
:1002400082AB83ACF0FDE58124FCF5818A828B834F
:100250008CF0ED22C0E0C0D075D000C2CF0522E501
:1002600022249B5003752200C3E52495229200B3FB
:1002700092A5C3E52595229200B392A2C3E52695E7
:10028000229200B392A3C3E52795229200B392A4D1
:10029000D0D0D0E032D29575822812010AC29522C0
:1002A000AA828AE0A2E79290A2E69291A2E59292B7
:1002B000A2E49293C00212029575822812010AD01C
:1002C000028AE0A2E39290A2E29291A2E19292A22B
:1002D000E09293020295AA82D2A18A821202A09091
:1002E0000002020134AA82C2A18A821202A09000F6
:1002F00005020134C295C297900014120134758230
:10030000331202E57582331202E57582321202E57C
:100310007582281202E575820C1202E575820112BF
:1003200002E5900014020134AA82AB83ACF074029F
:10033000B53D047DC080027D808D82C002C003C0B7
:10034000041202E5900005120134D004D003D0025B
:100350007D007E00ED2AFFEE3BF88C018F828883C2
:1003600089F0120B01FF60208F82C002C003C0041D
:10037000C005C0061202D6D006D005D004D003D0E6
:10038000020DBD00CF0E80CC3001248D028E03C340
:10039000EA9410EB648094805015758220C002C0EE
:1003A000031202D6D003D0020ABA00E30B80E02287
:1003B000753D01D20190000375F080120328753D50
:1003C00002D20190000375F080020328758A00753F
:1003D0008C00C28D7529003096FD2096FDD28C20B0
:1003E0009609108D0280F8052980F4309609108D49
:1003F0000280F8052980F4C28C852982120C2CAA6F
:1004000082AB83ACF0FDC002C003C004C005900005
:100410000075F0807447120B89AA82AB83ACF0FDA3
:10042000E58124FCF581858C82C002C003C004C034
:1004300005120C2CAE82AF83A8F0F9C006C007C02D
:1004400000C00190000075F0807443120B89AE82E9
:10045000AF83A8F0F9E58124FCF581D005D004D064
:1004600003D002C006C007C000C0018A828B838C03
:10047000F0ED120C37AA82AB83ACF0FDE58124FCD1
:10048000F581AE8A7F008E828F83C002C003C004D4
:10049000C005120D66AE82AF83A8F0F9D005D00476
:1004A000D003D002C006C007C000C0018A828B837F
:1004B0008CF0ED120C37AA82AB83ACF0FDE5812401
:1004C000FCF581C002C003C004C00590126F75F036
:1004D000837439120B8985822F85833085F031F53D
:1004E00032E58124FCF58122E4C0E0C0E0745CC008
:1004F000E07443C0E0852F828530838531F0E5329A
:10050000120B29AA82E58124FCF581EA602BE4C064
:10051000E0C0E074B4C0E07443C0E0852F82853051
:10052000838531F0E532120B59AA82E58124FCF56E
:1005300081EA6005E4F52AF52BE4C0E0C0E074B47C
:10054000C0E07443C0E0852F828530838531F0E5BB
:1005500032120B29AA82E58124FCF581EA602CE4A1
:10056000C0E0C0E074E1C0E07443C0E0852F828544
:1005700030838531F0E532120B59AA82E58124FCE3
:10058000F581EA6006752A03E4F52BE4C0E0C0E0DB
:100590007407C0E07443C0E0852F828530838531C5
:1005A000F0E532120B29AA82E58124FCF581EA608C
:1005B0002CE4C0E0C0E0745CC0E07443C0E0852F70
:1005C000828530838531F0E532120B59AA82E581AC
:1005D00024FCF581EA6006752A05E4F52B22858264
:1005E0003E85833F85F040C37405952AE4952B50E2
:1005F0000122E52A252A252A9005FC7302082202F9
:10060000082F02084B02060E020718020868AA3ECD
:10061000AB3FAC408A828B838CF0120B01FDA3129E
:100620000B01FEA3120B01FFA3120B01F8C002C0C5
:1006300003C0047462C0E07410C0E074F8C0E074D9
:100640003EC0E08D828E838FF0E8120D5BAD82AEEE
:1006500083AFF0F8E58124FCF58174ACC0E0741C34
:10066000C0E074DAC0E0743DC0E08D828E838FF00C
:10067000E8120B29AD82E58124FCF581D004D0037A
:10068000D002ED600D7525007524008523277526A1
:10069000002274042AFAE43BFB8A828B838CF012DA
:1006A0000B01FAA3120B01FBA3120B01FCA3120B0B
:1006B00001FD741BC0E0742FC0E074CDC0E0743E37
:1006C000C0E08A828B838CF0ED120D5BAA82AB8333
:1006D000ACF0FDE58124FCF58174ACC0E0741CC075
:1006E000E0745AC0E0743DC0E08A828B838CF0EDE8
:1006F000120B29AA82E58124FCF581EA600D85238D
:10070000257524007527007526002285232575246C
:100710000085232775260022AA3EAB3FAC408A8283
:100720008B838CF0120B01FDA3120B01FEA3120BA5
:1007300001FFA3120B01F8C002C003C0047462C021
:10074000E07410C0E074F8C0E0743EC0E08D828EAA
:10075000838FF0E8120D5BAD82AE83AFF0F8E581D8
:1007600024FCF58174ACC0E0741CC0E074DAC0E015
:10077000743DC0E08D828E838FF0E8120B29AD822C
:10078000E58124FCF581D004D003D002ED600D7525
:1007900025007524007527008523262274042AFA73
:1007A000E43BFB8A828B838CF0120B01FAA3120BC1
:1007B00001FBA3120B01FCA3120B01FD741BC0E093
:1007C000742FC0E074CDC0E0743EC0E08A828B8399
:1007D0008CF0ED120D5BAA82AB83ACF0FDE58124B9
:1007E000FCF58174ACC0E0741CC0E0745AC0E074C5
:1007F0003DC0E08A828B838CF0ED120B29AA82E542
:100800008124FCF581EA600D752500852324752778
:10081000007526002285232575240085232775264B
:10082000002275250075240075270075260022E436
:10083000F525F524E52375F003A4F527752600902A
:1008400003E8120134E4F52AF52B22E52375F003C1
:10085000A4F5257524007527007526009003E8127D
:100860000134E4F52AF52B22752500E52375F00304
:10087000A4F524E52375F003A4F52775260090045C
:10088000B0020134C02FC030C031C0327414C0E097
:100890007400C0E07480C0E07433C0E07400C0E055
:1008A0007440C0E0120D15E58124F6F581753D0117
:1008B000D20190003375F040120328C02AC02B7477
:1008C0001CC0E07400C0E07480C0E07433C0E07409
:1008D00000C0E07440C0E0120D15E58124F8F581F8
:1008E000753D02D20190003375F0400203281201D9
:1008F0006612016F1202F4D2AF75110475820112F3
:1009000001907511007582021201907511077582B0
:1009100002120190120186741FC0E07400C0E074DE
:1009200080C0E0120CA515811581158175820F120A
:1009300001FBAA82AB83ACF0FD8A418B428C438DD4
:10094000447582041201FBAA82AB83ACF0FD8A4598
:100950008B468C478D487582081201FBAA82AB83B7
:10096000ACF0FD8A498B4A8C4B8D4C758A00758C96
:1009700000C28D7529007405B52A07E4B52B030262
:100980000AD574CDC0E074CCC0E0C0E0743DC0E0D6
:100990008541828542838543F0E544120B59AA8242
:1009A000E58124FCF581EA7003020AE1D28C74CD62
:1009B000C0E074CCC0E0C0E0743DC0E085418285F9
:1009C00042838543F0E544120B59AA82E58124FC59
:1009D000F581EA601E75820F1201FBAA82AB83AC1F
:1009E000F0FD8A418B428C438D44108D0280BF05FF
:1009F0002980BBC28C852982120C2CAA82AB83ACC5
:100A0000F0FDC002C003C004C00590000075F08076
:100A10007447120B8985824D85834E85F04FF550C2
:100A2000E58124FCF581858C82120C2CAE82AF838B
:100A3000AAF0FBC006C007C002C00390000075F01A
:100A4000807443120B89AA82AB83ACF0FDE581244C
:100A5000FCF581C002C003C004C005854D82854EEF
:100A600083854FF0E550120C3785824D85834E8586
:100A7000F04FF550E58124FCF581AE8A7F008E822F
:100A80008F83120D66AE82AF83AAF0FBC006C0074B
:100A9000C002C003854D82854E83854FF0E550121C
:100AA0000C37AA82AB83ACF0FDE58124FCF581C054
:100AB00002C003C004C00590126F75F08374391230
:100AC0000B8985822F85833085F031F532E58124CD
:100AD000FCF581800C752F007530007531967532EC
:100AE000431204E890004175F0401205DE120884BC
:100AF000900001120134052DE4B52D02052E0209E6
:100B00002C20F71430F6148883A88220F507E6A875
:100B10008375830022E280F7E49322E022E4AC8331
:100B2000AB82FAF9748E020E9BFFA8811818120E80
:100B3000C3D2D133E6400730E70B7582012220E7AC
:100B40000675820022C2D1120EA5E97003F5822239
:100B500030D101B3E433F58222FFA8811818120EB8
:100B6000C3D2D133E6400730E70B7582002220E77D
:100B70000675820122C2D1120EA5E97003F5822208
:100B800020D101B3E433F58222120F70BC000302BE
:100B90000F0FEF60FA30D502B2D1E583B4FF030244
:100BA0000F25E582B4FF03020F2525834007248229
:100BB000400B020F0F2483145003020F25F582EA25
:100BC0008DF0A4A8F0EA8EF0A428F8E435F0F9EB53
:100BD0008DF0A428E935F0F9E433CA8FF0A429F99F
:100BE000EA35F0FAEBF88EF0A429F9EA35F0FAE4E8
:100BF00033FBEC8DF0A429F9EA35F0FAE43BFBE88D
:100C00008FF0A42AFAEB35F0FBE433CCFD8EF0A490
:100C10002AFAEB35F0FBE43CFCED8FF0A42BFBEC67
:100C200035F0FC20E703120F3D020EEEE4AC82FB30
:100C3000FAF97486020E9B120F707900E583B58273
:100C400002800D5003120F9EE583C39582120FB8E8
:100C5000E5D0C465D020E117EA2DFAEB3EFBEC3F6E
:100C6000FC50097401120FB8EC4480FC020EEEC374
:100C7000EA9DFAEB9EFBEC9FFC500FC3E499F9E46C
:100C80009AFAE49BFBE49CFCB2D1120F3D020EEEFB
:100C900002198785825F85836085F0618510629087
:100CA0000C900213DAC008858108E50824FBF56280
:100CB000E50824FBF8865F088660088661900C9042
:100CC0001213DAD00822AA82AB09AC0AAD0B8B82D0
:100CD0008C838DF0EA12199C0509E4B50902050A16
:100CE0002285820985830A85F00B850C5F850D605E
:100CF000850E61850F62900CC61213DAAA82AB834F
:100D0000AC09AD0AAE0B8C828D838EF0E412199C77
:100D10008A828B8322C008858108E50824F8F56261
:100D2000E50824FBF8860908860A08860BE50824EE
:100D3000F8F8865F088660088661900CC61213DAA0
:100D4000AA82AB83AC09AD0AAE0B8C828D838EF088
:100D5000E412199C8A828B83D00822A8811818C6B5
:100D6000B2E7C6020C37AC83AB827A007900748E8E
:100D70000219BE120F7030D502B2D1BF0009BC00FB
:100D800003020F32020F25BC0003020F0FE583B4EC
:100D9000FF0BE582B4FF03020F32020F0FE582B4AE
:100DA000FF03020F25C395835007247F400B020FDA
:100DB0000F2480145003020F25C0E0E4CCCBCAF905
:100DC0008D118E128F13EF54F0C4F51475830685C0
:100DD00014F0EB84F582E9C4F9EAC4FAEBC4FBEC45
:100DE000540FC47803D6FC18EBD6FB18EAD6FA8564
:100DF00082F0EDA4A8F0FD8582F0EEA428FEE43593
:100E0000F0F88582F0EFA428FFE435F0F8E99DF9C9
:100E1000EA9EFAEB9FFBEC98FCAD11AE12AF1330DB
:100E2000E7101582E92DF9EA3EFAEB3FFBE43CFCC2
:100E300080EDC082D58398C3E933F9EA33FAEB3306
:100E4000FBEC33FCC3E99DEA9EEB9FEC9400B3E41A
:100E500013F9D002D0E0C44AFAD003D0E0C44BFB6F
:100E6000D004D0E0F5F0540FC44CFCD08215823091
:100E7000F40FD3EC13FCEB13FBEA13FAE913F905B7
:100E800082E930E70A74012AFAE43BFBE43CFC0205
:100E90000F06FCABF0AA83A982749EC2D1F5821220
:100EA0000F3D020EEE7901AA82E68F82B5821318F9
:100EB000E6B5F00E18E6B5830918E68A82B5820217
:100EC000790022B4800FE5F0700AE5837006E582B0
:100ED00070027F00EFB6801518B6001018B6000B30
:100EE00018B6000608080876002208080822B9800B
:100EF00003EA13B34010EA2401FAE43BFBE43CFCB0
:100F000050047C800582BC000EBB000BBA0008E4D4
:100F1000F5F0F583F58222A2D1E582138CF092F7E9
:100F20008B838A8222E4F583F58275F080F4A2D166
:100F30001322E4F583F58275F0C0747F227804EC07
:100F40007011E58224F8500AF582E4C9CACBFCD8B6
:100F5000EF22EC7820058220E713D5820122C3E935
:100F600033F9EA33FAEB33FBEC33FCD8EA1582228F
:100F7000AA82AB83A2F73392D16002D2F7F582AC9A
:100F8000F0E58124F9F8E6FD08E6FE0886F008E6BB
:100F9000A2F73392D56002D2F7F583AFF022E58253
:100FA000C583F582A2D133A2D592D11392D5ECCFCD
:100FB000FCEBCEFBEACDFA226040F82582500274A9
:100FC000FFF582E824F8501ECCCBCAF9E4CC24F813
:100FD0005014CBCAF9E4CB24F8500BCAF9E4CA2464
:100FE000F8500379002224086010F8C3EC13FCEBDE
:100FF00013FBEA13FAE913F9D8F122AA82740CC0A0
:10100000E07410C0E0C051C0528A82220558E4B595
:101010005802055922AA8274302AFA24C6500A744A
:10102000072AFA3002034302208A82020FFBE5827C
:10103000FAC4540FF582C002121015D002740F5A70
:10104000F582021015AA53AB54AC55AD56AE577588
:101050005E20EE2EFEED235401FF4206EA2AFAEB53
:1010600033FBEC33FCED33FDC3EE955A4008EEC381
:10107000955AFE430201D55ED98A538B548C558D07
:10108000568E5722786FE624D075F00AA4FA78704D
:10109000E624D02AFA786E8603BB2D04C3E49AFABC
:1010A000755A01C3E464808AF063F08095F050299A
:1010B000755E038A0374F6255E401C055AE55E14CE
:1010C0002463F8E55E2463F98704A604772E1BEBFE
:1010D000FA6004055E80DE8B02EA30E70D786486F4
:1010E000037865A6037864762E0AE55C600AE55C01
:1010F00004FB255AF55A8005300D02055A7863869F
:1011000003E4BB2D0104FB7006200803300902052F
:101110005A3006030211CB300757EB600C75822D55
:10112000C002120FFBD002801C30080C75822BC04D
:1011300002120FFBD002800D30090A758220C00216
:10114000120FFBD00278648604BC2E0C758230C06E
:1011500002120FFBD002155BAC5B155BC3E55A9C1A
:10116000400302120F758230C002120FFBD00280C2
:10117000E7AC5B155BC3E55A9C500C758220C0023E
:10118000120FFBD00280EA78638604BC2D0C7582B6
:101190002DC002120FFBD002801C30080C75822B70
:1011A000C002120FFBD002800D30090A758220C0E8
:1011B00002120FFBD00278648604BC2E5275823076
:1011C000C002120FFBD002155B8044EB600E7582EB
:1011D0002DC002120FFBD002155B802030080E7567
:1011E000822BC002120FFBD002155B800F30090C5E
:1011F000758220C002120FFBD002155B7864860353
:10120000BB2E0C758230C002120FFBD002155B752D
:101210005E01C20FE55E2463F88603BB450302123C
:10122000CCBB2E348A03C3E464808BF063F08095DA
:10123000F0500F758230C003120FFBD0031B8B02DE
:1012400080E48B02D20FE55C7038200D030212CCD3
:1012500075822E120FFB8074300F278A03EB30E764
:101260001FC3E46480855CF063F08095F0500C75DA
:101270008230C003120FFBD003155C0B8B0280DDA4
:101280008B02300F0EC3E46480855CF063F08095C0
:10129000F05021E55E2463F886038B82C002120FB2
:1012A000FBD002300F0EE55E2463F88603BB2E02EE
:1012B0008002155C155BC3E46480855CF063F0809C
:1012C00095F04003200F05055E021214C3E464800C
:1012D000855CF063F08095F0500A758230120FFB48
:1012E000155C80E830060FAA5B155BEA6008758222
:1012F00020120FFB80F122E55C7003300D0D7407A6
:10130000255CFAE55BC39AF55B8006E55B24FAF59C
:101310005B755E0078638602BA2B0F20080C786339
:101320007620200905755E01055B200619AA5BC3BE
:10133000E464808AF063F08095F0500A7582201290
:101340000FFB155B80E7C20FE55E2463F88602BAE7
:1013500000028069BA451F3002027665C3E46480EA
:10136000855CF063F08095F0500A758230120FFBB7
:10137000155C80E8D20FC3E55E9402E433FA701482
:10138000EA700EC3E46480855CF063F08095F04001
:1013900003300F16E55E2463F886028A82120FFB83
:1013A000E55E24FD5012155C800E7402B55E0930B6
:1013B0000D0675822E120FFB055E021348300619CA
:1013C000AA5BC3E464808AF063F08095F0500A75EC
:1013D0008220120FFB155B80E722858251858352A4
:1013E000E4F558F559AA5FAB60AC618A828B838CB7
:1013F000F0120B01FD74012AF55FE43BF5608C618E
:10140000EDFA7003021980BA25028003021978C22E
:1014100006C207C208C209C20AC20BC20CC20DC270
:1014200003C204C205755A00755B00755CFFAB5FB3
:10143000AC60AD618B828C838DF0120B01FAA3AB93
:1014400082AC838B5F8C608D61BA25078A82120F14
:10145000FB80928A06BE3000402E8A06EE24C640EB
:101460002774FFB55C13E55B75F00AA4FEEA24D08F
:101470002EF55B70BFD20780BBE55C75F00AA4FE59
:10148000EA24D02EF55C80ACBA2E0A74FFB55CA4B9
:10149000755C00809F8A06BE6100400E8A06EE24BD
:1014A0008540075302DFD2028002C202BA200280C6
:1014B00075BA2303021535BA2A0302153ABA2B026C
:1014C000805FBA2D028055BA4202805FBA430302A0
:1014D000157FBA44030216BABA45030216D4BA46B7
:1014E000030216D0BA47030216D8BA49030216BA45
:1014F000BA4C02803BBA4E030216DCBA4F03021606
:10150000C1BA5003021653BA53030215A3BA5503C6
:101510000216C6BA58030216CB021706D2060214E8
:1015200034D208021434D209021434D20B02143417
:10153000D20C021434D20D02143474FFB55C203086
:101540000B0BE56214F88862865B021434E56224B2
:10155000FEF888628606088607188E5B021434300F
:101560000B0BE56214F88862865C021434E5622491
:10157000FEF888628606088607188E5C02143430EE
:101580000B0AE56214F888628602800FE56224FE89
:10159000F888628603088604188B028A82120FFB81
:1015A00002170BE56224FDF88862860308860408AA
:1015B000860518188B538C548D558B828C838DF037
:1015C000121B01AB82AC838B5D74FFB55C03855D40
:1015D0005C20061DC3E55D955B5016E55BC3955D1C
:1015E000F55BAB5B155BEB6008758220120FFB802F
:1015F000F18553828554838555F0120B01FBFA6007
:1016000029AB5C155CC3E464808BF063F08095F0DB
:1016100050188A82120FFBAB53AC54AD550BBB0074
:10162000010C8B538C548D5580C720060302170B79
:10163000C3E55D955B400302170BE55BC3955DF564
:101640005BAB5B155BEB700302170B758220120F0F
:10165000FB80EEE56224FDF88862860308860408B4
:10166000860518188B538C548D55E555FB30E704CF
:101670007A438013EB546060047A50800AEB30E6C2
:10168000047A4980027A588A82C002120FFB75825E
:101690003A120FFB758230120FFB758278120FFB26
:1016A000D002BA4902800BBA5002800685548212D9
:1016B000102E85538212102E8051D20A755A0A803C
:1016C0004A755A088045755A0A8040755A10803B01
:1016D000D2038037D2048033D205802FE56224FD07
:1016E000F88862860308860408860518188B538CD0
:1016F000548D558B828C838DF0E55812199CA3E58F
:101700005912199C80058A82120FFB2003062004BF
:1017100003300570E56224FCF888628603088604BD
:101720000886050886061818188B538C548D558E1C
:1017300056E553E554E555E5568B828C838DF0EEE6
:101740001219E274FFB55C03755C06300527747FDF
:101750005556FB8B57E557EB2BFB8B57E55530E781
:101760000674014557F557E55724684006749925D6
:10177000574002D2043004061212F70213E5121089
:10178000840213E5E55A70030213E57B68300B2BE6
:10179000E56214F88862E6FC3395E0FDFEFF8C53A9
:1017A0008D548E558F56200A5EAC537D007E007F8F
:1017B000008C538D548E558F56804C300C1FE56233
:1017C00024FCF888628604088605088606088607D1
:1017D0001818188C538D548E558F56802AE5622424
:1017E000FEF88862860408860518ED3395E0FEFF52
:1017F0008C538D548E558F56200A0CAC53AD547EAD
:10180000007F008E558F56300D43E55345544555A6
:10181000455660397408B55A0C758230C003120FF2
:10182000FBD00380287410B55A23758230C0031290
:101830000FFBD00330020C758278C003120FFBD06F
:1018400003800A758258C003120FFBD003300A25AB
:10185000AC53AD54AE55E556FF30E717C3E49CFCDE
:10186000E49DFDE49EFEE49FFF8C538D548E558FC6
:10187000568002C20A755D00D20E8B00755700C0FB
:1018800000121045D000200E0DE557C4FCE6FD4CBB
:10189000F61888038002A657055DB20EE55345543D
:1018A0004555455670D68803E55B7003755B01208E
:1018B000071A200617E55D04FCC3955B500E758280
:1018C00020C003120FFBD003155B80E9300A0E75B0
:1018D000822DC003120FFBD003155B8024E55D60F1
:1018E0002030080E75822BC003120FFBD003155B4E
:1018F000800F30090C758220C003120FFBD0031536
:101900005B20061EAC5B155BC3E55D9C5027300772
:10191000047C3080027C208C82C003120FFBD00339
:1019200080E2C3E55D955B5009E55BC3955DF55BC2
:101930008003755B008B00AB5D155DEB6022B20E22
:10194000200E0A08E6C4540FFB8B578007860374E9
:101950000F5BF557855782C000121015D00080D755
:101960002006030213E5AB5B155BEB70030213E586
:10197000758220120FFB80EE8A82120FFB0213E5A4
:1019800085588285598322AA82BA0A081099028052
:10199000FB75990D10990280FB8A992220F710306F
:1019A000F6118883A88220F507F6A88375830022A4
:1019B000F280F7F022FCABF0AA83A982749EF58234
:1019C000C2D1EC30E716D2D1E9F42401F9EAF434BB
:1019D00000FAEBF43400FBECF43400FC120F3D028F
:1019E0000EEEC0E0F84582458345F07009F5F0FB46
:1019F000FCFDFE021AB0E823A2F792E0F8A982AA41
:101A000083D2F7ABF07C007E07C374979840407494
:101A1000FF2EFE740A89F0A4F985F082740A8AF018
:101A2000A4FA85F083740A8BF0A4FB740529F9EA03
:101A30003582FAEB3583FB740035F0FCC3EC13FC04
:101A4000EB13FBEA13FAE913F908EC70EF80BAE83C
:101A5000C3947FF88B838EF0E4FBFCFDFEFF08C38C
:101A6000E933F9EA33FAE58333F583EB3BD4FBEC56
:101A70003CD4FCED3DD4FDEE3ED4FEEF3FD4FF6000
:101A80002D05F074052BD4FBE43CD4FCE43DD4FDDF
:101A9000E43ED4FEE43FD4FF758204C3EF13FFEEAF
:101AA00013FEED13FDEC13FCEB13FBD582EDD8AF69
:101AB0007863D0E020E704762B8002762D08790643
:101AC000E7C4540F4430F608B90603762E08E754ED
:101AD0000F4430F60819B902E7764508E5F020E72B
:101AE00004762B8004762DF4040875F00A844430C3
:101AF000F608E5F04430F608E4F690006375F0402F
:101B000022AA82AB83ACF07D007E008A828B838C1C
:101B1000F0120B01FFA3AA82AB83EF60070DBD009B
:101B2000EA0E80E78D828E83220000000000000014
:00000001FF
