:1000000002002E00000000000000000000000000C0
:100020000000000000000000000000020292758144
:1000300061120110E582600302009A780079007A6B
:10004000007B007C007D00EC4D601C88828983E48D
:1000500093A3A882A9838A828B83F0A3AA82AB830D
:100060001CBCFFE31D80E07582007583007C007D71
:1000700000EC4D600AE4F0A31CBCFFF51D80F27596
:1000800082007583007C007D00EC4D600AE4F0A3E3
:100090001CBCFFF51D80F21200E31206E480FE4650
:1000A000726571203D2025352E336620485A2C205C
:1000B000426C7565203D2025352E336620562C2058
:1000C000526564203D2025352E336620562C205263
:1000D0006174696F203D2025352E33660D001B5B52
:1000E000324A0075220075231E752400752500759F
:1000F0002600752700752800752900E4F52AF52BE0
:10010000752C00752D00752E00752F00753003229B
:1001100053D9BF75FF8075EF0643A90343B203753A
:100120009810758D30538EF4438E08858D8B5389CE
:100130000F438920D28ED29943A60343A40175E1CF
:100140000175E24075820022AA82438E407592D0EA
:100150007593FF8592948593957591047B00C3EB0D
:100160009A500BE59130E7FB53917F0B80F075912E
:100170000022AA82AB83BA0004BB0001227582F977
:10018000C002C0031201487582F91201487582F954
:100190001201487582FA120148D003D0021ABAFF40
:1001A000011B80D25389F0438901C28C2275C8009B
:1001B000438E1075CA7875CBEC75CCFF75CDFFD228
:1001C000ADD2CA2275BCF875E88075D10822AA8222
:1001D000851CF005F07401800225E0D5F0FBFBEAF8
:1001E00024FC4033EA2A2A9001EB730201F7020152
:1001F000FF02020702020FEBF452F1EB42D422EBB2
:10020000F452F2EB42D522EBF452F3EB42D622EB5E
:10021000F4FA52F4EB42DF228582BB75BA1FD2ECAE
:1002200020ECFDD2EC20ECFDAABD7B00ADBE7C0035
:10023000EC2AF582ED3BF5832212021812078BAAF5
:1002400082AB83ACF0FDC002C003C004C00590DDEA
:100250002F75F05474401207F7AA82AB83ACF0FDFF
:10026000E58124FCF581E4C0E0C0E07480C0E07466
:1002700044C0E08A828B838CF0ED120941AA82ABE4
:1002800083ACF0FDE58124FCF5818A828B838CF0C0
:10029000ED22C0E0C0D075D000C2CF0522E52224F7
:1002A0009B5003752200C3E52495229200B392A5CA
:1002B000C3E52595229200B392A2C3E5269522922A
:1002C00000B392A3C3E52795229200B392A4D0D0A5
:1002D000D0E032758A00758C00C28D752900209699
:1002E000FD3096FDD28C309609108D0280F80529DC
:1002F00080F4209609108D0280F8052980F4C28CC4
:1003000085298212089AAA82AB83ACF0FDC002C094
:1003100003C004C00590000075F08074471207F711
:10032000AA82AB83ACF0FDE58124FCF581858C824B
:10033000C002C003C004C00512089AAE82AF83A8F1
:10034000F0F9C006C007C000C00190000075F08041
:1003500074431207F7AE82AF83A8F0F9E58124FC5D
:10036000F581D005D004D003D002C006C007C0007C
:10037000C0018A828B838CF0ED1208A5AA82AB8320
:10038000ACF0FDE58124FCF581AE8A7F008E828F82
:1003900083C002C003C004C005120934AE82AF831B
:1003A000A8F0F9D005D004D003D002C006C007C021
:1003B00000C0018A828B838CF0ED1208A5AA82AB63
:1003C00083ACF0FDE58124FCF581C002C003C004CC
:1003D000C0059037BD75F08674341207F7AA82AB5A
:1003E00083ACF0FDE58124FCF581C002C003C004AC
:1003F000C00590000075F080743F12094185822C81
:1004000085832D85F02EF52FE58124FCF5812202D0
:1004100002D385823185833285F033E4B53003021F
:1004200006267403B53002800122853134853235C9
:100430008533368534828535838536F012076FFD26
:10044000A312076FFEA312076FFFA312076FF8C076
:1004500005C006C007C000E4C0E0C0E07480C0E092
:10046000743FC0E08D828E838FF0E8120797A982D7
:10047000E58124FCF581D000D007D006D005E960E5
:100480000302050874042534F9E43535FAAB3689DE
:10049000828A838BF012076FF53BA312076FF53C3E
:1004A000A312076FF53DA312076FF53EC005C00606
:1004B000C007C000C03BC03CC03DC03E8D828E83A3
:1004C0008FF0E812094185823785833885F039F548
:1004D0003AE58124FCF581E4C0E0C0E07480C0E02E
:1004E000743FC0E08537828538838539F0E53A125C
:1004F0000797AA82E58124FCF581D000D007D006B9
:10050000D005EA700302058A74042534FAE435350F
:10051000FBAC368A828B838CF012076FFAA312072A
:100520006FFBA312076FFCA312076FF9C002C00391
:10053000C004C0018D828E838FF0E8120941AA8227
:10054000AB83ACF0FDE58124FCF5817466C0E0C0AE
:10055000E074A6C0E0743FC0E08A828B838CF0ED2B
:10056000120797AA82E58124FCF581EA600FE4F581
:1005700027F526E52325E0F52575240022752500BD
:100580007524008523277526002274CDC0E074CC25
:10059000C0E0748CC0E0743FC0E0853B82853C8342
:1005A000853DF0E53E120797AA82E58124FCF5819E
:1005B000EA7025C0E0C0E07480C0E0743FC0E08510
:1005C00037828538838539F0E53A1207C7AA82E574
:1005D0008124FCF581EA6041E4C0E0C0E0C0E07441
:1005E0003FC0E08537828538838539F0E53A1207C8
:1005F000C7AA82E58124FCF581EA6010E52325E0A5
:10060000F52775260075250075240022852325759C
:100610002400752700752600228523257524008572
:10062000232775260022752500752400752700757F
:1006300026002285823F85834085F041AA3FAB405A
:10064000AC418A828B838CF012076FFDA312076F77
:10065000FEA312076FFFA312076FF874042AFAE4CF
:100660003BFB8A828B838CF012076FF542A3120743
:100670006FF543A312076FF544A312076FF545C04A
:1006800005C006C007C000C042C043C044C0458D7D
:10069000828E838FF0E8120941AA82AB83ACF0F915
:1006A000E58124FCF581D000D007D006D005C0023A
:1006B000C003C004C001C042C043C044C045C0051F
:1006C000C006C007C000C02CC02DC02EC02F749F14
:1006D000C0E07400C0E07480C0E0120913E581241A
:1006E000EDF581221201A41201ADD2AF751C047583
:1006F00082011201CE751C007582021201CE751C9A
:10070000077582021201CE1201C474DEC0E07400CB
:10071000C0E07480C0E01209131581158115817540
:10072000820F120239AA82AB83ACF0FD8A468B4756
:100730008C488D49758204120239AA82AB83ACF0D1
:10074000FD8A4A8B4B8C4C8D4D758208120239AA5A
:1007500082AB83ACF0FD8A4E8B4F8C508D51900054
:100760004675F04012063390001412017280B020DA
:10077000F71430F6148883A88220F507E6A883755D
:10078000830022E280F7E49322E022E4AC83AB8290
:10079000FAF9748E020A69FFA8811818120A91D218
:1007A000D133E6400730E70B7582012220E706755A
:1007B000820022C2D1120A73E97003F5822230D17D
:1007C00001B3E433F58222FFA8811818120A91D2EE
:1007D000D133E6400730E70B7582002220E706752B
:1007E000820122C2D1120A73E97003F5822220D15C
:1007F00001B3E433F58222120B3EBC0003020ADD92
:10080000EF60FA30D502B2D1E583B4FF03020AF3F8
:10081000E582B4FF03020AF3258340072482400BDC
:10082000020ADD2483145003020AF3F582EA8DF0F4
:10083000A4A8F0EA8EF0A428F8E435F0F9EB8DF0E6
:10084000A428E935F0F9E433CA8FF0A429F9EA3590
:10085000F0FAEBF88EF0A429F9EA35F0FAE433FB6C
:10086000EC8DF0A429F9EA35F0FAE43BFBE88FF0CF
:10087000A42AFAEB35F0FBE433CCFD8EF0A42AFA7F
:10088000EB35F0FBE43CFCED8FF0A42BFBEC35F0FA
:10089000FC20E703120B0B020ABCE4AC82FBFAF962
:1008A0007486020A69120B3E7900E583B5820280E4
:1008B0000D5003120B6CE583C39582120B86E5D0B5
:1008C000C465D020E117EA2DFAEB3EFBEC3FFC506B
:1008D000097401120B86EC4480FC020ABCC3EA9D39
:1008E000FAEB9EFBEC9FFC500FC3E499F9E49AFAF3
:1008F000E49BFBE49CFCB2D1120B0B020ABC021578
:100900005585821885831985F01A85091B9008FE84
:10091000020FA8C008858108E50824FBF51BE5083F
:1009200024FBF8861808861908861A9008FE120F0C
:10093000A8D00822AC83AB827A007900748E0215AD
:1009400073120B3E30D502B2D1BF0009BC000302C6
:100950000B00020AF3BC0003020ADDE583B4FF0BBF
:10096000E582B4FF03020B00020ADDE582B4FF0357
:10097000020AF3C395835007247F400B020ADD244B
:1009800080145003020AF3C0E0E4CCCBCAF98D1CFA
:100990008E1D8F1EEF54F0C4F51F758306851FF062
:1009A000EB84F582E9C4F9EAC4FAEBC4FBEC540F1A
:1009B000C47803D6FC18EBD6FB18EAD6FA8582F089
:1009C000EDA4A8F0FD8582F0EEA428FEE435F0F851
:1009D0008582F0EFA428FFE435F0F8E99DF9EA9E5E
:1009E000FAEB9FFBEC98FCAD1CAE1DAF1E30E71080
:1009F0001582E92DF9EA3EFAEB3FFBE43CFC80ED81
:100A0000C082D58398C3E933F9EA33FAEB33FBECC0
:100A100033FCC3E99DEA9EEB9FEC9400B3E413F929
:100A2000D002D0E0C44AFAD003D0E0C44BFBD004DB
:100A3000D0E0F5F0540FC44CFCD082158230F40F96
:100A4000D3EC13FCEB13FBEA13FAE913F90582E983
:100A500030E70A74012AFAE43BFBE43CFC020AD4C6
:100A6000FCABF0AA83A982749EC2D1F582120B0B53
:100A7000020ABC7901AA82E68F82B5821318E6B514
:100A8000F00E18E6B5830918E68A82B5820279006D
:100A900022B4800FE5F0700AE5837006E5827002EB
:100AA0007F00EFB6801518B6001018B6000B18B608
:100AB000000608080876002208080822B98003EA20
:100AC00013B34010EA2401FAE43BFBE43CFC50047D
:100AD0007C800582BC000EBB000BBA0008E4F5F078
:100AE000F583F58222A2D1E582138CF092F78B83F5
:100AF0008A8222E4F583F58275F080F4A2D1132274
:100B0000E4F583F58275F0C0747F227804EC7011EF
:100B1000E58224F8500AF582E4C9CACBFCD8EF225A
:100B2000EC7820058220E713D5820122C3E933F94E
:100B3000EA33FAEB33FBEC33FCD8EA158222AA82C3
:100B4000AB83A2F73392D16002D2F7F582ACF0E525
:100B50008124F9F8E6FD08E6FE0886F008E6A2F72B
:100B60003392D56002D2F7F583AFF022E582C583D8
:100B7000F582A2D133A2D592D11392D5ECCFFCEB62
:100B8000CEFBEACDFA226040F82582500274FFF5D0
:100B900082E824F8501ECCCBCAF9E4CC24F85014D7
:100BA000CBCAF9E4CB24F8500BCAF9E4CA24F850B4
:100BB0000379002224086010F8C3EC13FCEB13FB4C
:100BC000EA13FAE913F9D8F122AA8274DAC0E074C0
:100BD0000BC0E0C00AC00B8A82220511E4B51102E5
:100BE000051222AA8274302AFA24C6500A74072AEF
:100BF000FA3001034302208A82020BC9E582FAC45B
:100C0000540FF582C002120BE3D002740F5AF58222
:100C1000020BE3AA0CAB0DAC0EAD0FAE1075172096
:100C2000EE2EFEED235401FF4206EA2AFAEB33FBD7
:100C3000EC33FCED33FDC3EE95134008EEC3951382
:100C4000FE430201D517D98A0C8B0D8C0E8D0F8EA9
:100C50001022785EE624D075F00AA4FA785FE624C4
:100C6000D02AFA785D8603BB2D04C3E49AFA751383
:100C700001C3E464808AF063F08095F05029751711
:100C8000038A0374F62517401C0513E51714245234
:100C9000F8E5172452F98704A604772E1BEBFA60B7
:100CA00004051780DE8B02EA30E70D78538603785F
:100CB00054A6037853762E0AE515600AE51504FB61
:100CC0002513F5138005300C02051378528603E4D2
:100CD000BB2D0104FB70062007033008020513300A
:100CE0000503020D99300657EB600C75822DC0028A
:100CF000120BC9D002801C30070C75822BC0021267
:100D00000BC9D002800D30080A758220C002120B78
:100D1000C9D00278538604BC2E0C758230C00212F2
:100D20000BC9D0021514AC141514C3E5139C400371
:100D3000020DDD758230C002120BC9D00280E7AC13
:100D4000141514C3E5139C500C758220C002120BBD
:100D5000C9D00280EA78528604BC2D0C75822DC061
:100D600002120BC9D002801C30070C75822BC00206
:100D7000120BC9D002800D30080A758220C0021201
:100D80000BC9D00278538604BC2E52758230C00243
:100D9000120BC9D00215148044EB600E75822DC071
:100DA00002120BC9D0021514802030070E75822B59
:100DB000C002120BC9D0021514800F30080C7582C6
:100DC00020C002120BC9D002151478538603BB2E23
:100DD0000C758230C002120BC9D0021514751701B0
:100DE000C20EE5172452F88603BB4503020E9ABBD8
:100DF0002E348A03C3E464808BF063F08095F05056
:100E00000F758230C003120BC9D0031B8B0280E424
:100E10008B02D20EE5157038200C03020E9A7582F3
:100E20002E120BC98074300E278A03EB30E71FC3E4
:100E3000E464808515F063F08095F0500C75823085
:100E4000C003120BC9D00315150B8B0280DD8B027A
:100E5000300E0EC3E464808515F063F08095F05089
:100E600021E5172452F886038B82C002120BC9D0E9
:100E700002300E0EE5172452F88603BB2E028002C4
:100E800015151514C3E464808515F063F08095F0A2
:100E90004003200E050517020DE2C3E464808515AA
:100EA000F063F08095F0500A758230120BC9151569
:100EB00080E830050FAA141514EA60087582201224
:100EC0000BC980F122E5157003300C0D7407251550
:100ED000FAE514C39AF5148006E51424FAF514759E
:100EE000170078528602BA2B0F20070C7852762012
:100EF0002008057517010514200519AA14C3E46418
:100F0000808AF063F08095F0500A758220120BC938
:100F1000151480E7C20EE5172452F88602BA0002C3
:100F20008069BA451F3001027665C3E46480851587
:100F3000F063F08095F0500A758230120BC91515D8
:100F400080E8D20EC3E5179402E433FA7014EA7015
:100F50000EC3E464808515F063F08095F0400330A3
:100F60000E16E5172452F886028A82120BC9E5177D
:100F700024FD50121515800E7402B51709300C06A9
:100F800075822E120BC90517020F16300519AA1407
:100F9000C3E464808AF063F08095F0500A75822083
:100FA000120BC9151480E72285820A85830BE4F5AC
:100FB00011F512AA18AB19AC1A8A828B838CF01225
:100FC000076FFD74012AF518E43BF5198C1AEDFA48
:100FD000700302154EBA25028003021546C205C2EF
:100FE00006C207C208C209C20AC20BC20CC202C2B0
:100FF00003C2047513007514007515FFAB18AC1906
:10100000AD1A8B828C838DF012076FFAA3AB82AC82
:10101000838B188C198D1ABA25078A82120BC98006
:10102000928A06BE3000402E8A06EE24C6402774FF
:10103000FFB51513E51475F00AA4FEEA24D02EF5C9
:101040001470BFD20680BBE51575F00AA4FEEA2431
:10105000D02EF51580ACBA2E0A74FFB515A47515FF
:1010600000809F8A06BE6100400E8A06EE248540FD
:10107000075302DFD2018002C201BA20028075BA92
:101080002303021103BA2A03021108BA2B02805F5C
:10109000BA2D028055BA4202805FBA430302114D55
:1010A000BA4403021288BA45030212A2BA460302E6
:1010B000129EBA47030212A6BA4903021288BA4C1A
:1010C00002803BBA4E030212AABA4F0302128FBA31
:1010D0005003021221BA5303021171BA55030212CE
:1010E00094BA58030212990212D4D205021002D205
:1010F00007021002D208021002D20A021002D20B1A
:10110000021002D20C02100274FFB51520300A0B37
:10111000E51B14F8881B8614021002E51B24FEF858
:10112000881B8606088607188E14021002300A0BE8
:10113000E51B14F8881B8615021002E51B24FEF837
:10114000881B8606088607188E15021002300A0AC8
:10115000E51B14F8881B8602800FE51B24FEF88827
:101160001B8603088604188B028A82120BC902129E
:10117000D9E51B24FDF8881B86030886040886052C
:1011800018188B0C8C0D8D0E8B828C838DF01216A3
:10119000CFAB82AC838B1674FFB515038516152073
:1011A000051DC3E51695145016E514C39516F514E0
:1011B000AB141514EB6008758220120BC980F18501
:1011C0000C82850D83850EF012076FFBFA6029AB48
:1011D000151515C3E464808BF063F08095F050180A
:1011E0008A82120BC9AB0CAC0DAD0E0BBB00010C0F
:1011F0008B0C8C0D8D0E80C72005030212D9C3E520
:1012000016951440030212D9E514C39516F514ABD4
:10121000141514EB70030212D9758220120BC980C9
:10122000EEE51B24FDF8881B860308860408860566
:1012300018188B0C8C0D8D0EE50EFB30E7047A43ED
:101240008013EB546060047A50800AEB30E6047A35
:101250004980027A588A82C002120BC975823A12FA
:101260000BC9758230120BC9758278120BC9D00276
:10127000BA4902800BBA50028006850D82120BFC1F
:10128000850C82120BFC8051D20975130A804A75B5
:101290001308804575130A8040751310803BD202F5
:1012A0008037D2038033D204802FE51B24FDF888D9
:1012B0001B860308860408860518188B0C8C0D8D78
:1012C0000E8B828C838DF0E5111216B6A3E51212F7
:1012D00016B680058A82120BC9200206200303304D
:1012E0000470E51B24FCF8881B8603088604088626
:1012F000050886061818188B0C8C0D8D0E8E0FE5C0
:101300000CE50DE50EE50F8B828C838DF0EE12154A
:101310009774FFB51503751506300427747F550FB4
:10132000FB8B10E510EB2BFB8B10E50E30E7067402
:10133000014510F510E51024684006749925104009
:1013400002D203300306120EC5020FB3120C520272
:101350000FB3E5137003020FB37B57300A2BE51B65
:1013600014F8881BE6FC3395E0FDFEFF8C0C8D0D18
:101370008E0E8F0F20095EAC0C7D007E007F008CEE
:101380000C8D0D8E0E8F0F804C300B1FE51B24FC37
:10139000F8881B860408860508860608860718183C
:1013A000188C0C8D0D8E0E8F0F802AE51B24FEF8F5
:1013B000881B860408860518ED3395E0FEFF8C0C2B
:1013C0008D0D8E0E8F0F20090CAC0CAD0D7E007FA5
:1013D000008E0E8F0F300C43E50C450D450E450F6A
:1013E00060397408B5130C758230C003120BC9D074
:1013F0000380287410B51323758230C003120BC903
:10140000D00330010C758278C003120BC9D0038061
:101410000A758258C003120BC9D003300925AC0CE1
:10142000AD0DAE0EE50FFF30E717C3E49CFCE49D65
:10143000FDE49EFEE49FFF8C0C8D0D8E0E8F0F80C1
:1014400002C209751600D20D8B00751000C0001283
:101450000C13D000200D0DE510C4FCE6FD4CF61871
:1014600088038002A6100516B20DE50C450D450E49
:10147000450F70D68803E514700375140120061A11
:10148000200517E51604FCC39514500E758220C084
:1014900003120BC9D003151480E930090E75822D93
:1014A000C003120BC9D00315148024E51660203048
:1014B000070E75822BC003120BC9D0031514800FC1
:1014C00030080C758220C003120BC9D003151420FC
:1014D000051EAC141514C3E5169C50273006047C79
:1014E0003080027C208C82C003120BC9D00380E2C2
:1014F000C3E51695145009E514C39516F514800339
:101500007514008B00AB161516EB6022B20D200D82
:101510000A08E6C4540FFB8B1080078603740F5B28
:10152000F510851082C000120BE3D00080D7200593
:1015300003020FB3AB141514EB7003020FB37582E3
:1015400020120BC980EE8A82120BC9020FB38511DB
:101550008285128322AA82BA0A0810990280FB753A
:10156000990D10990280FB8A9922FCABF0AA83A9FD
:1015700082749EF582C2D1EC30E716D2D1E9F42410
:1015800001F9EAF43400FAEBF43400FBECF4340033
:10159000FC120B0B020ABCC0E0F84582458345F003
:1015A0007009F5F0FBFCFDFE021665E823A2F79238
:1015B000E0F8A982AA83D2F7ABF07C007E07C3745F
:1015C0009798404074FF2EFE740A89F0A4F985F0C4
:1015D00082740A8AF0A4FA85F083740A8BF0A4FB63
:1015E000740529F9EA3582FAEB3583FB740035F08E
:1015F000FCC3EC13FCEB13FBEA13FAE913F908EC58
:1016000070EF80BAE8C3947FF88B838EF0E4FBFC24
:10161000FDFEFF08C3E933F9EA33FAE58333F583C6
:10162000EB3BD4FBEC3CD4FCED3DD4FDEE3ED4FED4
:10163000EF3FD4FF602D05F074052BD4FBE43CD4C0
:10164000FCE43DD4FDE43ED4FEE43FD4FF758204C7
:10165000C3EF13FFEE13FEED13FDEC13FCEB13FBD6
:10166000D582EDD8AF7852D0E020E704762B800207
:10167000762D087906E7C4540F4430F608B90603FE
:10168000762E08E7540F4430F60819B902E776457C
:1016900008E5F020E704762B8004762DF404087525
:1016A000F00A844430F608E5F04430F608E4F69099
:1016B000005275F0402220F71030F6118883A8827E
:1016C00020F507F6A88375830022F280F7F022AA9E
:1016D00082AB83ACF07D007E008A828B838CF0121B
:1016E000076FFFA3AA82AB83EF60070DBD00EA0E70
:1016F00080E78D828E832200000000000000000041
:00000001FF
