:1000000002002E00000000000000000000000000C0
:1000200000000000000000000000000202E77581EF
:100030004C120165E582600302009A780079007A2B
:10004000007B007C007D00EC4D601C88828983E48D
:1000500093A3A882A9838A828B83F0A3AA82AB830D
:100060001CBCFFE31D80E07582007583007C007D71
:1000700000EC4D600AE4F0A31CBCFFF51D80F27596
:1000800082007583007C007D00EC4D600AE4F0A3E3
:100090001CBCFFF51D80F212011412068980FE6659
:1000A00072657175656E6379203D20256620487AFA
:1000B0000A004C65667428626C75652920696E6457
:1000C00020766F6C74616765203D20256620560A96
:1000D000005269676874287265642920696E64201B
:1000E000766F6C74616765203D20256620560A0096
:1000F00046726F6E7420696E647563746F722076D9
:100100006F6C74616765203D20256620560A001BD0
:100110005B324A0075220075233275240075250074
:10012000752600752700752800752900E4F52AF565
:100130002B752C00752D00752E00752F0075300065
:1001400075310075320075330075340075350075F2
:100150003600753700753800753900753A00753B03
:1001600000753C032253D9BF75FF8075EF0643A984
:100170000343B203759810758D30538EF4438E0887
:10018000858D8B53890F438920D28ED29943A60344
:1001900043A41075E10175E24075820022AA8243F2
:1001A0008E407592D07593FF859294859395759145
:1001B000047B00C3EB9A500BE59130E7FB53917F32
:1001C0000B80F075910022AA82AB83BA0004BB00B9
:1001D00001227582F9C002C00312019D7582F912D5
:1001E000019D7582F912019D7582FA12019DD0035D
:1001F000D0021ABAFF011B80D25389F0438901C291
:100200008C2275C800438E1075CA7875CBEC75CCFE
:10021000FF75CDFFD2ADD2CA2275BCF875E88075E6
:10022000D10822AA82851CF005F07401800225E025
:10023000D5F0FBFBEA24FC4033EA2A2A9002407303
:1002400002024C02025402025C020264EBF452F11C
:10025000EB42D422EBF452F2EB42D522EBF452F310
:10026000EB42D622EBF4FA52F4EB42DF228582BB5A
:1002700075BA1FD2EC20ECFDD2EC20ECFDAABD7BC0
:1002800000ADBE7C00EC2AF582ED3BF58322120224
:100290006D1206D8AA82AB83ACF0FDC002C003C0C9
:1002A00004C0059020C575F0587440120714AA8246
:1002B000AB83ACF0FDE58124FCF581E4C0E0C0E057
:1002C0007480C0E07444C0E08A828B838CF0ED12AD
:1002D000085EAA82AB83ACF0FDE58124FCF5818A3F
:1002E000828B838CF0ED22C0E0C0D075D000C2CFED
:1002F0000522E522249B5003752200C3E5249522A4
:100300009200B392A2C3E52595229200B392A5C3B1
:10031000E52695229200B392A4C3E5279522920088
:10032000B392A3D0D0D0E032758A00758C00C28D14
:100330007529002096FD3096FDD28C309609108DDF
:100340000280F8052980F4209609108D0280F805B6
:100350002980F4C28C8529821207B7AA82AB83ACAC
:10036000F0FDC002C003C004C00590000075F0801D
:100370007447120714AA82AB83ACF0FDE58124FC1C
:10038000F581858C82C002C003C004C0051207B786
:10039000AE82AF83A8F0F9C006C007C000C00190CC
:1003A000000075F0807443120714AE82AF83A8F08A
:1003B000F9E58124FCF581D005D004D003D002C03A
:1003C00006C007C000C0018A828B838CF0ED120743
:1003D000C2AA82AB83ACF0FDE58124FCF581AE8A34
:1003E0007F008E828F83C002C003C004C005120844
:1003F00051AE82AF83A8F0F9D005D004D003D0026B
:10040000C006C007C000C0018A828B838CF0ED1249
:1004100007C2AA82AB83ACF0FDE58124FCF581C064
:1004200002C003C004C0059037BD75F08674341255
:100430000714AA82AB83ACF0FDE58124FCF581C0F2
:1004400002C003C004C00590000075F080743F1224
:10045000085E85822C85832D85F02EF52FE581247D
:10046000FCF5812202032875820F12028E858230EC
:1004700085833185F032F53375820712028E8582CD
:100480003485833585F036F53775820812028E85FE
:10049000823885833985F03AF53B22E4B53C030286
:1004A00006077403B53C028001227466C0E0C0E018
:1004B00074E6C0E0743FC0E08530828531838532C8
:1004C000F0E53312085EAA82AB83ACF0FDE581242F
:1004D000FCF581C002C003C004C005C034C035C0F3
:1004E00036C03790CCCD75F08C743F120714AE82B5
:1004F000AF83A8F0F9E58124FCF5817466C0E0C003
:10050000E074E6C0E0743FC0E08E828F8388F0E93B
:1005100012085EAE82AF83A8F0F9E58124FCF58174
:10052000D005D004D003D002C006C007C000C0016F
:100530008A828B838CF0ED1206E4AA82E58124FC8A
:10054000F581EA600D852325752400752700752641
:1005500000227466C0E0C0E074E6C0E0743FC0E012
:100560008534828535838536F0E53712085EAA82A8
:10057000AB83ACF0FDE58124FCF581C002C003C073
:1005800004C005C030C031C032C03390CCCD75F04E
:100590008C743F120714AE82AF83A8F0F9E5812472
:1005A000FCF5817466C0E0C0E074E6C0E0743FC052
:1005B000E08E828F8388F0E912085EAE82AF83A856
:1005C000F0F9E58124FCF581D005D004D003D002F8
:1005D000C006C007C000C0018A828B838CF0ED1278
:1005E00006E4AA82E58124FCF581EA600D75250008
:1005F0007524008523277526002285232575240070
:10060000852327752600227525007524007527008F
:1006100075260022C02CC02DC02EC02F749FC0E0B4
:100620007400C0E07480C0E0120830E58124F9F560
:1006300081C030C031C032C03374B2C0E07400C079
:10064000E07480C0E0120830E58124F9F581C034FF
:10065000C035C036C03774D1C0E07400C0E07480CB
:10066000C0E0120830E58124F9F581C038C039C0F6
:100670003AC03B74F0C0E07400C0E07480C0E01287
:100680000830E58124F9F581221201F9120202D223
:10069000AF752800751C07758201120223751C00B6
:1006A000758202120223751C077582021202231240
:1006B0000219740FC0E07401C0E07480C0E0120839
:1006C0003015811581158112046412046712049B90
:1006D0009000501201C780EFE4AC83AB82FAF9744A
:1006E0008E020986FFA88118181209AED2D133E60E
:1006F000400730E70B7582012220E7067582002251
:10070000C2D1120990E97003F5822230D101B3E41D
:1007100033F58222120A5BBC00030209FAEF60FA89
:1007200030D502B2D1E583B4FF03020A10E582B4EA
:10073000FF03020A10258340072482400B0209FAB6
:100740002483145003020A10F582EA8DF0A4A8F065
:10075000EA8EF0A428F8E435F0F9EB8DF0A428E94E
:1007600035F0F9E433CA8FF0A429F9EA35F0FAEB51
:10077000F88EF0A429F9EA35F0FAE433FBEC8DF0B9
:10078000A429F9EA35F0FAE43BFBE88FF0A42AFA51
:10079000EB35F0FBE433CCFD8EF0A42AFAEB35F018
:1007A000FBE43CFCED8FF0A42BFBEC35F0FC20E7E8
:1007B00003120A280209D9E4AC82FBFAF974860212
:1007C0000986120A5B7900E583B58202800D500329
:1007D000120A89E583C39582120AA3E5D0C465D0C5
:1007E00020E117EA2DFAEB3EFBEC3FFC50097401C7
:1007F000120AA3EC4480FC0209D9C3EA9DFAEB9EDD
:10080000FBEC9FFC500FC3E499F9E49AFAE49BFBDC
:10081000E49CFCB2D1120A280209D9021472858222
:100820001885831985F01A85091B90081B020EC5CF
:10083000C008858108E50824FBF51BE50824FBF8C2
:10084000861808861908861A90081B120EC5D0084B
:1008500022AC83AB827A007900748E021490120A63
:100860005B30D502B2D1BF0009BC0003020A1D02F1
:100870000A10BC00030209FAE583B4FF0BE582B459
:10088000FF03020A1D0209FAE582B4FF03020A10FF
:10089000C395835007247F400B0209FA248014502B
:1008A00003020A10C0E0E4CCCBCAF98D1C8E1D8F68
:1008B0001EEF54F0C4F51F758306851FF0EB84F519
:1008C00082E9C4F9EAC4FAEBC4FBEC540FC4780320
:1008D000D6FC18EBD6FB18EAD6FA8582F0EDA4A870
:1008E000F0FD8582F0EEA428FEE435F0F88582F074
:1008F000EFA428FFE435F0F8E99DF9EA9EFAEB9FB2
:10090000FBEC98FCAD1CAE1DAF1E30E7101582E964
:100910002DF9EA3EFAEB3FFBE43CFC80EDC082D5CA
:100920008398C3E933F9EA33FAEB33FBEC33FCC3C6
:10093000E99DEA9EEB9FEC9400B3E413F9D002D05A
:10094000E0C44AFAD003D0E0C44BFBD004D0E0F5B9
:10095000F0540FC44CFCD082158230F40FD3EC134A
:10096000FCEB13FBEA13FAE913F90582E930E70A15
:1009700074012AFAE43BFBE43CFC0209F1FCABF015
:10098000AA83A982749EC2D1F582120A280209D9CB
:100990007901AA82E68F82B5821318E6B5F00E18A7
:1009A000E6B5830918E68A82B58202790022B4800E
:1009B0000FE5F0700AE5837006E58270027F00EFB4
:1009C000B6801518B6001018B6000B18B600060849
:1009D000080876002208080822B98003EA13B34009
:1009E00010EA2401FAE43BFBE43CFC50047C800563
:1009F00082BC000EBB000BBA0008E4F5F0F583F5ED
:100A00008222A2D1E582138CF092F78B838A822214
:100A1000E4F583F58275F080F4A2D11322E4F58326
:100A2000F58275F0C0747F227804EC7011E58224A1
:100A3000F8500AF582E4C9CACBFCD8EF22EC782042
:100A4000058220E713D5820122C3E933F9EA33FA9C
:100A5000EB33FBEC33FCD8EA158222AA82AB83A2EB
:100A6000F73392D16002D2F7F582ACF0E58124F938
:100A7000F8E6FD08E6FE0886F008E6A2F73392D510
:100A80006002D2F7F583AFF022E582C583F582A23A
:100A9000D133A2D592D11392D5ECCFFCEBCEFBEAA9
:100AA000CDFA226040F82582500274FFF582E824D6
:100AB000F8501ECCCBCAF9E4CC24F85014CBCAF9B8
:100AC000E4CB24F8500BCAF9E4CA24F850037900A7
:100AD0002224086010F8C3EC13FCEB13FBEA13FAB2
:100AE000E913F9D8F122AA8274F7C0E0740AC0E0D1
:100AF000C00AC00B8A82220511E4B5110205122238
:100B0000AA8274302AFA24C6500A74072AFA3001DD
:100B1000034302208A82020AE6E582FAC4540FF5F2
:100B200082C002120B00D002740F5AF582020B0031
:100B3000AA0CAB0DAC0EAD0FAE10751720EE2EFE4D
:100B4000ED235401FF4206EA2AFAEB33FBEC33FCB7
:100B5000ED33FDC3EE95134008EEC39513FE43023B
:100B600001D517D98A0C8B0D8C0E8D0F8E10227823
:100B700049E624D075F00AA4FA784AE624D02AFA85
:100B800078488603BB2D04C3E49AFA751301C3E4C5
:100B900064808AF063F08095F050297517038A030A
:100BA00074F62517401C0513E51714243DF8E517C6
:100BB000243DF98704A604772E1BEBFA6004051781
:100BC00080DE8B02EA30E70D783E8603783FA6038D
:100BD000783E762E0AE515600AE51504FB2513F527
:100BE000138005300C020513783D8603E4BB2D010C
:100BF00004FB7006200703300802051330050302CA
:100C00000CB6300657EB600C75822DC002120AE656
:100C1000D002801C30070C75822BC002120AE6D06D
:100C200002800D30080A758220C002120AE6D00246
:100C3000783E8604BC2E0C758230C002120AE6D0C3
:100C4000021514AC141514C3E5139C4003020CFAEE
:100C5000758230C002120AE6D00280E7AC14151487
:100C6000C3E5139C500C758220C002120AE6D00224
:100C700080EA783D8604BC2D0C75822DC002120AD4
:100C8000E6D002801C30070C75822BC002120AE6E7
:100C9000D002800D30080A758220C002120AE6D008
:100CA00002783E8604BC2E52758230C002120AE6DB
:100CB000D00215148044EB600E75822DC002120A1A
:100CC000E6D0021514802030070E75822BC0021268
:100CD0000AE6D0021514800F30080C758220C0027D
:100CE000120AE6D0021514783E8603BB2E0C7582DC
:100CF00030C002120AE6D0021514751701C20EE5C3
:100D000017243DF88603BB4503020DB7BB2E348A7A
:100D100003C3E464808BF063F08095F0500F75821C
:100D200030C003120AE6D0031B8B0280E48B02D290
:100D30000EE5157038200C03020DB775822E120ACD
:100D4000E68074300E278A03EB30E71FC3E464802B
:100D50008515F063F08095F0500C758230C0031259
:100D60000AE6D00315150B8B0280DD8B02300E0EC8
:100D7000C3E464808515F063F08095F05021E51799
:100D8000243DF886038B82C002120AE6D002300EA0
:100D90000EE517243DF88603BB2E028002151515BB
:100DA00014C3E464808515F063F08095F04003205F
:100DB0000E050517020CFFC3E464808515F063F08F
:100DC0008095F0500A758230120AE6151580E830D9
:100DD000050FAA141514EA6008758220120AE6802D
:100DE000F122E5157003300C0D74072515FAE51492
:100DF000C39AF5148006E51424FAF51475170078E3
:100E00003D8602BA2B0F20070C783D76202008057E
:100E10007517010514200519AA14C3E464808AF02B
:100E200063F08095F0500A758220120AE61514804E
:100E3000E7C20EE517243DF88602BA00028069BABF
:100E4000451F3001027665C3E464808515F063F0C8
:100E50008095F0500A758230120AE6151580E8D2A6
:100E60000EC3E5179402E433FA7014EA700EC3E47B
:100E700064808515F063F08095F04003300E16E530
:100E800017243DF886028A82120AE6E51724FD50EF
:100E9000121515800E7402B51709300C0675822ED6
:100EA000120AE60517020E33300519AA14C3E464CA
:100EB000808AF063F08095F0500A758220120AE66D
:100EC000151480E72285820A85830BE4F511F5125B
:100ED000AA18AB19AC1A8A828B838CF01214B4FD59
:100EE00074012AF518E43BF5198C1AEDFA70030227
:100EF000146BBA25028003021463C205C206C2073E
:100F0000C208C209C20AC20BC20CC202C203C20496
:100F10007513007514007515FFAB18AC19AD1A8B5D
:100F2000828C838DF01214B4FAA3AB82AC838B183D
:100F30008C198D1ABA25078A82120AE680928A06CF
:100F4000BE3000402E8A06EE24C6402774FFB51539
:100F500013E51475F00AA4FEEA24D02EF51470BF30
:100F6000D20680BBE51575F00AA4FEEA24D02EF562
:100F70001580ACBA2E0A74FFB515A4751500809FB4
:100F80008A06BE6100400E8A06EE248540075302A1
:100F9000DFD2018002C201BA20028075BA230302A7
:100FA0001020BA2A03021025BA2B02805FBA2D0244
:100FB0008055BA4202805FBA430302106ABA440302
:100FC0000211A5BA45030211BFBA46030211BBBA0A
:100FD00047030211C3BA49030211A5BA4C02803B70
:100FE000BA4E030211C7BA4F030211ACBA50030242
:100FF000113EBA530302108EBA55030211B1BA580A
:10100000030211B60211F1D205020F1FD207020F1F
:101010001FD208020F1FD20A020F1FD20B020F1F8E
:10102000D20C020F1F74FFB51520300A0BE51B14FC
:10103000F8881B8614020F1FE51B24FEF8881B8608
:1010400006088607188E14020F1F300A0BE51B14C2
:10105000F8881B8615020F1FE51B24FEF8881B86E7
:1010600006088607188E15020F1F300A0AE51B14A2
:10107000F8881B8602800FE51B24FEF8881B860378
:10108000088604188B028A82120AE60211F6E51B12
:1010900024FDF8881B860308860408860518188B2B
:1010A0000C8C0D8D0E8B828C838DF0121608AB820A
:1010B000AC838B1674FFB5150385161520051DC36B
:1010C000E51695145016E514C39516F514AB1415D2
:1010D00014EB6008758220120AE680F1850C828587
:1010E0000D83850EF01214B4FBFA6029AB151515AB
:1010F000C3E464808BF063F08095F050188A82120C
:101100000AE6AB0CAC0DAD0E0BBB00010C8B0C8CCE
:101110000D8D0E80C72005030211F6C3E516951448
:1011200040030211F6E514C39516F514AB1415141B
:10113000EB70030211F6758220120AE680EEE51BC1
:1011400024FDF8881B860308860408860518188B7A
:101150000C8C0D8D0EE50EFB30E7047A438013EB0B
:10116000546060047A50800AEB30E6047A498002C9
:101170007A588A82C002120AE675823A120AE67525
:101180008230120AE6758278120AE6D002BA490263
:10119000800BBA50028006850D82120B19850C82D5
:1011A000120B198051D20975130A804A75130880F1
:1011B0004575130A8040751310803BD2028037D2E8
:1011C000038033D204802FE51B24FDF8881B86039F
:1011D00008860408860518188B0C8C0D8D0E8B82E2
:1011E0008C838DF0E5111215EFA3E5121215EF8037
:1011F000058A82120AE6200206200303300470E505
:101200001B24FCF8881B86030886040886050886CC
:10121000061818188B0C8C0D8D0E8E0FE50CE50D35
:10122000E50EE50F8B828C838DF0EE1214D074FFE7
:10123000B51503751506300427747F550FFB8B1009
:10124000E510EB2BFB8B10E50E30E7067401451023
:10125000F510E51024684006749925104002D20369
:10126000300306120DE2020ED0120B6F020ED0E513
:10127000137003020ED07B42300A2BE51B14F88852
:101280001BE6FC3395E0FDFEFF8C0C8D0D8E0E8F62
:101290000F20095EAC0C7D007E007F008C0C8D0D54
:1012A0008E0E8F0F804C300B1FE51B24FCF8881B23
:1012B00086040886050886060886071818188C0C08
:1012C0008D0D8E0E8F0F802AE51B24FEF8881B865D
:1012D0000408860518ED3395E0FEFF8C0C8D0D8E0D
:1012E0000E8F0F20090CAC0CAD0D7E007F008E0E12
:1012F0008F0F300C43E50C450D450E450F603974DA
:1013000008B5130C758230C003120AE6D00380289A
:101310007410B51323758230C003120AE6D003306F
:10132000010C758278C003120AE6D003800A758228
:1013300058C003120AE6D003300925AC0CAD0DAE3F
:101340000EE50FFF30E717C3E49CFCE49DFDE49E2F
:10135000FEE49FFF8C0C8D0D8E0E8F0F8002C20954
:10136000751600D20D8B00751000C000120B30D026
:1013700000200D0DE510C4FCE6FD4CF61888038036
:1013800002A6100516B20DE50C450D450E450F7071
:10139000D68803E514700375140120061A2005177A
:1013A000E51604FCC39514500E758220C003120A82
:1013B000E6D003151480E930090E75822DC00312A2
:1013C0000AE6D00315148024E516602030070E7558
:1013D000822BC003120AE6D0031514800F30080CCC
:1013E000758220C003120AE6D003151420051EAC36
:1013F000141514C3E5169C50273006047C30800277
:101400007C208C82C003120AE6D00380E2C3E5167A
:1014100095145009E514C39516F51480037514004E
:101420008B00AB161516EB6022B20D200D0A08E6F4
:10143000C4540FFB8B1080078603740F5BF5108577
:101440001082C000120B00D00080D7200503020ECE
:10145000D0AB141514EB7003020ED0758220120A63
:10146000E680EE8A82120AE6020ED085118285128B
:101470008322AA82BA0A0810990280FB75990D107E
:10148000990280FB8A9922FCABF0AA83A982749E00
:10149000F582C2D1EC30E716D2D1E9F42401F9EAA1
:1014A000F43400FAEBF43400FBECF43400FC120AE0
:1014B000280209D920F71430F6148883A88220F571
:1014C00007E6A88375830022E280F7E49322E022F6
:1014D000C0E0F84582458345F07009F5F0FBFCFD5E
:1014E000FE02159EE823A2F792E0F8A982AA83D211
:1014F000F7ABF07C007E07C3749798404074FF2ED2
:10150000FE740A89F0A4F985F082740A8AF0A4FABC
:1015100085F083740A8BF0A4FB740529F9EA3582FF
:10152000FAEB3583FB740035F0FCC3EC13FCEB13D2
:10153000FBEA13FAE913F908EC70EF80BAE8C394F8
:101540007FF88B838EF0E4FBFCFDFEFF08C3E933DC
:10155000F9EA33FAE58333F583EB3BD4FBEC3CD477
:10156000FCED3DD4FDEE3ED4FEEF3FD4FF602D05F3
:10157000F074052BD4FBE43CD4FCE43DD4FDE43E04
:10158000D4FEE43FD4FF758204C3EF13FFEE13FED5
:10159000ED13FDEC13FCEB13FBD582EDD8AF783DDA
:1015A000D0E020E704762B8002762D087906E7C488
:1015B000540F4430F608B90603762E08E7540F445A
:1015C00030F60819B902E7764508E5F020E7047619
:1015D0002B8004762DF4040875F00A844430F60854
:1015E000E5F04430F608E4F690003D75F040222026
:1015F000F71030F6118883A88220F507F6A88375C6
:10160000830022F280F7F022AA82AB83ACF07D0047
:101610007E008A828B838CF01214B4FFA3AA82AB63
:1016200083EF60070DBD00EA0E80E78D828E832276
:00000001FF
