:1000000002002E6672657175656E63793D256648DE
:100010007A0A001B5B324A0000000000000000006A
:10002000000000000000000000000002024B75818B
:10003000431200C9E582600302009A780079007AD1
:10004000007B007C007D00EC4D601C88828983E48D
:1000500093A3A882A9838A828B83F0A3AA82AB830D
:100060001CBCFFE31D80E07582007583007C007D71
:1000700000EC4D600AE4F0A31CBCFFF51D80F27596
:1000800082007583007C007D00EC4D600AE4F0A3E3
:100090001CBCFFF51D80F212009F1203F380FE7559
:1000A0000900750A32750B00750C00750D00750E90
:1000B00000750F00751000E4F511F5127513007549
:1000C00014007515007516002253D9BF75FF807591
:1000D000EF0643A90343B203759810758D30538E14
:1000E000F4438E08858D8B53890F438920D28ED29D
:1000F0009943A60343A41075E10175E2407582009F
:1001000022AA82438E407592D07593FF8592948582
:1001100093957591047B00C3EB9A500BE59130E702
:10012000FB53917F0B80F075910022AA82AB83BABA
:100130000004BB0001227582F9C002C00312010154
:100140007582F91201017582F91201017582FA12A4
:100150000101D003D0021ABAFF011B80D25389F0EB
:10016000438901C28C2275C800438E1075CA787508
:10017000CBEC75CCFF75CDFFD2ADD2CA2275BCF8E1
:1001800075E88075D10822AA828518F005F07401FF
:10019000800225E0D5F0FBFBEA24FC4033EA2A2A62
:1001A0009001A4730201B00201B80201C00201C8AB
:1001B000EBF452F1EB42D422EBF452F2EB42D522B3
:1001C000EBF452F3EB42D622EBF4FA52F4EB42DFBB
:1001D000228582BB75BA1FD2EC20ECFDD2EC20EC5C
:1001E000FDAABD7B00ADBE7C00EC2AF582ED3BF59F
:1001F00083221201D112043FAA82AB83ACF0FDC06E
:1002000002C003C004C0059020C575F058744012A8
:10021000044BAA82AB83ACF0FDE58124FCF581E4BC
:10022000C0E0C0E07480C0E07444C0E08A828B8388
:100230008CF0ED120595AA82AB83ACF0FDE581242C
:10024000FCF5818A828B838CF0ED22C0E0C0D075F2
:10025000D000C2CF0509E509249B5003750900C3EE
:10026000E50B95099200B392A2C3E50C95099200A3
:10027000B392A5C3E50D95099200B392A4C3E50E10
:1002800095099200B392A3D0D0D0E032758A007560
:100290008C00C28D7510002096FD3096FDD28C30FA
:1002A0009609108D0280F8051080F4209609108DB3
:1002B0000280F8051080F4C28C8510821204EEAA28
:1002C00082AB83ACF0FDC002C003C004C005900047
:1002D0000075F080744712044BAA82AB83ACF0FD2A
:1002E000E58124FCF581858C82C002C003C004C076
:1002F000051204EEAE82AF83A8F0F9C006C007C0B5
:1003000000C00190000075F080744312044BAE826F
:10031000AF83A8F0F9E58124FCF581D005D004D0A5
:1003200003D002C006C007C000C0018A828B838C44
:10033000F0ED1204F9AA82AB83ACF0FDE58124FC58
:10034000F581AE8A7F008E828F83C002C003C00415
:10035000C005120588AE82AF83A8F0F9D005D0049D
:10036000D003D002C006C007C000C0018A828B83C0
:100370008CF0ED1204F9AA82AB83ACF0FDE5812488
:10038000FCF581C002C003C004C0059037BD75F004
:1003900086743412044BAA82AB83ACF0FDE5812451
:1003A000FCF581C002C003C004C00590000075F0D8
:1003B00080743F12059585821385831485F015F5A9
:1003C00016E58124FCF58122C013C014C015C016A7
:1003D0007403C0E07400C0E07480C0E0120567E5FB
:1003E0008124F9F58122850A0B750C00850A0D75AB
:1003F0000E002212015D120166D2AF750F00751852
:100400000775820112018775180075820212018733
:100410007518077582021201877413C0E07400C05A
:10042000E07480C0E0120567158115811581120204
:100430008C1203E61203C890000A12012B80EFE42D
:10044000AC83AB82FAF9748E0206BD120749BC0078
:10045000030206E8EF60FA30D502B2D1E583B4FFBB
:10046000030206FEE582B4FF030206FE2583400771
:100470002482400B0206E824831450030206FEF592
:1004800082EA8DF0A4A8F0EA8EF0A428F8E435F012
:10049000F9EB8DF0A428E935F0F9E433CA8FF0A424
:1004A00029F9EA35F0FAEBF88EF0A429F9EA35F0EB
:1004B000FAE433FBEC8DF0A429F9EA35F0FAE43BD9
:1004C000FBE88FF0A42AFAEB35F0FBE433CCFD8E89
:1004D000F0A42AFAEB35F0FBE43CFCED8FF0A42B02
:1004E000FBEC35F0FC20E7031207160206C7E4AC6C
:1004F00082FBFAF974860206BD1207497900E5838A
:10050000B58202800D5003120777E583C3958212EE
:100510000791E5D0C465D020E117EA2DFAEB3EFB48
:10052000EC3FFC50097401120791EC4480FC020678
:10053000C7C3EA9DFAEB9EFBEC9FFC500FC3E49906
:10054000F9E49AFAE49BFBE49CFCB2D11207160290
:1005500006C702116085823085833185F0328517A8
:1005600033900552020BB3C008858108E50824FBCF
:10057000F533E50824FBF88630088631088632908A
:100580000552120BB3D00822AC83AB827A007900FB
:10059000748E02117E12074930D502B2D1BF000914
:1005A000BC000302070B0206FEBC00030206E8E5DE
:1005B00083B4FF0BE582B4FF0302070B0206E8E5F4
:1005C00082B4FF030206FEC395835007247F400BCD
:1005D0000206E824801450030206FEC0E0E4CCCBFF
:1005E000CAF98D188E198F1AEF54F0C4F51B758354
:1005F00006851BF0EB84F582E9C4F9EAC4FAEBC482
:10060000FBEC540FC47803D6FC18EBD6FB18EAD6E3
:10061000FA8582F0EDA4A8F0FD8582F0EEA428FE14
:10062000E435F0F88582F0EFA428FFE435F0F8E92E
:100630009DF9EA9EFAEB9FFBEC98FCAD18AE19AF62
:100640001A30E7101582E92DF9EA3EFAEB3FFBE498
:100650003CFC80EDC082D58398C3E933F9EA33FAD4
:10066000EB33FBEC33FCC3E99DEA9EEB9FEC94007B
:10067000B3E413F9D002D0E0C44AFAD003D0E0C406
:100680004BFBD004D0E0F5F0540FC44CFCD08215E5
:100690008230F40FD3EC13FCEB13FBEA13FAE913EB
:1006A000F90582E930E70A74012AFAE43BFBE43CED
:1006B000FC0206DFFCABF0AA83A982749EC2D1F5CE
:1006C000821207160206C7B98003EA13B34010EA84
:1006D0002401FAE43BFBE43CFC50047C800582BC32
:1006E000000EBB000BBA0008E4F5F0F583F582229A
:1006F000A2D1E582138CF092F78B838A8222E4F5F3
:1007000083F58275F080F4A2D11322E4F583F5829B
:1007100075F0C0747F227804EC7011E58224F850E3
:100720000AF582E4C9CACBFCD8EF22EC7820058216
:1007300020E713D5820122C3E933F9EA33FAEB3318
:10074000FBEC33FCD8EA158222AA82AB83A2F733F2
:1007500092D16002D2F7F582ACF0E58124F9F8E697
:10076000FD08E6FE0886F008E6A2F73392D560029F
:10077000D2F7F583AFF022E582C583F582A2D133AB
:10078000A2D592D11392D5ECCFFCEBCEFBEACDFAF9
:10079000226040F82582500274FFF582E824F85068
:1007A0001ECCCBCAF9E4CC24F85014CBCAF9E4CB64
:1007B00024F8500BCAF9E4CA24F850037900222423
:1007C000086010F8C3EC13FCEB13FBEA13FAE9130F
:1007D000F9D8F122AA8274E5C0E07407C0E0C02213
:1007E000C0238A82220529E4B52902052A22AA8289
:1007F00074302AFA24C6500A74072AFA30010343D7
:1008000002208A820207D4E582FAC4540FF582C01E
:10081000021207EED002740F5AF5820207EEAA24E4
:10082000AB25AC26AD27AE28752F20EE2EFEED238E
:100830005401FF4206EA2AFAEB33FBEC33FCED33BA
:10084000FDC3EE952B4008EEC3952BFE430201D568
:100850002FD98A248B258C268D278E28227840E656
:1008600024D075F00AA4FA7841E624D02AFA783F19
:100870008603BB2D04C3E49AFA752B01C3E464809C
:100880008AF063F08095F05029752F038A0374F67F
:10089000252F401C052BE52F142434F8E52F243494
:1008A000F98704A604772E1BEBFA6004052F80DE7F
:1008B0008B02EA30E70D783586037836A603783563
:1008C000762E0AE52D600AE52D04FB252BF52B80FD
:1008D00005300C02052B78348603E4BB2D0104FBA4
:1008E0007006200703300802052B3005030209A417
:1008F000300657EB600C75822DC0021207D4D0026F
:10090000801C30070C75822BC0021207D4D00280E5
:100910000D30080A758220C0021207D4D002783543
:100920008604BC2E0C758230C0021207D4D002158A
:100930002CAC2C152CC3E52B9C40030209E87582D6
:1009400030C0021207D4D00280E7AC2C152CC3E5CE
:100950002B9C500C758220C0021207D4D00280EA72
:1009600078348604BC2D0C75822DC0021207D4D0B9
:1009700002801C30070C75822BC0021207D4D002F3
:10098000800D30080A758220C0021207D4D0027888
:10099000358604BC2E52758230C0021207D4D002B4
:1009A000152C8044EB600E75822DC0021207D4D046
:1009B00002152C802030070E75822BC0021207D43E
:1009C000D002152C800F30080C758220C00212074F
:1009D000D4D002152C78358603BB2E0C758230C01E
:1009E000021207D4D002152C752F01C20EE52F2458
:1009F00034F88603BB4503020AA5BB2E348A03C321
:100A0000E464808BF063F08095F0500F758230C005
:100A1000031207D4D0031B8B0280E48B02D20EE5B5
:100A20002D7038200C03020AA575822E1207D4807F
:100A300074300E278A03EB30E71FC3E46480852DF2
:100A4000F063F08095F0500C758230C0031207D42B
:100A5000D003152D0B8B0280DD8B02300E0EC3E40C
:100A60006480852DF063F08095F05021E52F2434CB
:100A7000F886038B82C0021207D4D002300E0EE536
:100A80002F2434F88603BB2E028002152D152CC3AB
:100A9000E46480852DF063F08095F04003200E051E
:100AA000052F0209EDC3E46480852DF063F0809585
:100AB000F0500A7582301207D4152D80E830050FEA
:100AC000AA2C152CEA60087582201207D480F12226
:100AD000E52D7003300C0D7407252DFAE52CC39A13
:100AE000F52C8006E52C24FAF52C752F0078348639
:100AF00002BA2B0F20070C78347620200805752FBA
:100B000001052C200519AA2CC3E464808AF063F047
:100B10008095F0500A7582201207D4152C80E7C208
:100B20000EE52F2434F88602BA00028069BA451F08
:100B30003001027665C3E46480852DF063F0809512
:100B4000F0500A7582301207D4152D80E8D20EC3FA
:100B5000E52F9402E433FA7014EA700EC3E4648063
:100B6000852DF063F08095F04003300E16E52F24BC
:100B700034F886028A821207D4E52F24FD5012151C
:100B80002D800E7402B52F09300C0675822E1207C7
:100B9000D4052F020B21300519AA2CC3E464808AE6
:100BA000F063F08095F0500A7582201207D4152C5E
:100BB00080E722858222858323E4F529F52AAA305D
:100BC000AB31AC328A828B838CF01211A2FD74019E
:100BD0002AF530E43BF5318C32EDFA7003021159FD
:100BE000BA25028003021151C205C206C207C2081B
:100BF000C209C20AC20BC20CC202C203C204752BD4
:100C000000752C00752DFFAB30AC31AD328B828C72
:100C1000838DF01211A2FAA3AB82AC838B308C319E
:100C20008D32BA25078A821207D480928A06BE3096
:100C300000402E8A06EE24C6402774FFB52D13E52A
:100C40002C75F00AA4FEEA24D02EF52C70BFD20633
:100C500080BBE52D75F00AA4FEEA24D02EF52D8088
:100C6000ACBA2E0A74FFB52DA4752D00809F8A069C
:100C7000BE6100400E8A06EE248540075302DFD293
:100C8000018002C201BA20028075BA2303020D0E50
:100C9000BA2A03020D13BA2B02805FBA2D028055C7
:100CA000BA4202805FBA4303020D58BA4403020EEF
:100CB00093BA4503020EADBA4603020EA9BA470322
:100CC000020EB1BA4903020E93BA4C02803BBA4EEF
:100CD00003020EB5BA4F03020E9ABA5003020E2C4D
:100CE000BA5303020D7CBA5503020E9FBA58030291
:100CF0000EA4020EDFD205020C0DD207020C0DD29B
:100D000008020C0DD20A020C0DD20B020C0DD20CF3
:100D1000020C0D74FFB52D20300A0BE53314F88852
:100D200033862C020C0DE53324FEF8883386060842
:100D30008607188E2C020C0D300A0BE53314F88848
:100D400033862D020C0DE53324FEF8883386060821
:100D50008607188E2D020C0D300A0AE53314F88828
:100D6000338602800FE53324FEF888338603088635
:100D700004188B028A821207D4020EE4E53324FDA4
:100D8000F88833860308860408860518188B248C97
:100D9000258D268B828C838DF01212F6AB82AC836C
:100DA0008B2E74FFB52D03852E2D20051DC3E52E3A
:100DB000952C5016E52CC3952EF52CAB2C152CEB51
:100DC00060087582201207D480F1852482852583EE
:100DD0008526F01211A2FBFA6029AB2D152DC3E474
:100DE00064808BF063F08095F050188A821207D4EB
:100DF000AB24AC25AD260BBB00010C8B248C258DC0
:100E00002680C7200503020EE4C3E52E952C40037F
:100E1000020EE4E52CC3952EF52CAB2C152CEB70B3
:100E200003020EE47582201207D480EEE53324FD20
:100E3000F88833860308860408860518188B248CE6
:100E4000258D26E526FB30E7047A438013EB5460BA
:100E500060047A50800AEB30E6047A4980027A58BE
:100E60008A82C0021207D475823A1207D475823082
:100E70001207D47582781207D4D002BA4902800BC7
:100E8000BA5002800685258212080785248212083E
:100E9000078051D209752B0A804A752B0880457549
:100EA0002B0A8040752B10803BD2028037D2038002
:100EB00033D204802FE53324FDF888338603088677
:100EC0000408860518188B248C258D268B828C832C
:100ED0008DF0E5291212DDA3E52A1212DD80058AC4
:100EE000821207D4200206200303300470E5332465
:100EF000FCF88833860308860408860508860618E9
:100F000018188B248C258D268E27E524E525E526CB
:100F1000E5278B828C838DF0EE1211BE74FFB52D08
:100F200003752D06300427747F5527FB8B28E52891
:100F3000EB2BFB8B28E52630E70674014528F528C6
:100F4000E52824684006749925284002D20330031E
:100F500006120AD0020BBE12085D020BBEE52B7012
:100F600003020BBE7B39300A2BE53314F88833E6D5
:100F7000FC3395E0FDFEFF8C248D258E268F2720E7
:100F8000095EAC247D007E007F008C248D258E269A
:100F90008F27804C300B1FE53324FCF88833860400
:100FA0000886050886060886071818188C248D25DB
:100FB0008E268F27802AE53324FEF888338604089E
:100FC000860518ED3395E0FEFF8C248D258E268F47
:100FD0002720090CAC24AD257E007F008E268F27AC
:100FE000300C43E52445254526452760397408B56E
:100FF0002B0C758230C0031207D4D00380287410E4
:10100000B52B23758230C0031207D4D00330010CF6
:10101000758278C0031207D4D003800A758258C045
:10102000031207D4D003300925AC24AD25AE26E544
:1010300027FF30E717C3E49CFCE49DFDE49EFEE43B
:101040009FFF8C248D258E268F278002C209752E46
:1010500000D20D8B00752800C00012081ED00020A1
:101060000D0DE528C4FCE6FD4CF61888038002A6A9
:1010700028052EB20DE52445254526452770D6883E
:1010800003E52C7003752C0120061A200517E52EA8
:1010900004FCC3952C500E758220C0031207D4D0D7
:1010A00003152C80E930090E75822DC0031207D478
:1010B000D003152C8024E52E602030070E75822B7E
:1010C000C0031207D4D003152C800F30080C758292
:1010D00020C0031207D4D003152C20051EAC2C15FC
:1010E0002CC3E52E9C50273006047C3080027C20E7
:1010F0008C82C0031207D4D00380E2C3E52E952C66
:101100005009E52CC3952EF52C8003752C008B001F
:10111000AB2E152EEB6022B20D200D0A08E6C4544A
:101120000FFB8B2880078603740F5BF528852882C8
:10113000C0001207EED00080D7200503020BBEAB23
:101140002C152CEB7003020BBE7582201207D48085
:10115000EE8A821207D4020BBE852982852A832259
:10116000AA82BA0A0810990280FB75990D1099029B
:1011700080FB8A9922FCABF0AA83A982749EF58237
:10118000C2D1EC30E716D2D1E9F42401F9EAF43403
:1011900000FAEBF43400FBECF43400FC1207160206
:1011A00006C720F71430F6148883A88220F507E6D6
:1011B000A88375830022E280F7E49322E022C0E056
:1011C000F84582458345F07009F5F0FBFCFDFE0211
:1011D000128CE823A2F792E0F8A982AA83D2F7AB97
:1011E000F07C007E07C3749798404074FF2EFE7415
:1011F0000A89F0A4F985F082740A8AF0A4FA85F0CD
:1012000083740A8BF0A4FB740529F9EA3582FAEBA2
:101210003583FB740035F0FCC3EC13FCEB13FBEAE5
:1012200013FAE913F908EC70EF80BAE8C3947FF879
:101230008B838EF0E4FBFCFDFEFF08C3E933F9EA83
:1012400033FAE58333F583EB3BD4FBEC3CD4FCED84
:101250003DD4FDEE3ED4FEEF3FD4FF602D05F0748B
:10126000052BD4FBE43CD4FCE43DD4FDE43ED4FEA9
:10127000E43FD4FF758204C3EF13FFEE13FEED13BA
:10128000FDEC13FCEB13FBD582EDD8AF7834D0E046
:1012900020E704762B8002762D087906E7C4540FE8
:1012A0004430F608B90603762E08E7540F4430F6AA
:1012B0000819B902E7764508E5F020E704762B80A7
:1012C00004762DF4040875F00A844430F608E5F03D
:1012D0004430F608E4F690003475F0402220F71010
:1012E00030F6118883A88220F507F6A8837583005D
:1012F00022F280F7F022AA82AB83ACF07D007E0060
:101300008A828B838CF01211A2FFA3AA82AB83EF97
:1013100060070DBD00EA0E80E78D828E83220000FB
:00000001FF
