:1000000002002E00000000000000000000000000C0
:1000200000000000000000000000000202E47581F2
:100030004B120162E582600302009A780079007A2F
:10004000007B007C007D00EC4D601C88828983E48D
:1000500093A3A882A9838A828B83F0A3AA82AB830D
:100060001CBCFFE31D80E07582007583007C007D71
:1000700000EC4D600AE4F0A31CBCFFF51D80F27596
:1000800082007583007C007D00EC4D600AE4F0A3E3
:100090001CBCFFF51D80F212011412058B80FE6658
:1000A00072657175656E6379203D20256620487AFA
:1000B0000A004C65667428626C75652920696E6457
:1000C00020766F6C74616765203D20256620560A96
:1000D000005269676874287265642920696E64201B
:1000E000766F6C74616765203D20256620560A0096
:1000F00046726F6E7420696E647563746F722076D9
:100100006F6C74616765203D20256620560A001BD0
:100110005B324A0075220075233275240075250074
:10012000752600752700752800752900E4F52AF565
:100130002B752C00752D00752E00752F0075300065
:1001400075310075320075330075340075350075F2
:100150003600753700753800753900753A00753B03
:10016000002253D9BF75FF8075EF0643A90343B240
:1001700003759810758D30538EF4438E08858D8BE2
:1001800053890F438920D28ED29943A60343A410EA
:1001900075E10175E24075820022AA82438E4075A6
:1001A00092D07593FF8592948593957591047B0009
:1001B000C3EB9A500BE59130E7FB53917F0B80F036
:1001C00075910022AA82AB83BA0004BB000122759C
:1001D00082F9C002C00312019A7582F912019A7560
:1001E00082F912019A7582FA12019AD003D0021A8A
:1001F000BAFF011B80D25389F0438901C28C22755A
:10020000C800438E1075CA7875CBEC75CCFF75CDE0
:10021000FFD2ADD2CA2275BCF875E88075D108222C
:10022000AA82851CF005F07401800225E0D5F0FB60
:10023000FBEA24FC4033EA2A2A90023D7302024979
:10024000020251020259020261EBF452F1EB42D474
:1002500022EBF452F2EB42D522EBF452F3EB42D60E
:1002600022EBF4FA52F4EB42DF228582BB75BA1F0F
:10027000D2EC20ECFDD2EC20ECFDAABD7B00ADBEA3
:100280007C00EC2AF582ED3BF5832212026A12050E
:10029000DAAA82AB83ACF0FDC002C003C004C00583
:1002A0009020C575F0587440120616AA82AB83AC34
:1002B000F0FDE58124FCF581E4C0E0C0E07480C07D
:1002C000E07444C0E08A828B838CF0ED120760AA50
:1002D00082AB83ACF0FDE58124FCF5818A828B83BF
:1002E0008CF0ED22C0E0C0D075D000C2CF0522E571
:1002F00022249B5003752200C3E52495229200B36B
:1003000092A2C3E52595229200B392A5C3E5269556
:10031000229200B392A4C3E52795229200B392A340
:10032000D0D0D0E032758A00758C00C28D7529005E
:100330002096FD3096FDD28C309609108D0280F803
:10034000052980F4209609108D0280F8052980F493
:10035000C28C8529821206B9AA82AB83ACF0FDC09B
:1003600002C003C004C00590000075F080744712FD
:100370000616AA82AB83ACF0FDE58124FCF58185ED
:100380008C82C002C003C004C0051206B9AE82AFA1
:1003900083A8F0F9C006C007C000C0019000007536
:1003A000F0807443120616AE82AF83A8F0F9E5819F
:1003B00024FCF581D005D004D003D002C006C007CC
:1003C000C000C0018A828B838CF0ED1206C4AA8221
:1003D000AB83ACF0FDE58124FCF581AE8A7F008E15
:1003E000828F83C002C003C004C005120753AE82CF
:1003F000AF83A8F0F9D005D004D003D002C006C066
:1004000007C000C0018A828B838CF0ED1206C4AA5B
:1004100082AB83ACF0FDE58124FCF581C002C00312
:10042000C004C0059037BD75F0867434120616AA54
:1004300082AB83ACF0FDE58124FCF581C002C003F2
:10044000C004C00590000075F080743F12076085FD
:10045000822C85832D85F02EF52FE58124FCF581F6
:1004600022020325C02CC02DC02EC02F749FC0E0D7
:100470007400C0E07480C0E0120732E58124F9F511
:1004800081C030C031C032C03374B2C0E07400C02B
:10049000E07480C0E0120732E58124F9F581C034B0
:1004A000C035C036C03774D1C0E07400C0E074807D
:1004B000C0E0120732E58124F9F581C038C039C0A7
:1004C0003AC03B74F0C0E07400C0E07480C0E01239
:1004D0000732E58124F9F5812275820F12028B859E
:1004E000823085833185F032F53375820712028BB5
:1004F00085823485833585F036F53775820812029A
:100500008B85823885833985F03AF53B227466C045
:10051000E0C0E074A6C0E0743FC0E0853082853161
:10052000838532F0E5331205E6AA82E58124FCF5E5
:1005300081EA6013E52324F6F525752400740A2565
:1005400023F52775260022E4C0E0C0E0C0E0744037
:10055000C0E08534828535838536F0E5371205E6BF
:10056000AA82E58124FCF581EA6013740A2523F54B
:1005700025752400E52324F6F5277526002285231A
:1005800025752400852327752600221201F6120105
:10059000FFD2AF752800751C077582011202207505
:1005A0001C00758202120220751C0775820212025D
:1005B00020120216740FC0E07401C0E07480C0E025
:1005C0001207321581158115811204D912050D12F9
:1005D00004649000641201C480EFE4AC83AB82FA3F
:1005E000F9748E020888FFA88118181208B0D2D1B9
:1005F00033E6400730E70B7582012220E70675825B
:100600000022C2D1120892E97003F5822230D10192
:10061000B3E433F5822212095DBC00030208FCEF4B
:1006200060FA30D502B2D1E583B4FF03020912E5C6
:1006300082B4FF03020912258340072482400B0283
:1006400008FC2483145003020912F582EA8DF0A4F9
:10065000A8F0EA8EF0A428F8E435F0F9EB8DF0A4C8
:1006600028E935F0F9E433CA8FF0A429F9EA35F026
:10067000FAEBF88EF0A429F9EA35F0FAE433FBEC52
:100680008DF0A429F9EA35F0FAE43BFBE88FF0A4F9
:100690002AFAEB35F0FBE433CCFD8EF0A42AFAEB1A
:1006A00035F0FBE43CFCED8FF0A42BFBEC35F0FCCB
:1006B00020E70312092A0208DBE4AC82FBFAF97492
:1006C0008602088812095D7900E583B58202800DF3
:1006D000500312098BE583C395821209A5E5D0C4A6
:1006E00065D020E117EA2DFAEB3EFBEC3FFC500908
:1006F00074011209A5EC4480FC0208DBC3EA9DFAF0
:10070000EB9EFBEC9FFC500FC3E499F9E49AFAE4EA
:100710009BFBE49CFCB2D112092A0208DB02137491
:1007200085821885831985F01A85091B90071D029B
:100730000DC7C008858108E50824FBF51BE50824E2
:10074000FBF8861808861908861A90071D120DC72F
:10075000D00822AC83AB827A007900748E021392A7
:1007600012095D30D502B2D1BF0009BC00030209F5
:100770001F020912BC00030208FCE583B4FF0BE56D
:1007800082B4FF0302091F0208FCE582B4FF0302E2
:100790000912C395835007247F400B0208FC248074
:1007A000145003020912C0E0E4CCCBCAF98D1C8EB0
:1007B0001D8F1EEF54F0C4F51F758306851FF0EBE7
:1007C00084F582E9C4F9EAC4FAEBC4FBEC540FC423
:1007D0007803D6FC18EBD6FB18EAD6FA8582F0ED42
:1007E000A4A8F0FD8582F0EEA428FEE435F0F8859B
:1007F00082F0EFA428FFE435F0F8E99DF9EA9EFACB
:10080000EB9FFBEC98FCAD1CAE1DAF1E30E7101546
:1008100082E92DF9EA3EFAEB3FFBE43CFC80EDC0B7
:1008200082D58398C3E933F9EA33FAEB33FBEC332F
:10083000FCC3E99DEA9EEB9FEC9400B3E413F9D06E
:1008400002D0E0C44AFAD003D0E0C44BFBD004D0BD
:10085000E0F5F0540FC44CFCD082158230F40FD375
:10086000EC13FCEB13FBEA13FAE913F90582E93008
:10087000E70A74012AFAE43BFBE43CFC0208F3FCBF
:10088000ABF0AA83A982749EC2D1F58212092A0212
:1008900008DB7901AA82E68F82B5821318E6B5F0EB
:1008A0000E18E6B5830918E68A82B582027900221D
:1008B000B4800FE5F0700AE5837006E58270027F70
:1008C00000EFB6801518B6001018B6000B18B60069
:1008D0000608080876002208080822B98003EA13EF
:1008E000B34010EA2401FAE43BFBE43CFC50047CF6
:1008F000800582BC000EBB000BBA0008E4F5F0F5E1
:1009000083F58222A2D1E582138CF092F78B838A41
:100910008222E4F583F58275F080F4A2D11322E4FB
:10092000F583F58275F0C0747F227804EC7011E5D0
:100930008224F8500AF582E4C9CACBFCD8EF22EC35
:100940007820058220E713D5820122C3E933F9EA32
:1009500033FAEB33FBEC33FCD8EA158222AA82ABE4
:1009600083A2F73392D16002D2F7F582ACF0E58131
:1009700024F9F8E6FD08E6FE0886F008E6A2F7335B
:1009800092D56002D2F7F583AFF022E582C583F5F8
:1009900082A2D133A2D592D11392D5ECCFFCEBCE6B
:1009A000FBEACDFA226040F82582500274FFF582FE
:1009B000E824F8501ECCCBCAF9E4CC24F85014CB70
:1009C000CAF9E4CB24F8500BCAF9E4CA24F850035E
:1009D00079002224086010F8C3EC13FCEB13FBEA47
:1009E00013FAE913F9D8F122AA8274F9C0E0740964
:1009F000C0E0C00AC00B8A82220511E4B5110205CD
:100A00001222AA8274302AFA24C6500A74072AFADB
:100A10003001034302208A820209E8E582FAC454C5
:100A20000FF582C002120A02D002740F5AF5820238
:100A30000A02AA0CAB0DAC0EAD0FAE10751720EE6E
:100A40002EFEED235401FF4206EA2AFAEB33FBECBB
:100A500033FCED33FDC3EE95134008EEC39513FE52
:100A6000430201D517D98A0C8B0D8C0E8D0F8E1079
:100A7000227848E624D075F00AA4FA7849E624D012
:100A80002AFA78478603BB2D04C3E49AFA7513014A
:100A9000C3E464808AF063F08095F05029751703F1
:100AA0008A0374F62517401C0513E51714243CF837
:100AB000E517243CF98704A604772E1BEBFA6004A3
:100AC000051780DE8B02EA30E70D783D8603783E1D
:100AD000A603783D762E0AE515600AE51504FB2588
:100AE00013F5138005300C020513783C8603E4BB34
:100AF0002D0104FB700620070330080205133005A2
:100B000003020BB8300657EB600C75822DC0021241
:100B100009E8D002801C30070C75822BC002120934
:100B2000E8D002800D30080A758220C0021209E860
:100B3000D002783D8604BC2E0C758230C0021209AA
:100B4000E8D0021514AC141514C3E5139C4003023D
:100B50000BFC758230C0021209E8D00280E7AC14A9
:100B60001514C3E5139C500C758220C0021209E8CD
:100B7000D00280EA783C8604BC2D0C75822DC00220
:100B80001209E8D002801C30070C75822BC00212BB
:100B900009E8D002800D30080A758220C0021209CF
:100BA000E8D002783D8604BC2E52758230C0021215
:100BB00009E8D00215148044EB600E75822DC00246
:100BC0001209E8D0021514802030070E75822BC060
:100BD000021209E8D0021514800F30080C7582202B
:100BE000C0021209E8D0021514783D8603BB2E0C12
:100BF000758230C0021209E8D0021514751701C2BF
:100C00000EE517243CF88603BB4503020CB9BB2E46
:100C1000348A03C3E464808BF063F08095F0500F56
:100C2000758230C0031209E8D0031B8B0280E48B6D
:100C300002D20EE5157038200C03020CB975822E15
:100C40001209E88074300E278A03EB30E71FC3E4F3
:100C500064808515F063F08095F0500C758230C08B
:100C6000031209E8D00315150B8B0280DD8B0230CF
:100C70000E0EC3E464808515F063F08095F050217A
:100C8000E517243CF886038B82C0021209E8D002E3
:100C9000300E0EE517243CF88603BB2E02800215A9
:100CA000151514C3E464808515F063F08095F04059
:100CB00003200E050517020C01C3E464808515F0BE
:100CC00063F08095F0500A7582301209E81515809E
:100CD000E830050FAA141514EA600875822012097D
:100CE000E880F122E5157003300C0D74072515FA24
:100CF000E514C39AF5148006E51424FAF514751763
:100D000000783C8602BA2B0F20070C783C76202016
:100D100008057517010514200519AA14C3E4648099
:100D20008AF063F08095F0500A7582201209E81568
:100D30001480E7C20EE517243CF88602BA00028050
:100D400069BA451F3001027665C3E464808515F0F9
:100D500063F08095F0500A7582301209E81515800D
:100D6000E8D20EC3E5179402E433FA7014EA700E69
:100D7000C3E464808515F063F08095F04003300E85
:100D800016E517243CF886028A821209E8E5172442
:100D9000FD50121515800E7402B51709300C06753A
:100DA000822E1209E80517020D35300519AA14C361
:100DB000E464808AF063F08095F0500A7582201216
:100DC00009E8151480E72285820A85830BE4F51172
:100DD000F512AA18AB19AC1A8A828B838CF0121305
:100DE000B6FD74012AF518E43BF5198C1AEDFA707A
:100DF0000302136DBA25028003021365C205C20601
:100E0000C207C208C209C20AC20BC20CC202C20394
:100E1000C2047513007514007515FFAB18AC19AD3D
:100E20001A8B828C838DF01213B6FAA3AB82AC833B
:100E30008B188C198D1ABA25078A821209E88092BC
:100E40008A06BE3000402E8A06EE24C6402774FF74
:100E5000B51513E51475F00AA4FEEA24D02EF51496
:100E600070BFD20680BBE51575F00AA4FEEA24D057
:100E70002EF51580ACBA2E0A74FFB515A4751500B1
:100E8000809F8A06BE6100400E8A06EE24854007D8
:100E90005302DFD2018002C201BA20028075BA2358
:100EA00003020F22BA2A03020F27BA2B02805FBA6D
:100EB0002D028055BA4202805FBA4303020F6CBA1A
:100EC00044030210A7BA45030210C1BA4603021038
:100ED000BDBA47030210C5BA49030210A7BA4C02B3
:100EE000803BBA4E030210C9BA4F030210AEBA508B
:100EF00003021040BA5303020F90BA55030210B315
:100F0000BA58030210B80210F3D205020E21D2071C
:100F1000020E21D208020E21D20A020E21D20B02A9
:100F20000E21D20C020E2174FFB51520300A0BE5FC
:100F30001B14F8881B8614020E21E51B24FEF8887A
:100F40001B8606088607188E14020E21300A0BE550
:100F50001B14F8881B8615020E21E51B24FEF88859
:100F60001B8606088607188E15020E21300A0AE530
:100F70001B14F8881B8602800FE51B24FEF8881BD3
:100F80008603088604188B028A821209E80210F888
:100F9000E51B24FDF8881B860308860408860518CF
:100FA000188B0C8C0D8D0E8B828C838DF012150A94
:100FB000AB82AC838B1674FFB5150385161520051F
:100FC0001DC3E51695145016E514C39516F514AB1C
:100FD000141514EB60087582201209E880F1850C65
:100FE00082850D83850EF01213B6FBFA6029AB15CE
:100FF0001515C3E464808BF063F08095F050188A77
:10100000821209E8AB0CAC0DAD0E0BBB00010C8BD2
:101010000C8C0D8D0E80C72005030210F8C3E51659
:10102000951440030210F8E514C39516F514AB149B
:101030001514EB70030210F87582201209E880EE97
:10104000E51B24FDF8881B8603088604088605181E
:10105000188B0C8C0D8D0EE50EFB30E7047A438067
:1010600013EB546060047A50800AEB30E6047A494E
:1010700080027A588A82C0021209E875823A1209FF
:10108000E87582301209E87582781209E8D002BA50
:101090004902800BBA50028006850D82120A1B8518
:1010A0000C82120A1B8051D20975130A804A7513EB
:1010B00008804575130A8040751310803BD202806A
:1010C00037D2038033D204802FE51B24FDF8881B20
:1010D000860308860408860518188B0C8C0D8D0E67
:1010E0008B828C838DF0E5111214F1A3E51212149A
:1010F000F180058A821209E82002062003033004E9
:1011000070E51B24FCF8881B860308860408860506
:101110000886061818188B0C8C0D8D0E8E0FE50C9A
:10112000E50DE50EE50F8B828C838DF0EE1213D268
:1011300074FFB51503751506300427747F550FFB32
:101140008B10E510EB2BFB8B10E50E30E7067401DE
:101150004510F510E51024684006749925104002EA
:10116000D203300306120CE4020DD2120A71020DF2
:10117000D2E5137003020DD27B41300A2BE51B141C
:10118000F8881BE6FC3395E0FDFEFF8C0C8D0D8E80
:101190000E8F0F20095EAC0C7D007E007F008C0C52
:1011A0008D0D8E0E8F0F804C300B1FE51B24FCF82D
:1011B000881B8604088605088606088607181818FE
:1011C0008C0C8D0D8E0E8F0F802AE51B24FEF88867
:1011D0001B860408860518ED3395E0FEFF8C0C8D08
:1011E0000D8E0E8F0F20090CAC0CAD0D7E007F0014
:1011F0008E0E8F0F300C43E50C450D450E450F60EC
:10120000397408B5130C758230C0031209E8D00395
:1012100080287410B51323758230C0031209E8D0FA
:101220000330010C758278C0031209E8D003800AEC
:10123000758258C0031209E8D003300925AC0CAD03
:101240000DAE0EE50FFF30E717C3E49CFCE49DFDF7
:10125000E49EFEE49FFF8C0C8D0D8E0E8F0F80029E
:10126000C209751600D20D8B00751000C000120A5D
:1012700032D000200D0DE510C4FCE6FD4CF61888B8
:10128000038002A6100516B20DE50C450D450E456E
:101290000F70D68803E514700375140120061A2018
:1012A0000517E51604FCC39514500E758220C00383
:1012B0001209E8D003151480E930090E75822DC09B
:1012C000031209E8D00315148024E51660203007C6
:1012D0000E75822BC0031209E8D0031514800F305D
:1012E000080C758220C0031209E8D00315142005EC
:1012F0001EAC141514C3E5169C50273006047C3030
:1013000080027C208C82C0031209E8D00380E2C3F3
:10131000E51695145009E514C39516F51480037568
:1013200014008B00AB161516EB6022B20D200D0ACF
:1013300008E6C4540FFB8B1080078603740F5BF51F
:1013400010851082C000120A02D00080D720050349
:10135000020DD2AB141514EB7003020DD27582206E
:101360001209E880EE8A821209E8020DD285118204
:1013700085128322AA82BA0A0810990280FB759905
:101380000D10990280FB8A9922FCABF0AA83A982F6
:10139000749EF582C2D1EC30E716D2D1E9F4240173
:1013A000F9EAF43400FAEBF43400FBECF43400FC1A
:1013B00012092A0208DB20F71430F6148883A88269
:1013C00020F507E6A88375830022E280F7E49322E4
:1013D000E022C0E0F84582458345F07009F5F0FB56
:1013E000FCFDFE0214A0E823A2F792E0F8A982AA6D
:1013F00083D2F7ABF07C007E07C3749798404074AB
:10140000FF2EFE740A89F0A4F985F082740A8AF02E
:10141000A4FA85F083740A8BF0A4FB740529F9EA19
:101420003582FAEB3583FB740035F0FCC3EC13FC1A
:10143000EB13FBEA13FAE913F908EC70EF80BAE852
:10144000C3947FF88B838EF0E4FBFCFDFEFF08C3A2
:10145000E933F9EA33FAE58333F583EB3BD4FBEC6C
:101460003CD4FCED3DD4FDEE3ED4FEEF3FD4FF6016
:101470002D05F074052BD4FBE43CD4FCE43DD4FDF5
:10148000E43ED4FEE43FD4FF758204C3EF13FFEEC5
:1014900013FEED13FDEC13FCEB13FBD582EDD8AF7F
:1014A000783CD0E020E704762B8002762D08790680
:1014B000E7C4540F4430F608B90603762E08E75403
:1014C0000F4430F60819B902E7764508E5F020E741
:1014D00004762B8004762DF4040875F00A844430D9
:1014E000F608E5F04430F608E4F690003C75F0406C
:1014F0002220F71030F6118883A88220F507F6A87D
:101500008375830022F280F7F022AA82AB83ACF0CD
:101510007D007E008A828B838CF01213B6FFA3AA13
:1015200082AB83EF60070DBD00EA0E80E78D828EEF
:101530008322000000000000000000000000000006
:00000001FF
