:1000000002002E2020202020202020202020202020
:1000100020202000465245513D25352E3366485A52
:10002000001B5B324A000000000000020284758160
:100030008B120102E582600302009A780079007A4F
:10004000007B007C007D00EC4D601C88828983E48D
:1000500093A3A882A9838A828B83F0A3AA82AB830D
:100060001CBCFFE31D80E07582007583007C007D71
:1000700000EC4D600AE4F0A31CBCFFF51D80F27596
:1000800082007583007C007D00EC4D600AE4F0A3E3
:100090001CBCFFF51D80F212009F120A0680FE753F
:1000A000220075231E75240075250075260075270E
:1000B00000752800752900752A00752B00752C0025
:1000C000752D00752E03E4F52F7530007531007520
:1000D000320075330075340075350075360075379C
:1000E00000753800753900753A00753B00753C00A5
:1000F000753D00753E00753F00754000E4F541F523
:10010000422253D9BF75FF8075EF0643A90343B25E
:1001100003759810758D30538EF4438E08858D8B42
:1001200053890F438920D28ED29943A60343A40159
:1001300075E10175E24075820022AA82438E407506
:1001400092D07593FF8592948593957591047B0069
:10015000C3EB9A500BE59130E7FB53917F0B80F096
:1001600075910022AA82AB83BA0004BB00012275FC
:1001700082F9C002C00312013A7582F912013A7580
:1001800082F912013A7582FA12013AD003D0021AAA
:10019000BAFF011B80D25389F0438901C28C2275BA
:1001A000C800438E1075CA7875CBEC75CCFF75CD41
:1001B000FFD2ADD2CA2275BCF875E88075D108228D
:1001C000AA828511F005F07401800225E0D5F0FBCC
:1001D000FBEA24FC4033EA2A2A9001DD730201E99C
:1001E0000201F10201F9020201EBF452F1EB42D4F7
:1001F00022EBF452F2EB42D522EBF452F3EB42D66F
:1002000022EBF4FA52F4EB42DF228582BB75BA1F6F
:10021000D2EC20ECFDD2EC20ECFDAABD7B00ADBE03
:100220007C00EC2AF582ED3BF5832212020A120AC9
:10023000F2AA82AB83ACF0FDC002C003C004C005CB
:1002400090DD2F75F0547440120B5EAA82AB83AC24
:10025000F0FDE58124FCF581E4C0E0C0E07480C0DD
:10026000E07444C0E08A828B838CF0ED120D95AA75
:1002700082AB83ACF0FDE58124FCF5818A828B831F
:100280008CF0ED22C0E0C0D075D000C2CF0522E5D1
:1002900022249B5003752200C3E52495229200B3CB
:1002A00092A5C3E52595229200B392A2C3E52695B7
:1002B000229200B392A3C3E52795229200B392A4A1
:1002C000D0D0D0E032D29575822812013AC2952260
:1002D000AA828AE0A2E79290A2E69291A2E5929287
:1002E000A2E49293C0021202C575822812013AD08C
:1002F000028AE0A2E39290A2E29291A2E19292A2FB
:10030000E092930202C5AA82D2A18A821202D09000
:100310000002020164AA82C2A18A821202D0900065
:1003200005020164C295C29790001412016475829F
:1003300033120315758233120315758232120315B9
:1003400075822812031575820C120315758201122D
:100350000315900014020164AA82AB83ACF074020E
:10036000B54D047DC080027D808D82C002C003C077
:1003700004120315900005120164D004D003D002CA
:100380007D007E00ED2AFFEE3BF88C018F82888392
:1003900089F0120AD6FF60208F82C002C003C00419
:1003A000C005C006120306D006D005D004D003D085
:1003B000020DBD00CF0E80CC3001248D028E03C310
:1003C000EA9410EB648094805015758220C002C0BE
:1003D00003120306D003D0020ABA00E30B80E02226
:1003E000754D01D20190000375F080120358754DD0
:1003F00002D20190000375F080020358758A0075DF
:100400008C00C28D7529002096FD3096FDD28C306F
:100410009609108D0280F8052980F4209609108D28
:100420000280F8052980F4C28C852982120C01AA69
:1004300082AB83ACF0FDC002C003C004C0059000D5
:100440000075F0807447120B5EAA82AB83ACF0FD9E
:10045000E58124FCF581858C82C002C003C004C004
:1004600005120C01AE82AF83A8F0F9C006C007C028
:1004700000C00190000075F0807443120B5EAE82E4
:10048000AF83A8F0F9E58124FCF581D005D004D034
:1004900003D002C006C007C000C0018A828B838CD3
:1004A000F0ED120C0CAA82AB83ACF0FDE58124FCCC
:1004B000F581AE8A7F008E828F83C002C003C004A4
:1004C000C005120D88AE82AF83A8F0F9D005D00424
:1004D000D003D002C006C007C000C0018A828B834F
:1004E0008CF0ED120C0CAA82AB83ACF0FDE58124FC
:1004F000FCF581C002C003C004C0059037BD75F093
:10050000867434120B5EAA82AB83ACF0FDE58124C5
:10051000FCF581C002C003C004C00590000075F066
:1005200080743F120D9585822A85832B85F02CF5EA
:100530002DE58124FCF581221203FCE540254025B0
:10054000E0FA2430F8A62A08A62B08A62C08A62D27
:1005500005407404B54003754000754E00754F00AA
:100560007C00BC0400400302066AEC2C25E0FD245C
:1005700030F88606088607088603088602181818C9
:10058000C004C005E4C0E074B6C0E07482C0E0748A
:1005900046C0E08E828F838BF0EA120AFEAA82E5C3
:1005A0008124FCF581D005D004EA603CED2430F8CC
:1005B0008602088603088605088606181818C004EF
:1005C000E4C0E0745AC0E07485C0E07446C0E08ABC
:1005D000828B838DF0EE120B2EAA82E58124FCF52E
:1005E00081D004EA6002054EEC2C25E0FA2430F8B4
:1005F0008603088605088606088607181818C002AC
:10060000C004E4C0E07438C0E07467C0E07446C061
:10061000E08B828D838EF0EF120AFEAB82E581249F
:10062000FCF581D004D002EB603CEA2430F886026D
:10063000088603088605088606181818C004E4C052
:10064000E074A8C0E07470C0E07446C0E08A828B99
:10065000838DF0EE120B2EAA82E58124FCF581D069
:1006600004EA6002054F0C020562E54F24FD5006C6
:10067000E4F52EF52F22E54E24FD5009752E03E4F6
:10068000F52F75231E2285825085835185F052E413
:10069000B52E07E4B52F030209C27403B52E06E494
:1006A000B52F02800D7404B52E07E4B52F030207A1
:1006B000BC22AA50AB51AC528A828B838CF0120AB6
:1006C000D6FDA3120AD6FEA3120AD6FFA3120AD69B
:1006D000F8C002C003C0047462C0E07410C0E074CB
:1006E000F8C0E0743EC0E08D828E838FF0E8120D7A
:1006F0007DAD82AE83AFF0F8E58124FCF58174AC6A
:10070000C0E0741CC0E074DAC0E0743DC0E08D82CB
:100710008E838FF0E8120AFEAD82E58124FCF5811C
:10072000D004D003D002ED600D752500752400853E
:1007300023277526002274042AFAE43BFB8A828B65
:10074000838CF0120AD6FAA3120AD6FBA3120AD699
:10075000FCA3120AD6FD741BC0E0742FC0E074CD58
:10076000C0E0743EC0E08A828B838CF0ED120D7D78
:10077000AA82AB83ACF0FDE58124FCF58174ACC0AA
:10078000E0741CC0E0745AC0E0743DC0E08A828B03
:10079000838CF0ED120AFEAA82E58124FCF581EA41
:1007A000600D852325752400752700752600228598
:1007B000232575240085232775260022855053851F
:1007C00051548552558553828554838555F0120ABC
:1007D000D6FDA3120AD6FEA3120AD6FFA3120AD68A
:1007E000F8C005C006C007C00074BCC0E07474C087
:1007F000E07453C0E0743EC0E08D828E838FF0E8D9
:10080000120AFEA982E58124FCF581D000D007D030
:1008100006D005E9600302089D74042553F9E43508
:1008200054FAAB5589828A838BF0120AD6F55AA303
:10083000120AD6F55BA3120AD6F55CA3120AD6F506
:100840005DC005C006C007C000C05AC05BC05CC028
:100850005D8D828E838FF0E8120D9585825685839B
:100860005785F058F559E58124FCF581E4C0E0C0D6
:10087000E07480C0E0743FC0E08556828557838570
:1008800058F0E559120AFEAA82E58124FCF581D0D0
:1008900000D007D006D005EA7003020922740425AF
:1008A00053FAE43554FBAC558A828B838CF0120AE0
:1008B000D6FAA3120AD6FBA3120AD6FCA3120AD6B2
:1008C000F9C002C003C004C0018D828E838FF0E89E
:1008D000120D95AA82AB83ACF0FDE58124FCF58175
:1008E00074CDC0E074CCC0E0748CC0E0743FC0E054
:1008F0008A828B838CF0ED120AFEAA82E58124FCA9
:10090000F581EA6010E52325E0F5267527007524BA
:10091000007525002285232475250075260075277E
:1009200000227491C0E074EDC0E0741CC0E0743E1D
:10093000C0E0855A82855B83855CF0E55D120AFE26
:10094000AA82E58124FCF581EA7025C0E0C0E0744C
:1009500080C0E0743FC0E08556828557838558F09B
:10096000E559120B2EAA82E58124FCF581EA604547
:1009700074CDC0E074CCC0E0744CC0E0743FC0E003
:100980008556828557838558F0E559120B2EAA8229
:10099000E58124FCF581EA600FE4F526F527E523DF
:1009A00025E0F52475250022752400752500852392
:1009B0002675270022852324752500852326752783
:1009C000002275250075240075270075260022C0B9
:1009D0002AC02BC02CC02D7414C0E07400C0E07479
:1009E00080C0E07443C0E07400C0E07440C0E01216
:1009F0000D37E58124F6F581754D01D20190004354
:100A000075F04002035812019612019F120324D27E
:100A1000AF7511047582011201C075110075820253
:100A20001201C07511077582021201C01201B6745D
:100A300021C0E07400C0E07480C0E0120C7A15811F
:100A40001581158175115875120285418285428381
:100A5000120C9BE5828583F045F070031205387512
:100A6000820F12022BAA82AB83ACF0FD8A5E8B5FF1
:100A70008C608D6175820412022BAA82AB83ACF06C
:100A8000FD8A628B638C648D6575820812022BAAC5
:100A900082AB83ACF0FD8A668B678C688D699000B1
:100AA0005E75F040120686751158751202854182F6
:100AB000854283120C9BE5828583F045F07003121A
:100AC00009CF90001412016474142541F541E435F6
:100AD00042F542020A4420F71430F6148883A882B3
:100AE00020F507E6A88375830022E280F7E49322CD
:100AF000E022E4AC83AB82FAF9748E020EBDFFA84B
:100B0000811818120EE5D2D133E6400730E70B7595
:100B100082012220E70675820022C2D1120EC7E9A7
:100B20007003F5822230D101B3E433F58222FFA8AD
:100B3000811818120EE5D2D133E6400730E70B7565
:100B400082002220E70675820122C2D1120EC7E977
:100B50007003F5822220D101B3E433F58222120F13
:100B600092BC0003020F31EF60FA30D502B2D1E53A
:100B700083B4FF03020F47E582B4FF03020F47254A
:100B80008340072482400B020F3124831450030258
:100B90000F47F582EA8DF0A4A8F0EA8EF0A428F8B9
:100BA000E435F0F9EB8DF0A428E935F0F9E433CA27
:100BB0008FF0A429F9EA35F0FAEBF88EF0A429F9C0
:100BC000EA35F0FAE433FBEC8DF0A429F9EA35F0CC
:100BD000FAE43BFBE88FF0A42AFAEB35F0FBE433B0
:100BE000CCFD8EF0A42AFAEB35F0FBE43CFCED8F53
:100BF000F0A42BFBEC35F0FC20E703120F5F020F93
:100C000010E4AC82FBFAF97486020EBD120F9279E1
:100C100000E583B58202800D5003120FC0E583C347
:100C20009582120FDAE5D0C465D020E117EA2DFADB
:100C3000EB3EFBEC3FFC50097401120FDAEC4480F0
:100C4000FC020F10C3EA9DFAEB9EFBEC9FFC500FD9
:100C5000C3E499F9E49AFAE49BFBE49CFCB2D11258
:100C60000F5F020F100219A985827885837985F0BC
:100C70007A85107B900C650213FCC008858108E51D
:100C80000824FBF57BE50824FBF8867808867908BC
:100C9000867A900C651213FCD00822E5114512608B
:100CA000467A01E51125E0F511E512334012F512FF
:100CB000E5829511E583951240030A80E6C3E512AB
:100CC00013F512E51113F511C3E5829511F5F0E561
:100CD0008395124005F58385F082C3E51213F51262
:100CE000E51113F511DAE122AA82AB09AC0AAD0BCA
:100CF0008B828C838DF0EA1219BE0509E4B50902D6
:100D0000050A2285820985830A85F00B850C788582
:100D10000D79850E7A850F7B900CE81213FCAA8260
:100D2000AB83AC09AD0AAE0B8C828D838EF0E412DE
:100D300019BE8A828B8322C008858108E50824F8C1
:100D4000F57BE50824FBF8860908860A08860BE58A
:100D50000824F8F8867808867908867A900CE812D4
:100D600013FCAA82AB83AC09AD0AAE0B8C828D83D7
:100D70008EF0E41219BE8A828B83D00822A88118D3
:100D800018C6B2E7C6020C0CAC83AB827A007900BD
:100D9000748E0219E0120F9230D502B2D1BF000951
:100DA000BC0003020F54020F47BC0003020F31E5E1
:100DB00083B4FF0BE582B4FF03020F54020F31E549
:100DC00082B4FF03020F47C395835007247F400B73
:100DD000020F312480145003020F47C0E0E4CCCB53
:100DE000CAF98D118E128F13EF54F0C4F514758368
:100DF000068514F0EB84F582E9C4F9EAC4FAEBC481
:100E0000FBEC540FC47803D6FC18EBD6FB18EAD6DB
:100E1000FA8582F0EDA4A8F0FD8582F0EEA428FE0C
:100E2000E435F0F88582F0EFA428FFE435F0F8E926
:100E30009DF9EA9EFAEB9FFBEC98FCAD11AE12AF68
:100E40001330E7101582E92DF9EA3EFAEB3FFBE497
:100E50003CFC80EDC082D58398C3E933F9EA33FACC
:100E6000EB33FBEC33FCC3E99DEA9EEB9FEC940073
:100E7000B3E413F9D002D0E0C44AFAD003D0E0C4FE
:100E80004BFBD004D0E0F5F0540FC44CFCD08215DD
:100E90008230F40FD3EC13FCEB13FBEA13FAE913E3
:100EA000F90582E930E70A74012AFAE43BFBE43CE5
:100EB000FC020F28FCABF0AA83A982749EC2D1F574
:100EC00082120F5F020F107901AA82E68F82B5822B
:100ED0001318E6B5F00E18E6B5830918E68A82B550
:100EE0008202790022B4800FE5F0700AE583700673
:100EF000E58270027F00EFB6801518B6001018B6B4
:100F0000000B18B600060808087600220808082218
:100F1000B98003EA13B34010EA2401FAE43BFBE48E
:100F20003CFC50047C800582BC000EBB000BBA0068
:100F300008E4F5F0F583F58222A2D1E582138CF066
:100F400092F78B838A8222E4F583F58275F080F430
:100F5000A2D11322E4F583F58275F0C0747F227864
:100F600004EC7011E58224F8500AF582E4C9CACB7A
:100F7000FCD8EF22EC7820058220E713D5820122ED
:100F8000C3E933F9EA33FAEB33FBEC33FCD8EA1567
:100F90008222AA82AB83A2F73392D16002D2F7F504
:100FA00082ACF0E58124F9F8E6FD08E6FE0886F05B
:100FB00008E6A2F73392D56002D2F7F583AFF022AC
:100FC000E582C583F582A2D133A2D592D11392D501
:100FD000ECCFFCEBCEFBEACDFA226040F825825044
:100FE0000274FFF582E824F8501ECCCBCAF9E4CC99
:100FF00024F85014CBCAF9E4CB24F8500BCAF9E416
:10100000CA24F8500379002224086010F8C3EC13B6
:10101000FCEB13FBEA13FAE913F9D8F122AA827464
:101020002EC0E07410C0E0C06AC06B8A82220571D5
:10103000E4B57102057222AA8274302AFA24C650DD
:101040000A74072AFA3002034302208A8202101D22
:10105000E582FAC4540FF582C002121037D0027430
:101060000F5AF582021037AA6CAB6DAC6EAD6FAE45
:1010700070757720EE2EFEED235401FF4206EA2A1A
:10108000FAEB33FBEC33FCED33FDC3EE9573400814
:10109000EEC39573FE430201D577D98A6C8B6D8CB4
:1010A0006E8D6F8E70227888E624D075F00AA4FACF
:1010B0007889E624D02AFA78878603BB2D04C3E416
:1010C0009AFA757301C3E464808AF063F08095F046
:1010D00050297577038A0374F62577401C0573E55C
:1010E0007714247CF8E577247CF98704A604772E0E
:1010F0001BEBFA6004057780DE8B02EA30E70D789F
:101100007D8603787EA603787D762E0AE575600AD3
:10111000E57504FB2573F5738005300D02057378C2
:101120007C8603E4BB2D0104FB7006200803300914
:101130000205733006030211ED300757EB600C75A2
:10114000822DC00212101DD002801C30080C758246
:101150002BC00212101DD002800D30090A758220AA
:10116000C00212101DD002787D8604BC2E0C758240
:1011700030C00212101DD0021574AC741574C3E592
:10118000739C4003021231758230C00212101DD0D0
:101190000280E7AC741574C3E5739C500C75822013
:1011A000C00212101DD00280EA787C8604BC2D0C8F
:1011B00075822DC00212101DD002801C30080C75E3
:1011C000822BC00212101DD002800D30090A7582D8
:1011D00020C00212101DD002787D8604BC2E5275EC
:1011E0008230C00212101DD00215748044EB600ED4
:1011F00075822DC00212101DD00215748020300897
:101200000E75822BC00212101DD0021574800F3093
:10121000090C758220C00212101DD0021574787D51
:101220008603BB2E0C758230C00212101DD0021531
:1012300074757701C20FE577247CF88603BB4503FC
:101240000212EEBB2E348A03C3E464808BF063F099
:101250008095F0500F758230C00312101DD0031B13
:101260008B0280E48B02D20FE5757038200D0302EB
:1012700012EE75822E12101D8074300F278A03EB38
:1012800030E71FC3E464808575F063F08095F0500B
:101290000C758230C00312101DD00315750B8B0224
:1012A00080DD8B02300F0EC3E464808575F063F03F
:1012B0008095F05021E577247CF886038B82C0026C
:1012C00012101DD002300F0EE577247CF88603BB88
:1012D0002E02800215751574C3E464808575F06371
:1012E000F08095F04003200F050577021236C3E425
:1012F00064808575F063F08095F0500A7582301235
:10130000101D157580E830060FAA741574EA600880
:1013100075822012101D80F122E5757003300D0DCD
:1013200074072575FAE574C39AF5748006E574248C
:10133000FAF574757700787C8602BA2B0F20080CBA
:10134000787C76202009057577010574200619AA96
:1013500074C3E464808AF063F08095F0500A75826B
:101360002012101D157480E7C20FE577247CF886E3
:1013700002BA00028069BA451F3002027665C3E4F2
:1013800064808575F063F08095F0500A75823012A4
:10139000101D157580E8D20FC3E5779402E433FA87
:1013A0007014EA700EC3E464808575F063F0809574
:1013B000F04003300F16E577247CF886028A82120B
:1013C000101DE57724FD50121575800E7402B57757
:1013D00009300D0675822E12101D057702136A3032
:1013E0000619AA74C3E464808AF063F08095F05013
:1013F0000A75822012101D157480E72285826A8585
:10140000836BE4F571F572AA78AB79AC7A8A828B3A
:10141000838CF0120AD6FD74012AF578E43BF57945
:101420008C7AEDFA70030219A2BA25028003021920
:101430009AC206C207C208C209C20AC20BC20CC2C3
:101440000DC203C204C2057573007574007575FF83
:10145000AB78AC79AD7A8B828C838DF0120AD6FA98
:10146000A3AB82AC838B788C798D7ABA25078A827C
:1014700012101D80928A06BE3000402E8A06EE248D
:10148000C6402774FFB57513E57475F00AA4FEEA2B
:1014900024D02EF57470BFD20780BBE57575F00AB5
:1014A000A4FEEA24D02EF57580ACBA2E0A74FFB5DE
:1014B00075A4757500809F8A06BE6100400E8A067D
:1014C000EE248540075302DFD2028002C202BA2016
:1014D000028075BA2303021557BA2A0302155CBAB3
:1014E0002B02805FBA2D028055BA4202805FBA4358
:1014F000030215A1BA44030216DCBA45030216F62C
:10150000BA46030216F2BA47030216FABA490302B0
:1015100016DCBA4C02803BBA4E030216FEBA4F03E9
:101520000216E3BA5003021675BA53030215C5BA80
:1015300055030216E8BA58030216ED021728D20620
:10154000021456D208021456D209021456D20B02C3
:101550001456D20C021456D20D02145674FFB575EF
:1015600020300B0BE57B14F8887B8674021456E55B
:101570007B24FEF8887B8606088607188E74021482
:1015800056300B0BE57B14F8887B8675021456E504
:101590007B24FEF8887B8606088607188E75021461
:1015A00056300B0AE57B14F8887B8602800FE57BBA
:1015B00024FEF8887B8603088604188B028A821230
:1015C000101D02172DE57B24FDF8887B8603088615
:1015D0000408860518188B6C8C6D8D6E8B828C833D
:1015E0008DF0121B23AB82AC838B7674FFB5750331
:1015F00085767520061DC3E57695745016E574C38F
:101600009576F574AB741574EB6008758220121032
:101610001D80F1856C82856D83856EF0120AD6FB84
:10162000FA6029AB751575C3E464808BF063F080B4
:1016300095F050188A8212101DAB6CAC6DAD6E0B1C
:10164000BB00010C8B6C8C6D8D6E80C72006030275
:10165000172DC3E5769574400302172DE574C395E5
:1016600076F574AB741574EB700302172D75822038
:1016700012101D80EEE57B24FDF8887B860308862A
:101680000408860518188B6C8C6D8D6EE56EFB302A
:10169000E7047A438013EB546060047A50800AEBCD
:1016A00030E6047A4980027A588A82C00212101DFC
:1016B00075823A12101D75823012101D75827812D3
:1016C000101DD002BA4902800BBA50028006856D07
:1016D00082121050856C821210508051D20A75739C
:1016E0000A804A757308804575730A8040757310C7
:1016F000803BD2038037D2048033D205802FE57B34
:1017000024FDF8887B860308860408860518188B54
:101710006C8C6D8D6E8B828C838DF0E5711219BE91
:10172000A3E5721219BE80058A8212101D200306DD
:10173000200403300570E57B24FCF8887B860308D1
:1017400086040886050886061818188B6C8C6D8D23
:101750006E8E6FE56CE56DE56EE56F8B828C838D2B
:10176000F0EE121A0474FFB575037575063005277F
:10177000747F556FFB8B70E570EB2BFB8B70E56E08
:1017800030E70674014570F570E570246840067412
:101790009925704002D2043004061213190214076E
:1017A0001210A6021407E57370030214077B813040
:1017B0000B2BE57B14F8887BE6FC3395E0FDFEFF00
:1017C0008C6C8D6D8E6E8F6F200A5EAC6C7D007E92
:1017D000007F008C6C8D6D8E6E8F6F804C300C1F77
:1017E000E57B24FCF8887B860408860508860608C5
:1017F00086071818188C6C8D6D8E6E8F6F802AE599
:101800007B24FEF8887B860408860518ED3395E076
:10181000FEFF8C6C8D6D8E6E8F6F200A0CAC6CADE4
:101820006D7E007F008E6E8F6F300D43E56C456DD1
:10183000456E456F60397408B5730C758230C0030E
:1018400012101DD00380287410B57323758230C028
:101850000312101DD00330020C758278C0031210E1
:101860001DD003800A758258C00312101DD00330AA
:101870000A25AC6CAD6DAE6EE56FFF30E717C3E4C3
:101880009CFCE49DFDE49EFEE49FFF8C6C8D6D8EC0
:101890006E8F6F8002C20A757600D20E8B00757053
:1018A00000C000121067D000200E0DE570C4FCE6E9
:1018B000FD4CF61888038002A6700576B20EE56C22
:1018C000456D456E456F70D68803E5747003757479
:1018D0000120071A200617E57604FCC39574500E04
:1018E000758220C00312101DD003157480E9300AE0
:1018F0000E75822DC00312101DD00315748024E5CF
:1019000076602030080E75822BC00312101DD003A4
:101910001574800F30090C758220C00312101DD081
:1019200003157420061EAC741574C3E5769C50270D
:101930003007047C3080027C208C82C00312101D92
:10194000D00380E2C3E57695745009E574C39576BB
:10195000F57480037574008B00AB761576EB60220E
:10196000B20E200E0A08E6C4540FFB8B7080078667
:1019700003740F5BF570857082C000121037D000C1
:1019800080D7200603021407AB741574EB700302B2
:10199000140775822012101D80EE8A8212101D021B
:1019A000140785718285728322AA82BA0A08109967
:1019B0000280FB75990D10990280FB8A992220F70D
:1019C0001030F6118883A88220F507F6A883758366
:1019D0000022F280F7F022FCABF0AA83A982749E69
:1019E000F582C2D1EC30E716D2D1E9F42401F9EA4C
:1019F000F43400FAEBF43400FBECF43400FC120F86
:101A00005F020F10C0E0F84582458345F07009F58C
:101A1000F0FBFCFDFE021AD2E823A2F792E0F8A93F
:101A200082AA83D2F7ABF07C007E07C374979840FC
:101A30004074FF2EFE740A89F0A4F985F082740ABE
:101A40008AF0A4FA85F083740A8BF0A4FB7405294C
:101A5000F9EA3582FAEB3583FB740035F0FCC3EC10
:101A600013FCEB13FBEA13FAE913F908EC70EF80AF
:101A7000BAE8C3947FF88B838EF0E4FBFCFDFEFF95
:101A800008C3E933F9EA33FAE58333F583EB3BD452
:101A9000FBEC3CD4FCED3DD4FDEE3ED4FEEF3FD458
:101AA000FF602D05F074052BD4FBE43CD4FCE43D31
:101AB000D4FDE43ED4FEE43FD4FF758204C3EF13AB
:101AC000FFEE13FEED13FDEC13FCEB13FBD582EDE3
:101AD000D8AF787CD0E020E704762B8002762D0802
:101AE0007906E7C4540F4430F608B90603762E0889
:101AF000E7540F4430F60819B902E7764508E5F0D7
:101B000020E704762B8004762DF4040875F00A840F
:101B10004430F608E5F04430F608E4F690007C75B1
:101B2000F04022AA82AB83ACF07D007E008A828BDB
:101B3000838CF0120AD6FFA3AA82AB83EF60070D55
:101B4000BD00EA0E80E78D828E8322000000000037
:00000001FF
