:1000000002002E00000000000000000000000000C0
:100020000000000000000000000000020292758144
:1000300056120110E582600302009A780079007A76
:10004000007B007C007D00EC4D601C88828983E48D
:1000500093A3A882A9838A828B83F0A3AA82AB830D
:100060001CBCFFE31D80E07582007583007C007D71
:1000700000EC4D600AE4F0A31CBCFFF51D80F27596
:1000800082007583007C007D00EC4D600AE4F0A3E3
:100090001CBCFFF51D80F21200E31205F280FE4643
:1000A000726571203D2025352E336620485A2C205C
:1000B000426C7565203D2025352E336620562C2058
:1000C000526564203D2025352E336620562C205263
:1000D0006174696F203D2025352E33660D001B5B52
:1000E000324A0075220075231E752400752500759F
:1000F0002600752700752800752900E4F52AF52BE0
:10010000752C00752D00752E00752F00753003229B
:1001100053D9BF75FF8075EF0643A90343B203753A
:100120009810758D30538EF4438E08858D8B5389CE
:100130000F438920D28ED29943A60343A40175E1CF
:100140000175E24075820022AA82438E407592D0EA
:100150007593FF8592948593957591047B00C3EB0D
:100160009A500BE59130E7FB53917F0B80F075912E
:100170000022AA82AB83BA0004BB0001227582F977
:10018000C002C0031201487582F91201487582F954
:100190001201487582FA120148D003D0021ABAFF40
:1001A000011B80D25389F0438901C28C2275C8009B
:1001B000438E1075CA7875CBEC75CCFF75CDFFD228
:1001C000ADD2CA2275BCF875E88075D10822AA8222
:1001D000851CF005F07401800225E0D5F0FBFBEAF8
:1001E00024FC4033EA2A2A9001EB730201F7020152
:1001F000FF02020702020FEBF452F1EB42D422EBB2
:10020000F452F2EB42D522EBF452F3EB42D622EB5E
:10021000F4FA52F4EB42DF228582BB75BA1FD2ECAE
:1002200020ECFDD2EC20ECFDAABD7B00ADBE7C0035
:10023000EC2AF582ED3BF583221202181206A2AADF
:1002400082AB83ACF0FDC002C003C004C00590DDEA
:100250002F75F05474401206DEAA82AB83ACF0FD19
:10026000E58124FCF581E4C0E0C0E07480C0E07466
:1002700044C0E08A828B838CF0ED120833AA82ABF3
:1002800083ACF0FDE58124FCF5818A828B838CF0C0
:10029000ED22C0E0C0D075D000C2CF0522E52224F7
:1002A0009B5003752200C3E52495229200B392A5CA
:1002B000C3E52595229200B392A2C3E5269522922A
:1002C00000B392A3C3E52795229200B392A4D0D0A5
:1002D000D0E032758A00758C00C28D752900209699
:1002E000FD3096FDD28C309609108D0280F80529DC
:1002F00080F4209609108D0280F8052980F4C28CC4
:10030000852982120781AA82AB83ACF0FDC002C0AE
:1003100003C004C00590000075F08074471206DE2B
:10032000AA82AB83ACF0FDE58124FCF581858C824B
:10033000C002C003C004C005120781AE82AF83A80B
:10034000F0F9C006C007C000C00190000075F08041
:1003500074431206DEAE82AF83A8F0F9E58124FC77
:10036000F581D005D004D003D002C006C007C0007C
:10037000C0018A828B838CF0ED12078CAA82AB833A
:10038000ACF0FDE58124FCF581AE8A7F008E828F82
:1003900083C002C003C004C005120826AE82AF832A
:1003A000A8F0F9D005D004D003D002C006C007C021
:1003B00000C0018A828B838CF0ED12078CAA82AB7D
:1003C00083ACF0FDE58124FCF581C002C003C004CC
:1003D000C0059037BD75F08674341206DEAA82AB74
:1003E00083ACF0FDE58124FCF581C002C003C004AC
:1003F000C00590000075F080743F12083385822C90
:1004000085832D85F02EF52FE58124FCF5812202D0
:1004100002D385823185833285F033E4B53003021F
:1004200005347403B53002800122AA31AB32AC33FB
:100430008A828B838CF0120686FDA3120686FEA3A9
:10044000120686FFA3120686F8C002C003C0047419
:1004500062C0E07410C0E074F8C0E0743EC0E08D8B
:10046000828E838FF0E812081BAD82AE83AFF0F866
:10047000E58124FCF58174ACC0E0741CC0E074DA42
:10048000C0E0743DC0E08D828E838FF0E81206AE2E
:10049000AD82E58124FCF581D004D003D002ED606B
:1004A0000D75250075240085232775260022740408
:1004B0002AFAE43BFB8A828B838CF0120686FAA32D
:1004C000120686FBA3120686FCA3120686FD741B89
:1004D000C0E0742FC0E074CDC0E0743EC0E08A82FA
:1004E0008B838CF0ED12081BAA82AB83ACF0FDE588
:1004F0008124FCF58174ACC0E0741CC0E0745AC067
:10050000E0743DC0E08A828B838CF0ED1206AEAAC7
:1005100082E58124FCF581EA600D852325752400A0
:10052000752700752600228523257524008523273D
:100530007526002275250075240075270075260094
:100540002285823485833585F036AA34AB35AC36C6
:100550008A828B838CF0120686FDA3120686FEA388
:10056000120686FFA3120686F874042AFAE43BFBFF
:100570008A828B838CF0120686F537A3120686F5E5
:1005800038A3120686F539A3120686F53AC005C0CF
:1005900006C007C000C037C038C039C03A8D828E4F
:1005A000838FF0E8120833AA82AB83ACF0F9E581BF
:1005B00024FCF581D000D007D006D005C002C003CE
:1005C000C004C001C037C038C039C03AC005C00639
:1005D000C007C000C02CC02DC02EC02F749FC0E02B
:1005E0007400C0E07480C0E01207FAE58124EDF5E4
:1005F00081221201A41201ADD2AF751C04758201D3
:100600001201CE751C007582021201CE751C077591
:1006100082021201CE1201C474DEC0E07400C0E098
:100620007480C0E01207FA15811581158175820F5B
:10063000120239AA82AB83ACF0FD8A3B8B3C8C3D25
:100640008D3E758204120239AA82AB83ACF0FD8A1A
:100650003F8B408C418D42758208120239AA82ABD1
:1006600083ACF0FD8A438B448C458D4690003B75EE
:10067000F04012041290003B75F0401205419000CA
:100680001412017280A720F71430F6148883A88210
:1006900020F507E6A88375830022E280F7E4932221
:1006A000E022E4AC83AB82FAF9748E02095BFFA806
:1006B000811818120983D2D133E6400730E70B7551
:1006C00082012220E70675820022C2D1120965E963
:1006D0007003F5822230D101B3E433F58222120A8D
:1006E00030BC00030209CFEF60FA30D502B2D1E589
:1006F00083B4FF030209E5E582B4FF030209E5259F
:100700008340072482400B0209CF24831450030244
:1007100009E5F582EA8DF0A4A8F0EA8EF0A428F8A5
:10072000E435F0F9EB8DF0A428E935F0F9E433CAAB
:100730008FF0A429F9EA35F0FAEBF88EF0A429F944
:10074000EA35F0FAE433FBEC8DF0A429F9EA35F050
:10075000FAE43BFBE88FF0A42AFAEB35F0FBE43334
:10076000CCFD8EF0A42AFAEB35F0FBE43CFCED8FD7
:10077000F0A42BFBEC35F0FC20E7031209FD020985
:10078000AEE4AC82FBFAF9748602095B120A307996
:1007900000E583B58202800D5003120A5EE583C333
:1007A0009582120A78E5D0C465D020E117EA2DFAC7
:1007B000EB3EFBEC3FFC50097401120A78EC4480DC
:1007C000FC0209AEC3EA9DFAEB9EFBEC9FFC500FC6
:1007D000C3E499F9E49AFAE49BFBE49CFCB2D112DD
:1007E00009FD0209AE02144785821885831985F038
:1007F0001A85091B9007E5020E9AC008858108E555
:100800000824FBF51BE50824FBF886180886190860
:10081000861A9007E5120E9AD00822A8811818C6E9
:10082000B2E7C602078CAC83AB827A007900748E83
:10083000021465120A3030D502B2D1BF0009BC00E3
:10084000030209F20209E5BC00030209CFE583B403
:10085000FF0BE582B4FF030209F20209CFE582B47F
:10086000FF030209E5C395835007247F400B02096B
:10087000CF24801450030209E5C0E0E4CCCBCAF9D0
:100880008D1C8E1D8F1EEF54F0C4F51F75830685D9
:100890001FF0EB84F582E9C4F9EAC4FAEBC4FBEC7F
:1008A000540FC47803D6FC18EBD6FB18EAD6FA85A9
:1008B00082F0EDA4A8F0FD8582F0EEA428FEE435D8
:1008C000F0F88582F0EFA428FFE435F0F8E99DF90F
:1008D000EA9EFAEB9FFBEC98FCAD1CAE1DAF1E3000
:1008E000E7101582E92DF9EA3EFAEB3FFBE43CFC08
:1008F00080EDC082D58398C3E933F9EA33FAEB334C
:10090000FBEC33FCC3E99DEA9EEB9FEC9400B3E45F
:1009100013F9D002D0E0C44AFAD003D0E0C44BFBB4
:10092000D004D0E0F5F0540FC44CFCD082158230D6
:10093000F40FD3EC13FCEB13FBEA13FAE913F905FC
:1009400082E930E70A74012AFAE43BFBE43CFC024A
:1009500009C6FCABF0AA83A982749EC2D1F58212AB
:1009600009FD0209AE7901AA82E68F82B5821318C9
:10097000E6B5F00E18E6B5830918E68A82B582025C
:10098000790022B4800FE5F0700AE5837006E582F5
:1009900070027F00EFB6801518B6001018B6000B75
:1009A00018B6000608080876002208080822B98050
:1009B00003EA13B34010EA2401FAE43BFBE43CFCF5
:1009C00050047C800582BC000EBB000BBA0008E41A
:1009D000F5F0F583F58222A2D1E582138CF092F72F
:1009E0008B838A8222E4F583F58275F080F4A2D1AC
:1009F0001322E4F583F58275F0C0747F227804EC4D
:100A00007011E58224F8500AF582E4C9CACBFCD8FB
:100A1000EF22EC7820058220E713D5820122C3E97A
:100A200033F9EA33FAEB33FBEC33FCD8EA158222D4
:100A3000AA82AB83A2F73392D16002D2F7F582ACDF
:100A4000F0E58124F9F8E6FD08E6FE0886F008E600
:100A5000A2F73392D56002D2F7F583AFF022E58298
:100A6000C583F582A2D133A2D592D11392D5ECCF12
:100A7000FCEBCEFBEACDFA226040F82582500274EE
:100A8000FFF582E824F8501ECCCBCAF9E4CC24F858
:100A90005014CBCAF9E4CB24F8500BCAF9E4CA24A9
:100AA000F8500379002224086010F8C3EC13FCEB23
:100AB00013FBEA13FAE913F9D8F122AA8274CCC025
:100AC000E0740AC0E0C00AC00B8A82220511E4B5B6
:100AD0001102051222AA8274302AFA24C6500A741E
:100AE000072AFA3001034302208A82020ABBE58208
:100AF000FAC4540FF582C002120AD5D002740F5AFC
:100B0000F582020AD5AA0CAB0DAC0EAD0FAE107576
:100B10001720EE2EFEED235401FF4206EA2AFAEBDF
:100B200033FBEC33FCED33FDC3EE95134008EEC30D
:100B30009513FE430201D517D98A0C8B0D8C0E8DAF
:100B40000F8E10227853E624D075F00AA4FA785458
:100B5000E624D02AFA78528603BB2D04C3E49AFA1D
:100B6000751301C3E464808AF063F08095F0502926
:100B70007517038A0374F62517401C0513E517142F
:100B80002447F8E5172447F98704A604772E1BEBC2
:100B9000FA6004051780DE8B02EA30E70D7848869C
:100BA000037849A6037848762E0AE515600AE5150C
:100BB00004FB2513F5138005300C020513784786D6
:100BC00003E4BB2D0104FB70062007033008020577
:100BD00013300503020C8B300657EB600C75822D29
:100BE000C002120ABBD002801C30070C75822BC0D9
:100BF00002120ABBD002800D30080A758220C002A2
:100C0000120ABBD00278488604BC2E0C758230C014
:100C100002120ABBD0021514AC141514C3E5139CC0
:100C20004003020CCF758230C002120ABBD0028092
:100C3000E7AC141514C3E5139C500C758220C00258
:100C4000120ABBD00280EA78478604BC2D0C75825C
:100C50002DC002120ABBD002801C30070C75822BFB
:100C6000C002120ABBD002800D30080A758220C073
:100C700002120ABBD00278488604BC2E527582301C
:100C8000C002120ABBD00215148044EB600E7582BC
:100C90002DC002120ABBD0021514802030070E7539
:100CA000822BC002120ABBD0021514800F30080C30
:100CB000758220C002120ABBD00215147848860340
:100CC000BB2E0C758230C002120ABBD002151475FF
:100CD0001701C20EE5172447F88603BB4503020D32
:100CE0008CBB2E348A03C3E464808BF063F0809560
:100CF000F0500F758230C003120ABBD0031B8B0269
:100D000080E48B02D20EE5157038200C03020D8CA6
:100D100075822E120ABB8074300E278A03EB30E7EF
:100D20001FC3E464808515F063F08095F0500C7566
:100D30008230C003120ABBD00315150B8B0280DD75
:100D40008B02300E0EC3E464808515F063F080954D
:100D5000F05021E5172447F886038B82C002120A5F
:100D6000BBD002300E0EE5172447F88603BB2E02D7
:100D7000800215151514C3E464808515F063F080B6
:100D800095F04003200E050517020CD4C3E46480DF
:100D90008515F063F08095F0500A758230120ABB19
:100DA000151580E830050FAA141514EA600875823D
:100DB00020120ABB80F122E5157003300C0D740778
:100DC0002515FAE514C39AF5148006E51424FAF5FE
:100DD0001475170078478602BA2B0F20070C784746
:100DE00076202008057517010514200519AA14C3DB
:100DF000E464808AF063F08095F0500A75822012D6
:100E00000ABB151480E7C20EE5172447F88602BA1C
:100E100000028069BA451F3001027665C3E4648030
:100E20008515F063F08095F0500A758230120ABB88
:100E3000151580E8D20EC3E5179402E433FA701456
:100E4000EA700EC3E464808515F063F08095F0408D
:100E500003300E16E5172447F886028A82120ABB71
:100E6000E51724FD50121515800E7402B5170930D0
:100E70000C0675822E120ABB0517020E08300519E2
:100E8000AA14C3E464808AF063F08095F0500A7578
:100E90008220120ABB151480E72285820A85830B03
:100EA000E4F511F512AA18AB19AC1A8A828B838C5F
:100EB000F0120686FD74012AF518E43BF5198C1A28
:100EC000EDFA7003021440BA25028003021438C2FE
:100ED00005C206C207C208C209C20AC20BC20CC2BE
:100EE00002C203C2047513007514007515FFAB1818
:100EF000AC19AD1A8B828C838DF0120686FAA3ABE7
:100F000082AC838B188C198D1ABA25078A82120A33
:100F1000BB80928A06BE3000402E8A06EE24C64070
:100F20002774FFB51513E51475F00AA4FEEA24D062
:100F30002EF51470BFD20680BBE51575F00AA4FE2D
:100F4000EA24D02EF51580ACBA2E0A74FFB515A48C
:100F5000751500809F8A06BE6100400E8A06EE2449
:100F60008540075302DFD2018002C201BA2002800D
:100F700075BA2303020FF5BA2A03020FFABA2B023D
:100F8000805FBA2D028055BA4202805FBA430302E5
:100F9000103FBA440302117ABA4503021194BA46CB
:100FA00003021190BA4703021198BA490302117A59
:100FB000BA4C02803BBA4E0302119CBA4F03021195
:100FC00081BA5003021113BA5303021063BA5503D6
:100FD000021186BA580302118B0211C6D205020E05
:100FE000F4D207020EF4D208020EF4D20A020EF472
:100FF000D20B020EF4D20C020EF474FFB5152030A1
:101000000A0BE51B14F8881B8614020EF4E51B245A
:10101000FEF8881B8606088607188E14020EF43028
:101020000A0BE51B14F8881B8615020EF4E51B2439
:10103000FEF8881B8606088607188E15020EF43007
:101040000A0AE51B14F8881B8602800FE51B24FEA4
:10105000F8881B8603088604188B028A82120ABB52
:101060000211CBE51B24FDF8881B860308860408C3
:10107000860518188B0C8C0D8D0E8B828C838DF051
:101080001215C1AB82AC838B1674FFB515038516A0
:101090001520051DC3E51695145016E514C39516C5
:1010A000F514AB141514EB6008758220120ABB808E
:1010B000F1850C82850D83850EF0120686FBFA60A1
:1010C00029AB151515C3E464808BF063F08095F0AF
:1010D00050188A82120ABBAB0CAC0DAD0E0BBB00D4
:1010E000010C8B0C8C0D8D0E80C72005030211CBDB
:1010F000C3E516951440030211CBE514C39516F50C
:1011000014AB141514EB70030211CB758220120A74
:10111000BB80EEE51B24FDF8881B860308860408C7
:10112000860518188B0C8C0D8D0EE50EFB30E70430
:101130007A438013EB546060047A50800AEB30E607
:10114000047A4980027A588A82C002120ABB7582E8
:101150003A120ABB758230120ABB758278120ABB3A
:10116000D002BA4902800BBA50028006850D821265
:101170000AEE850C82120AEE8051D20975130A809C
:101180004A751308804575130A8040751310803B1B
:10119000D2028037D2038033D204802FE51B24FD96
:1011A000F8881B860308860408860518188B0C8CA3
:1011B0000D8D0E8B828C838DF0E5111215A8A3E5A1
:1011C000121215A880058A82120ABB20020620038B
:1011D00003300470E51B24FCF8881B860308860492
:1011E0000886050886061818188B0C8C0D8D0E8E37
:1011F0000FE50CE50DE50EE50F8B828C838DF0EE8F
:1012000012148974FFB51503751506300427747F11
:10121000550FFB8B10E510EB2BFB8B10E50E30E729
:101220000674014510F510E51024684006749925F0
:10123000104002D203300306120DB7020EA5120BA6
:1012400044020EA5E5137003020EA57B4C300A2B59
:10125000E51B14F8881BE6FC3395E0FDFEFF8C0CC3
:101260008D0D8E0E8F0F20095EAC0C7D007E007FF1
:10127000008C0C8D0D8E0E8F0F804C300B1FE51BDC
:1012800024FCF8881B86040886050886060886075D
:101290001818188C0C8D0D8E0E8F0F802AE51B24CC
:1012A000FEF8881B860408860518ED3395E0FEFFDE
:1012B0008C0C8D0D8E0E8F0F20090CAC0CAD0D7E9D
:1012C000007F008E0E8F0F300C43E50C450D450E50
:1012D000450F60397408B5130C758230C003120ACB
:1012E000BBD00380287410B51323758230C003125D
:1012F0000ABBD00330010C758278C003120ABBD040
:1013000003800A758258C003120ABBD00330092536
:10131000AC0CAD0DAE0EE50FFF30E717C3E49CFC3F
:10132000E49DFDE49EFEE49FFF8C0C8D0D8E0E8FE0
:101330000F8002C209751600D20D8B00751000C017
:1013400000120B05D000200D0DE510C4FCE6FD4C8D
:10135000F61888038002A6100516B20DE50C450D9F
:10136000450E450F70D68803E514700375140120EF
:10137000061A200517E51604FCC39514500E758255
:1013800020C003120ABBD003151480E930090E7582
:10139000822DC003120ABBD00315148024E5166009
:1013A0002030070E75822BC003120ABBD003151420
:1013B000800F30080C758220C003120ABBD00315C1
:1013C0001420051EAC141514C3E5169C50273006D6
:1013D000047C3080027C208C82C003120ABBD003C4
:1013E00080E2C3E51695145009E514C39516F5146B
:1013F00080037514008B00AB161516EB6022B20D3E
:10140000200D0A08E6C4540FFB8B10800786037476
:101410000F5BF510851082C000120AD5D00080D76E
:10142000200503020EA5AB141514EB7003020EA5E4
:10143000758220120ABB80EE8A82120ABB020EA5B8
:1014400085118285128322AA82BA0A081099028025
:10145000FB75990D10990280FB8A9922FCABF0AACA
:1014600083A982749EF582C2D1EC30E716D2D1E90D
:10147000F42401F9EAF43400FAEBF43400FBECF460
:101480003400FC1209FD0209AEC0E0F84582458334
:1014900045F07009F5F0FBFCFDFE021557E823A2AC
:1014A000F792E0F8A982AA83D2F7ABF07C007E071E
:1014B000C3749798404074FF2EFE740A89F0A4F913
:1014C00085F082740A8AF0A4FA85F083740A8BF09E
:1014D000A4FB740529F9EA3582FAEB3583FB740025
:1014E00035F0FCC3EC13FCEB13FBEA13FAE913F938
:1014F00008EC70EF80BAE8C3947FF88B838EF0E439
:10150000FBFCFDFEFF08C3E933F9EA33FAE5833358
:10151000F583EB3BD4FBEC3CD4FCED3DD4FDEE3E3F
:10152000D4FEEF3FD4FF602D05F074052BD4FBE40F
:101530003CD4FCE43DD4FDE43ED4FEE43FD4FF754E
:101540008204C3EF13FFEE13FEED13FDEC13FCEB6F
:1015500013FBD582EDD8AF7847D0E020E704762B97
:101560008002762D087906E7C4540F4430F608B996
:101570000603762E08E7540F4430F60819B902E73F
:10158000764508E5F020E704762B8004762DF404F8
:101590000875F00A844430F608E5F04430F608E4B3
:1015A000F690004775F0402220F71030F61188833E
:1015B000A88220F507F6A88375830022F280F7F051
:1015C00022AA82AB83ACF07D007E008A828B838C62
:1015D000F0120686FFA3AA82AB83EF60070DBD0061
:1015E000EA0E80E78D828E8322000000000000005A
:00000001FF
