:1000000002002E00000000000000000000000000C0
:1000200000000000000000000000000202CC75810A
:100030007512014AE582600302009A780079007A1D
:10004000007B007C007D00EC4D601C88828983E48D
:1000500093A3A882A9838A828B83F0A3AA82AB830D
:100060001CBCFFE31D80E07582007583007C007D71
:1000700000EC4D600AE4F0A31CBCFFF51D80F27596
:1000800082007583007C007D00EC4D600AE4F0A3E3
:100090001CBCFFF51D80F21200E2120AAA80FE537A
:1000A000746F702073696720646574656374656438
:1000B0000A0046726571203D2025352E33662048A2
:1000C0005A2C204D6F6465203D2025642C20526100
:1000D00074696F203D2025352E33660D001B5B3281
:1000E0004A0075220075231E7524007525007526AB
:1000F00000752700752800752900752A00752B00EA
:10010000752C00752D00E4F52EF52F753000753136
:100110000075320075330075340075350075360092
:10012000753700753800753900753A00753B0075F4
:100130003C00753D00753E00753F007540007541FF
:1001400000754200E4F543F5442253D9BF75FF80A2
:1001500075EF0643A90343B203759810758D3053AC
:100160008EF4438E08858D8B53890F438920D28E60
:10017000D29943A60343A40175E10175E24075825B
:100180000022AA82438E407592D07593FF85929487
:100190008593957591047B00C3EB9A500BE59130E4
:1001A000E7FB53917F0B80F075910022AA82AB830D
:1001B000BA0004BB0001227582F9C002C00312011B
:1001C000827582F91201827582F91201827582FAB2
:1001D000120182D003D0021ABAFF011B80D25389C8
:1001E000F0438901C28C2275C800438E1075CA780D
:1001F00075CBEC75CCFF75CDFFD2ADD2CA2275BCE4
:10020000F875E88075D10822AA82851CF005F07483
:1002100001800225E0D5F0FBFBEA24FC4033EA2A0A
:100220002A900225730202310202390202410202BF
:1002300049EBF452F1EB42D422EBF452F2EB42D50B
:1002400022EBF452F3EB42D622EBF4FA52F4EB42F7
:10025000DF228582BB75BA1FD2EC20ECFDD2EC20E8
:10026000ECFDAABD7B00ADBE7C00EC2AF582ED3B27
:10027000F58322120252120B68AA82AB83ACF0FD06
:10028000C002C003C004C00590DD2F75F054744057
:10029000120BD4AA82AB83ACF0FDE58124FCF5817E
:1002A000E4C0E0C0E07480C0E07444C0E08A828BA7
:1002B000838CF0ED120D6BAA82AB83ACF0FDE5816F
:1002C00024FCF5818A828B838CF0ED22C0E0C0D0C3
:1002D00075D000C2CF0522E522249B500375220071
:1002E000C3E52495229200B392A5C3E525952292F9
:1002F00000B392A2C3E52695229200B392A3C3E570
:100300002795229200B392A4D0D0D0E032758A0013
:10031000758C00C28D7529002096FD3096FDD28C1B
:10032000309609108D0280F8052980F42096091076
:100330008D0280F8052980F4C28C852982120C7701
:10034000AA82AB83ACF0FDC002C003C004C005901C
:10035000000075F0807447120BD4AA82AB83ACF016
:10036000FDE58124FCF581858C82C002C003C004B8
:10037000C005120C77AE82AF83A8F0F9C006C007A3
:10038000C000C00190000075F0807443120BD4AE21
:1003900082AF83A8F0F9E58124FCF581D005D00473
:1003A000D003D002C006C007C000C0018A828B8380
:1003B0008CF0ED120C82AA82AB83ACF0FDE58124B7
:1003C000FCF581AE8A7F008E828F83C002C003C09D
:1003D00004C005120D5EAE82AF83A8F0F9D005D03F
:1003E00004D003D002C006C007C000C0018A828BBF
:1003F000838CF0ED120C82AA82AB83ACF0FDE58118
:1004000024FCF581C002C003C004C0059037BD754F
:10041000F0867434120BD4AA82AB83ACF0FDE58174
:1004200024FCF581C002C003C004C0059000007523
:10043000F080743F120D6B85822A85832B85F02C0A
:10044000F52DE58124FCF5812212030D751C207524
:100450001D03854382854483120D11E5828583F057
:1004600045F0600122E540254025E0FA2430F8A659
:100470002A08A62B08A62C08A62D05407404B54012
:10048000037540007A00BA040040030205A9EA2A75
:1004900025E0FB2430F886040886050886060886D1
:1004A00007181818C002C003E4C0E07453C0E07419
:1004B00082C0E07446C0E08C828D838EF0EF120B18
:1004C00074AC82E58124FCF581D003D002EC603C61
:1004D000EB2430F88603088604088605088606188B
:1004E0001818C002E4C0E074F5C0E07484C0E07481
:1004F00046C0E08B828C838DF0EE120BA4AB82E5BC
:100500008124FCF581D002EB60020541EA2A25E056
:10051000FB2430F886040886050886060886071836
:100520001818C002C0037485C0E0749AC0E07468F3
:10053000C0E07446C0E08C828D838EF0EF120B74A5
:10054000AC82E58124FCF581D003D002EC6056EB4F
:100550002430F886030886040886050886061818DD
:1005600018C002747BC0E0744DC0E0746DC0E074CC
:1005700046C0E08B828C838DF0EE120BA4AB82E53B
:100580008124FCF581D002EB601B0542C002749F00
:10059000C0E07400C0E07480C0E0120CF01581155A
:1005A000811581D0020A02048674FE2541500D7522
:1005B0002E03E4F52F75231E754100227404B54205
:1005C00007E4F52EF52FF542228582458583468581
:1005D000F047E4B52E07E4B52F030209F47403B520
:1005E0002E06E4B52F02800D7404B52E07E4B52F56
:1005F000030207F12285454885464985474A8548D3
:1006000082854983854AF0120B4CFDA3120B4CFEE8
:10061000A3120B4CFFA3120B4CF8C005C006C00779
:10062000C000E4C0E0C0E07480C0E0743FC0E08D72
:10063000828E838FF0E8120B74A982E58124FCF589
:1006400081D000D007D006D005E960030206D3743C
:10065000042548F9E43549FAAB4A89828A838BF04C
:10066000120B4CF54FA3120B4CF550A3120B4CF58B
:1006700051A3120B4CF552C005C006C007C000C004
:100680004FC050C051C0528D828E838FF0E8120D42
:100690006B85824B85834C85F04DF54EE58124FCBE
:1006A000F581E4C0E0C0E07480C0E0743FC0E08544
:1006B0004B82854C83854DF0E54E120B74AA82E582
:1006C0008124FCF581D000D007D006D005EA700364
:1006D00002075574042548FAE43549FBAC4A8A827E
:1006E0008B838CF0120B4CFAA3120B4CFBA3120B56
:1006F0004CFCA3120B4CF9C002C003C004C0018D16
:10070000828E838FF0E8120D6BAA82AB83ACF0FD72
:10071000E58124FCF5817466C0E0C0E074A6C0E009
:10072000743FC0E08A828B838CF0ED120B74AA8236
:10073000E58124FCF581EA600FE4F527F526E52341
:1007400025E0F525752400227525007524008523F4
:10075000277526002274CDC0E074CCC0E0748CC034
:10076000E0743FC0E0854F828550838551F0E552AB
:10077000120B74AA82E58124FCF581EA7025C0E0A1
:10078000C0E07480C0E0743FC0E0854B82854C833C
:10079000854DF0E54E120BA4AA82E58124FCF5817B
:1007A000EA6041E4C0E0C0E0C0E0743FC0E0854BD7
:1007B00082854C83854DF0E54E120BA4AA82E5811B
:1007C00024FCF581EA6010E52325E0F52775260075
:1007D00075250075240022852325752400752700C2
:1007E000752600228523257524008523277526007C
:1007F0002285454F854650854751854F82855083D8
:100800008551F0120B4CFDA3120B4CFEA3120B4CA6
:10081000FFA3120B4CF8C005C006C007C000E4C01F
:10082000E0C0E07480C0E0743FC0E08D828E838FB2
:10083000F0E8120B74A982E58124FCF581D000D088
:1008400007D006D005E960030208CF7404254FF9EC
:10085000E43550FAAB5189828A838BF0120B4CF548
:1008600053A3120B4CF554A3120B4CF555A3120BCA
:100870004CF556C005C006C007C000C053C054C0E8
:1008800055C0568D828E838FF0E8120D6B85824B9A
:1008900085834C85F04DF54EE58124FCF581E4C05F
:1008A000E0C0E07480C0E0743FC0E0854B82854CBE
:1008B00083854DF0E54E120B74AA82E58124FCF588
:1008C00081D000D007D006D005EA70030209547425
:1008D00004254FFAE43550FBAC518A828B838CF0AF
:1008E000120B4CFAA3120B4CFBA3120B4CFCA312E1
:1008F0000B4CF9C002C003C004C0018D828E838FEF
:10090000F0E8120D6BAA82AB83ACF0FDE58124FC0C
:10091000F58174CDC0E074CCC0E0748CC0E0743F4D
:10092000C0E08A828B838CF0ED120B74AA82E58181
:1009300024FCF581EA6010E52325E0F52675270003
:100940007524007525002285232475250075260051
:100950007527002274CDC0E074CCC0E0748CC0E078
:10096000743FC0E08553828554838555F0E5561267
:100970000B74AA82E58124FCF581EA7025C0E0C0F1
:10098000E07480C0E0743FC0E0854B82854C838575
:100990004DF0E54E120BA4AA82E58124FCF581EA14
:1009A000604574CDC0E074CCC0E0744CC0E0743FCE
:1009B000C0E0854B82854C83854DF0E54E120BA43B
:1009C000AA82E58124FCF581EA600FE4F526F5278B
:1009D000E52325E0F5247525002275240075250002
:1009E0008523267527002285232475250085232647
:1009F00075270022752500752400752700752600CF
:100A00002285825785835885F059AA57AB58AC592F
:100A10008A828B838CF0120B4CFDA3120B4CFEA32D
:100A2000120B4CFFA3120B4CF874042AFAE43BFBA4
:100A30008A828B838CF0120B4CFAA3120B4CFBA313
:100A4000120B4CFCA3120B4CF9C005C006C007C02A
:100A500000C002C003C004C0018D828E838FF0E805
:100A6000120D6BAA82AB83ACF0F9E58124FCF58111
:100A7000D000D007D006D005C002C003C004C0011A
:100A8000C005C006C007C000C02EC02FC02AC02BA2
:100A9000C02CC02D74B2C0E07400C0E07480C0E00F
:100AA000120CF0E58124EFF581221201DE1201E73C
:100AB000D2AF751C07758201120208751C00758281
:100AC00002120208751C077582021202081201FE4A
:100AD00074DDC0E07400C0E07480C0E0120CF0155A
:100AE000811581158112044975820F120273AA8241
:100AF000AB83ACF0FD8A5A8B5B8C5C8D5D75820795
:100B0000120273AA82AB83ACF0FD8A5E8B5F8C60AD
:100B10008D61758208120273AA82AB83ACF0FD8AE4
:100B2000628B638C648D6590005A75F0401205C924
:100B300090005A75F040120A019000141201AC7432
:100B4000142543F543E43544F544809920F71430E7
:100B5000F6148883A88220F507E6A883758300220F
:100B6000E280F7E49322E022E4AC83AB82FAF974EA
:100B70008E020E93FFA8811818120EBBD2D133E655
:100B8000400730E70B7582012220E70675820022BC
:100B9000C2D1120E9DE97003F5822230D101B3E477
:100BA00033F58222FFA8811818120EBBD2D133E68A
:100BB000400730E70B7582002220E706758201228C
:100BC000C2D1120E9DE97003F5822220D101B3E457
:100BD00033F58222120F68BC0003020F07EF60FAA0
:100BE00030D502B2D1E583B4FF03020F1DE582B414
:100BF000FF03020F1D258340072482400B020F07CD
:100C00002483145003020F1DF582EA8DF0A4A8F08E
:100C1000EA8EF0A428F8E435F0F9EB8DF0A428E989
:100C200035F0F9E433CA8FF0A429F9EA35F0FAEB8C
:100C3000F88EF0A429F9EA35F0FAE433FBEC8DF0F4
:100C4000A429F9EA35F0FAE43BFBE88FF0A42AFA8C
:100C5000EB35F0FBE433CCFD8EF0A42AFAEB35F053
:100C6000FBE43CFCED8FF0A42BFBEC35F0FC20E723
:100C700003120F35020EE6E4AC82FBFAF974860229
:100C80000E93120F687900E583B58202800D500340
:100C9000120F96E583C39582120FB0E5D0C465D0DC
:100CA00020E117EA2DFAEB3EFBEC3FFC5009740102
:100CB000120FB0EC4480FC020EE6C3EA9DFAEB9EF4
:100CC000FBEC9FFC500FC3E499F9E49AFAE49BFB18
:100CD000E49CFCB2D1120F35020EE602197F858228
:100CE0001885831985F01A85091B900CDB0213D235
:100CF000C008858108E50824FBF51BE50824FBF8FE
:100D0000861808861908861A900CDB1213D2D008B0
:100D100022E51C451D60467A01E51C25E0F51CE531
:100D20001D334012F51DE582951CE583951D40039A
:100D30000A80E6C3E51D13F51DE51C13F51CC3E58C
:100D400082951CF5F0E583951D4005F58385F082BD
:100D5000C3E51D13F51DE51C13F51CDAE122AC8378
:100D6000AB827A007900748E02199D120F6830D51B
:100D700002B2D1BF0009BC0003020F2A020F1DBC42
:100D80000003020F07E583B4FF0BE582B4FF030203
:100D90000F2A020F07E582B4FF03020F1DC39583DC
:100DA0005007247F400B020F072480145003020FCA
:100DB0001DC0E0E4CCCBCAF98D1C8E1D8F1EEF54F4
:100DC000F0C4F51F758306851FF0EB84F582E9C436
:100DD000F9EAC4FAEBC4FBEC540FC47803D6FC1850
:100DE000EBD6FB18EAD6FA8582F0EDA4A8F0FD85D3
:100DF00082F0EEA428FEE435F0F88582F0EFA42816
:100E0000FFE435F0F8E99DF9EA9EFAEB9FFBEC98D8
:100E1000FCAD1CAE1DAF1E30E7101582E92DF9EABE
:100E20003EFAEB3FFBE43CFC80EDC082D58398C3E7
:100E3000E933F9EA33FAEB33FBEC33FCC3E99DEA1F
:100E40009EEB9FEC9400B3E413F9D002D0E0C44AC7
:100E5000FAD003D0E0C44BFBD004D0E0F5F0540F3F
:100E6000C44CFCD082158230F40FD3EC13FCEB138E
:100E7000FBEA13FAE913F90582E930E70A74012A5B
:100E8000FAE43BFBE43CFC020EFEFCABF0AA83A9B7
:100E900082749EC2D1F582120F35020EE67901AA44
:100EA00082E68F82B5821318E6B5F00E18E6B58398
:100EB0000918E68A82B58202790022B4800FE5F033
:100EC000700AE5837006E58270027F00EFB6801538
:100ED00018B6001018B6000B18B6000608080876F9
:100EE000002208080822B98003EA13B34010EA245C
:100EF00001FAE43BFBE43CFC50047C800582BC002E
:100F00000EBB000BBA0008E4F5F0F583F58222A2CF
:100F1000D1E582138CF092F78B838A8222E4F583E9
:100F2000F58275F080F4A2D11322E4F583F5827581
:100F3000F0C0747F227804EC7011E58224F8500A26
:100F4000F582E4C9CACBFCD8EF22EC7820058220D8
:100F5000E713D5820122C3E933F9EA33FAEB33FB15
:100F6000EC33FCD8EA158222AA82AB83A2F7339233
:100F7000D16002D2F7F582ACF0E58124F9F8E6FD04
:100F800008E6FE0886F008E6A2F73392D56002D2A2
:100F9000F7F583AFF022E582C583F582A2D133A2B3
:100FA000D592D11392D5ECCFFCEBCEFBEACDFA2251
:100FB0006040F82582500274FFF582E824F8501E44
:100FC000CCCBCAF9E4CC24F85014CBCAF9E4CB2436
:100FD000F8500BCAF9E4CA24F85003790022240817
:100FE0006010F8C3EC13FCEB13FBEA13FAE913F9F6
:100FF000D8F122AA827404C0E07410C0E0C00AC014
:101000000B8A82220511E4B51102051222AA82740C
:10101000302AFA24C6500A74072AFA300103430220
:10102000208A82020FF3E582FAC4540FF582C002CF
:1010300012100DD002740F5AF58202100DAA0CABDB
:101040000DAC0EAD0FAE10751720EE2EFEED235435
:1010500001FF4206EA2AFAEB33FBEC33FCED33FDE9
:10106000C3EE95134008EEC39513FE430201D51756
:10107000D98A0C8B0D8C0E8D0F8E10227872E6247F
:10108000D075F00AA4FA7873E624D02AFA7871862B
:1010900003BB2D04C3E49AFA751301C3E464808A88
:1010A000F063F08095F050297517038A0374F625D4
:1010B00017401C0513E517142466F8E5172466F994
:1010C0008704A604772E1BEBFA6004051780DE8BDD
:1010D00002EA30E70D786786037868A603786776BA
:1010E0002E0AE515600AE51504FB2513F5138005A6
:1010F000300C02051378668603E4BB2D0104FB70F7
:101100000620070330080205133005030211C3301F
:101110000657EB600C75822DC002120FF3D00280CF
:101120001C30070C75822BC002120FF3D002800D09
:1011300030080A758220C002120FF3D00278678649
:1011400004BC2E0C758230C002120FF3D0021514AD
:10115000AC141514C3E5139C4003021207758230CA
:10116000C002120FF3D00280E7AC141514C3E513CC
:101170009C500C758220C002120FF3D00280EA78D6
:10118000668604BC2D0C75822DC002120FF3D002AE
:10119000801C30070C75822BC002120FF3D0028026
:1011A0000D30080A758220C002120FF3D002786752
:1011B0008604BC2E52758230C002120FF3D0021585
:1011C000148044EB600E75822DC002120FF3D00222
:1011D0001514802030070E75822BC002120FF3D039
:1011E000021514800F30080C758220C002120FF314
:1011F000D002151478678603BB2E0C758230C002AE
:10120000120FF3D0021514751701C20EE5172466EC
:10121000F88603BB45030212C4BB2E348A03C3E421
:1012200064808BF063F08095F0500F758230C003BE
:10123000120FF3D0031B8B0280E48B02D20EE51554
:101240007038200C030212C475822E120FF38074C2
:10125000300E278A03EB30E71FC3E464808515F066
:1012600063F08095F0500C758230C003120FF3D0FC
:101270000315150B8B0280DD8B02300E0EC3E46468
:10128000808515F063F08095F05021E5172466F80D
:1012900086038B82C002120FF3D002300E0EE517C8
:1012A0002466F88603BB2E02800215151514C3E4CC
:1012B00064808515F063F08095F04003200E0505ED
:1012C0001702120CC3E464808515F063F08095F07A
:1012D000500A758230120FF3151580E830050FAAF9
:1012E000141514EA6008758220120FF380F122E5CC
:1012F000157003300C0D74072515FAE514C39AF523
:10130000148006E51424FAF5147517007866860231
:10131000BA2B0F20070C7866762020080575170178
:101320000514200519AA14C3E464808AF063F080D0
:1013300095F0500A758220120FF3151480E7C20E43
:10134000E5172466F88602BA00028069BA451F30A4
:1013500001027665C3E464808515F063F08095F042
:10136000500A758230120FF3151580E8D20EC3E5CE
:10137000179402E433FA7014EA700EC3E4648085B3
:1013800015F063F08095F04003300E16E5172466E3
:10139000F886028A82120FF3E51724FD5012151504
:1013A000800E7402B51709300C0675822E120FF3E9
:1013B0000517021340300519AA14C3E464808AF0AB
:1013C00063F08095F0500A758220120FF315148097
:1013D000E72285820A85830BE4F511F512AA18AB82
:1013E00019AC1A8A828B838CF0120B4CFD74012A83
:1013F000F518E43BF5198C1AEDFA7003021978BA66
:1014000025028003021970C205C206C207C208C2C3
:1014100009C20AC20BC20CC202C203C20475130085
:101420007514007515FFAB18AC19AD1A8B828C833F
:101430008DF0120B4CFAA3AB82AC838B188C198DF8
:101440001ABA25078A82120FF380928A06BE3000EC
:10145000402E8A06EE24C6402774FFB51513E51406
:1014600075F00AA4FEEA24D02EF51470BFD20680CF
:10147000BBE51575F00AA4FEEA24D02EF51580AC64
:10148000BA2E0A74FFB515A4751500809F8A06BE92
:101490006100400E8A06EE248540075302DFD20128
:1014A0008002C201BA20028075BA230302152DBA48
:1014B0002A03021532BA2B02805FBA2D028055BA78
:1014C0004202805FBA4303021577BA44030216B2A0
:1014D000BA45030216CCBA46030216C8BA4703023D
:1014E00016D0BA49030216B2BA4C02803BBA4E0378
:1014F0000216D4BA4F030216B9BA500302164BBAF9
:10150000530302159BBA55030216BEBA58030216BE
:10151000C30216FED20502142CD20702142CD208E4
:1015200002142CD20A02142CD20B02142CD20C025C
:10153000142C74FFB51520300A0BE51B14F8881B1A
:10154000861402142CE51B24FEF8881B86060886E8
:1015500007188E1402142C300A0BE51B14F8881B94
:10156000861502142CE51B24FEF8881B86060886C7
:1015700007188E1502142C300A0AE51B14F8881B74
:101580008602800FE51B24FEF8881B86030886046C
:10159000188B028A82120FF3021703E51B24FDF851
:1015A000881B860308860408860518188B0C8C0D8A
:1015B0008D0E8B828C838DF0121AF9AB82AC838BEB
:1015C0001674FFB5150385161520051DC3E5169580
:1015D000145016E514C39516F514AB141514EB60EE
:1015E00008758220120FF380F1850C82850D8385AA
:1015F0000EF0120B4CFBFA6029AB151515C3E46411
:10160000808BF063F08095F050188A82120FF3AB54
:101610000CAC0DAD0E0BBB00010C8B0C8C0D8D0EAC
:1016200080C7200503021703C3E516951440030283
:101630001703E514C39516F514AB141514EB7003DA
:10164000021703758220120FF380EEE51B24FDF8CC
:10165000881B860308860408860518188B0C8C0DD9
:101660008D0EE50EFB30E7047A438013EB54606087
:10167000047A50800AEB30E6047A4980027A588A6C
:1016800082C002120FF375823A120FF37582301284
:101690000FF3758278120FF3D002BA4902800BBAA9
:1016A00050028006850D82121026850C82121026AB
:1016B0008051D20975130A804A7513088045751345
:1016C0000A8040751310803BD2028037D2038033EA
:1016D000D204802FE51B24FDF8881B8603088604AE
:1016E00008860518188B0C8C0D8D0E8B828C838DC3
:1016F000F0E511121AE0A3E512121AE080058A82C1
:10170000120FF3200206200303300470E51B24FCB3
:10171000F8881B86030886040886050886061818BC
:10172000188B0C8C0D8D0E8E0FE50CE50DE50EE57E
:101730000F8B828C838DF0EE1219C174FFB51503E7
:10174000751506300427747F550FFB8B10E510EBE1
:101750002BFB8B10E50E30E70674014510F510E504
:101760001024684006749925104002D20330030605
:101770001212EF0213DD12107C0213DDE513700369
:101780000213DD7B6B300A2BE51B14F8881BE6FC8B
:101790003395E0FDFEFF8C0C8D0D8E0E8F0F200912
:1017A0005EAC0C7D007E007F008C0C8D0D8E0E8F4C
:1017B0000F804C300B1FE51B24FCF8881B860408A7
:1017C00086050886060886071818188C0C8D0D8E5D
:1017D0000E8F0F802AE51B24FEF8881B86040886DE
:1017E0000518ED3395E0FEFF8C0C8D0D8E0E8F0FDE
:1017F00020090CAC0CAD0D7E007F008E0E8F0F30DB
:101800000C43E50C450D450E450F60397408B513C2
:101810000C758230C003120FF3D00380287410B50A
:101820001323758230C003120FF3D00330010C75FF
:101830008278C003120FF3D003800A758258C00368
:10184000120FF3D003300925AC0CAD0DAE0EE50F31
:10185000FF30E717C3E49CFCE49DFDE49EFEE49F9B
:10186000FF8C0C8D0D8E0E8F0F8002C20975160035
:10187000D20D8B00751000C00012103DD000200D5D
:101880000DE510C4FCE6FD4CF61888038002A61096
:101890000516B20DE50C450D450E450F70D68803B3
:1018A000E514700375140120061A200517E51604C7
:1018B000FCC39514500E758220C003120FF3D003A1
:1018C000151480E930090E75822DC003120FF3D074
:1018D0000315148024E516602030070E75822BC096
:1018E00003120FF3D0031514800F30080C758220FB
:1018F000C003120FF3D003151420051EAC141514E9
:10190000C3E5169C50273006047C3080027C208C76
:1019100082C003120FF3D00380E2C3E51695145082
:1019200009E514C39516F51480037514008B00ABFC
:10193000161516EB6022B20D200D0A08E6C4540FEE
:10194000FB8B1080078603740F5BF510851082C037
:101950000012100DD00080D72005030213DDAB1458
:101960001514EB70030213DD758220120FF380EE65
:101970008A82120FF30213DD85118285128322AA57
:1019800082BA0A0810990280FB75990D109902809D
:10199000FB8A9922FCABF0AA83A982749EF582C2CD
:1019A000D1EC30E716D2D1E9F42401F9EAF434009D
:1019B000FAEBF43400FBECF43400FC120F35020EA9
:1019C000E6C0E0F84582458345F07009F5F0FBFC80
:1019D000FDFE021A8FE823A2F792E0F8A982AA83FB
:1019E000D2F7ABF07C007E07C3749798404074FF39
:1019F0002EFE740A89F0A4F985F082740A8AF0A494
:101A0000FA85F083740A8BF0A4FB740529F9EA3592
:101A100082FAEB3583FB740035F0FCC3EC13FCEB6E
:101A200013FBEA13FAE913F908EC70EF80BAE8C384
:101A3000947FF88B838EF0E4FBFCFDFEFF08C3E986
:101A400033F9EA33FAE58333F583EB3BD4FBEC3C23
:101A5000D4FCED3DD4FDEE3ED4FEEF3FD4FF602D2F
:101A600005F074052BD4FBE43CD4FCE43DD4FDE448
:101A70003ED4FEE43FD4FF758204C3EF13FFEE13A0
:101A8000FEED13FDEC13FCEB13FBD582EDD8AF7824
:101A900066D0E020E704762B8002762D087906E7F1
:101AA000C4540F4430F608B90603762E08E7540FE5
:101AB0004430F60819B902E7764508E5F020E70456
:101AC000762B8004762DF4040875F00A844430F6F1
:101AD00008E5F04430F608E4F690006675F0402220
:101AE00020F71030F6118883A88220F507F6A88326
:101AF00075830022F280F7F022AA82AB83ACF07DDE
:101B0000007E008A828B838CF0120B4CFFA3AA828A
:101B1000AB83EF60070DBD00EA0E80E78D828E83F8
:101B20002200000000000000000000000000000093
:00000001FF
