:1000000002002E00000000000000000000000000C0
:1000200000000000000000000000000202E47581F2
:100030004B120162E582600302009A780079007A2F
:10004000007B007C007D00EC4D601C88828983E48D
:1000500093A3A882A9838A828B83F0A3AA82AB830D
:100060001CBCFFE31D80E07582007583007C007D71
:1000700000EC4D600AE4F0A31CBCFFF51D80F27596
:1000800082007583007C007D00EC4D600AE4F0A3E3
:100090001CBCFFF51D80F212011412051A80FE66C9
:1000A00072657175656E6379203D20256620487AFA
:1000B0000A004C65667428626C75652920696E6457
:1000C00020766F6C74616765203D20256620560A96
:1000D000005269676874287265642920696E64201B
:1000E000766F6C74616765203D20256620560A0096
:1000F00046726F6E7420696E647563746F722076D9
:100100006F6C74616765203D20256620560A001BD0
:100110005B324A0075220075236475240075250042
:10012000752600752700752800752900E4F52AF565
:100130002B752C00752D00752E00752F0075300065
:1001400075310075320075330075340075350075F2
:100150003600753700753800753900753A00753B03
:10016000002253D9BF75FF8075EF0643A90343B240
:1001700003759810758D30538EF4438E08858D8BE2
:1001800053890F438920D28ED29943A60343A410EA
:1001900075E10175E24075820022AA82438E4075A6
:1001A00092D07593FF8592948593957591047B0009
:1001B000C3EB9A500BE59130E7FB53917F0B80F036
:1001C00075910022AA82AB83BA0004BB000122759C
:1001D00082F9C002C00312019A7582F912019A7560
:1001E00082F912019A7582FA12019AD003D0021A8A
:1001F000BAFF011B80D25389F0438901C28C22755A
:10020000C800438E1075CA7875CBEC75CCFF75CDE0
:10021000FFD2ADD2CA2275BCF875E88075D108222C
:10022000AA82851CF005F07401800225E0D5F0FB60
:10023000FBEA24FC4033EA2A2A90023D7302024979
:10024000020251020259020261EBF452F1EB42D474
:1002500022EBF452F2EB42D522EBF452F3EB42D60E
:1002600022EBF4FA52F4EB42DF228582BB75BA1F0F
:10027000D2EC20ECFDD2EC20ECFDAABD7B00ADBEA3
:100280007C00EC2AF582ED3BF5832212026A12050E
:1002900069AA82AB83ACF0FDC002C003C004C005F4
:1002A0009020C575F0587440120575AA82AB83ACD6
:1002B000F0FDE58124FCF581E4C0E0C0E07480C07D
:1002C000E07444C0E08A828B838CF0ED1206BFAAF2
:1002D00082AB83ACF0FDE58124FCF5818A828B83BF
:1002E0008CF0ED22C0E0C0D075D000C2CF0522E571
:1002F00022249B5003752200C3E52495229200B36B
:1003000092A2C3E52595229200B392A5C3E5269556
:10031000229200B392A4C3E52795229200B392A340
:10032000D0D0D0E032758A00758C00C28D7529005E
:100330002096FD3096FDD28C309609108D0280F803
:10034000052980F4209609108D0280F8052980F493
:10035000C28C852982120618AA82AB83ACF0FDC03C
:1003600002C003C004C00590000075F080744712FD
:100370000575AA82AB83ACF0FDE58124FCF581858F
:100380008C82C002C003C004C005120618AE82AF42
:1003900083A8F0F9C006C007C000C0019000007536
:1003A000F0807443120575AE82AF83A8F0F9E58141
:1003B00024FCF581D005D004D003D002C006C007CC
:1003C000C000C0018A828B838CF0ED120623AA82C2
:1003D000AB83ACF0FDE58124FCF581AE8A7F008E15
:1003E000828F83C002C003C004C0051206B2AE8271
:1003F000AF83A8F0F9D005D004D003D002C006C066
:1004000007C000C0018A828B838CF0ED120623AAFC
:1004100082AB83ACF0FDE58124FCF581C002C00312
:10042000C004C0059037BD75F0867434120575AAF6
:1004300082AB83ACF0FDE58124FCF581C002C003F2
:10044000C004C00590000075F080743F1206BF859F
:10045000822C85832D85F02EF52FE58124FCF581F6
:1004600022020325C02CC02DC02EC02F749FC0E0D7
:100470007400C0E07480C0E0120691E58124F9F5B3
:1004800081C030C031C032C03374B2C0E07400C02B
:10049000E07480C0E0120691E58124F9F581C03452
:1004A000C035C036C03774D1C0E07400C0E074807D
:1004B000C0E0120691E58124F9F581C038C039C049
:1004C0003AC03B74F0C0E07400C0E07480C0E01239
:1004D0000691E58124F9F5812275820F12028B8540
:1004E000823085833185F032F53375820712028BB5
:1004F00085823485833585F036F53775820812029A
:100500008B85823885833985F03AF53B2285232413
:10051000752500852326752700221201F61201FF9A
:10052000D2AF752800751C07758201120220751C58
:1005300000758202120220751C07758202120220C9
:10054000120216740FC0E07401C0E07480C0E012A3
:1005500006911581158115811204611204D91204C6
:10056000649000641201C480EFE4AC83AB82FAF9BA
:10057000748E0207E7120873BC0003020812EF60D2
:10058000FA30D502B2D1E583B4FF03020828E58230
:10059000B4FF03020828258340072482400B020889
:1005A000122483145003020828F582EA8DF0A4A8CF
:1005B000F0EA8EF0A428F8E435F0F9EB8DF0A428E9
:1005C000E935F0F9E433CA8FF0A429F9EA35F0FAF5
:1005D000EBF88EF0A429F9EA35F0FAE433FBEC8D60
:1005E000F0A429F9EA35F0FAE43BFBE88FF0A42AFD
:1005F000FAEB35F0FBE433CCFD8EF0A42AFAEB35B0
:10060000F0FBE43CFCED8FF0A42BFBEC35F0FC2080
:10061000E7031208400207F1E4AC82FBFAF97486A2
:100620000207E71208737900E583B58202800D5056
:10063000031208A1E583C395821208BBE5D0C46507
:10064000D020E117EA2DFAEB3EFBEC3FFC50097499
:10065000011208BBEC4480FC0207F1C3EA9DFAEBEF
:100660009EFBEC9FFC500FC3E499F9E49AFAE49BDB
:10067000FBE49CFCB2D11208400207F102128A8509
:10068000821885831985F01A85091B90067C020C57
:10069000DDC008858108E50824FBF51BE50824FB7F
:1006A000F8861808861908861A90067C120CDDD088
:1006B0000822AC83AB827A007900748E0212A812F1
:1006C000087330D502B2D1BF0009BC00030208355F
:1006D000020828BC0003020812E583B4FF0BE58280
:1006E000B4FF03020835020812E582B4FF030208D2
:1006F00028C395835007247F400B020812248014DE
:100700005003020828C0E0E4CCCBCAF98D1C8E1D32
:100710008F1EEF54F0C4F51F758306851FF0EB8420
:10072000F582E9C4F9EAC4FAEBC4FBEC540FC478CF
:1007300003D6FC18EBD6FB18EAD6FA8582F0EDA4B6
:10074000A8F0FD8582F0EEA428FEE435F0F885825D
:10075000F0EFA428FFE435F0F8E99DF9EA9EFAEB02
:100760009FFBEC98FCAD1CAE1DAF1E30E710158250
:10077000E92DF9EA3EFAEB3FFBE43CFC80EDC08258
:10078000D58398C3E933F9EA33FAEB33FBEC33FC56
:10079000C3E99DEA9EEB9FEC9400B3E413F9D00209
:1007A000D0E0C44AFAD003D0E0C44BFBD004D0E080
:1007B000F5F0540FC44CFCD082158230F40FD3EC0A
:1007C00013FCEB13FBEA13FAE913F90582E930E7AE
:1007D0000A74012AFAE43BFBE43CFC020809FCAB86
:1007E000F0AA83A982749EC2D1F582120840020742
:1007F000F1B98003EA13B34010EA2401FAE43BFBA9
:10080000E43CFC50047C800582BC000EBB000BBAAB
:100810000008E4F5F0F583F58222A2D1E582138C7D
:10082000F092F78B838A8222E4F583F58275F0805B
:10083000F4A2D11322E4F583F58275F0C0747F220F
:100840007804EC7011E58224F8500AF582E4C9CAF4
:10085000CBFCD8EF22EC7820058220E713D582016B
:1008600022C3E933F9EA33FAEB33FBEC33FCD8EA81
:10087000158222AA82AB83A2F73392D16002D2F70B
:10088000F582ACF0E58124F9F8E6FD08E6FE08867D
:10089000F008E6A2F73392D56002D2F7F583AFF005
:1008A00022E582C583F582A2D133A2D592D11392DB
:1008B000D5ECCFFCEBCEFBEACDFA226040F82582E6
:1008C000500274FFF582E824F8501ECCCBCAF9E43C
:1008D000CC24F85014CBCAF9E4CB24F8500BCAF955
:1008E000E4CA24F8500379002224086010F8C3EC0D
:1008F00013FCEB13FBEA13FAE913F9D8F122AA82ED
:10090000740FC0E07409C0E0C00AC00B8A822205DF
:1009100011E4B51102051222AA8274302AFA24C603
:10092000500A74072AFA3001034302208A8202081F
:10093000FEE582FAC4540FF582C002120918D002F3
:10094000740F5AF582020918AA0CAB0DAC0EAD0F4C
:10095000AE10751720EE2EFEED235401FF4206EA7D
:100960002AFAEB33FBEC33FCED33FDC3EE95134079
:1009700008EEC39513FE430201D517D98A0C8B0DDF
:100980008C0E8D0F8E10227848E624D075F00AA4C4
:10099000FA7849E624D02AFA78478603BB2D04C3A7
:1009A000E49AFA751301C3E464808AF063F08095D9
:1009B000F050297517038A0374F62517401C051398
:1009C000E51714243CF8E517243CF98704A60477BE
:1009D0002E1BEBFA6004051780DE8B02EA30E70D70
:1009E000783D8603783EA603783D762E0AE51560AD
:1009F0000AE51504FB2513F5138005300C020513D9
:100A0000783C8603E4BB2D0104FB7006200703300D
:100A100008020513300503020ACE300657EB600CBE
:100A200075822DC0021208FED002801C30070C75A2
:100A3000822BC0021208FED002800D30080A758297
:100A400020C0021208FED002783D8604BC2E0C7530
:100A50008230C0021208FED0021514AC141514C363
:100A6000E5139C4003020B12758230C0021208FE8F
:100A7000D00280E7AC141514C3E5139C500C7582AA
:100A800020C0021208FED00280EA783C8604BC2D09
:100A90000C75822DC0021208FED002801C30070C9B
:100AA00075822BC0021208FED002800D30080A7534
:100AB0008220C0021208FED002783D8604BC2E526D
:100AC000758230C0021208FED00215148044EB601B
:100AD0000E75822DC0021208FED00215148020303F
:100AE000070E75822BC0021208FED0021514800F6B
:100AF00030080C758220C0021208FED0021514784E
:100B00003D8603BB2E0C758230C0021208FED00257
:100B10001514751701C20EE517243CF88603BB4572
:100B200003020BCFBB2E348A03C3E464808BF063D3
:100B3000F08095F0500F758230C0031208FED0038C
:100B40001B8B0280E48B02D20EE5157038200C035B
:100B5000020BCF75822E1208FE8074300E278A0396
:100B6000EB30E71FC3E464808515F063F08095F0F7
:100B7000500C758230C0031208FED00315150B8B84
:100B80000280DD8B02300E0EC3E464808515F063B5
:100B9000F08095F05021E517243CF886038B82C045
:100BA000021208FED002300E0EE517243CF8860330
:100BB000BB2E02800215151514C3E464808515F060
:100BC00063F08095F04003200E050517020B17C354
:100BD000E464808515F063F08095F0500A758230EA
:100BE0001208FE151580E830050FAA141514EA60E6
:100BF000087582201208FE80F122E5157003300C82
:100C00000D74072515FAE514C39AF5148006E5144A
:100C100024FAF514751700783C8602BA2B0F2007CA
:100C20000C783C762020080575170105142005195D
:100C3000AA14C3E464808AF063F08095F0500A75CA
:100C400082201208FE151480E7C20EE517243CF836
:100C50008602BA00028069BA451F3001027665C378
:100C6000E464808515F063F08095F0500A75823059
:100C70001208FE151580E8D20EC3E5179402E4337E
:100C8000FA7014EA700EC3E464808515F063F08096
:100C900095F04003300E16E517243CF886028A8250
:100CA0001208FEE51724FD50121515800E7402B5CA
:100CB0001709300C0675822E1208FE0517020C4B20
:100CC000300519AA14C3E464808AF063F08095F0BB
:100CD000500A7582201208FE151480E72285820AC8
:100CE00085830BE4F511F512AA18AB19AC1A8A82A8
:100CF0008B838CF01212CCFD74012AF518E43BF5BD
:100D0000198C1AEDFA7003021283BA2502800302CD
:100D1000127BC205C206C207C208C209C20AC20BC0
:100D2000C20CC202C203C20475130075140075150B
:100D3000FFAB18AC19AD1A8B828C838DF01212CCDC
:100D4000FAA3AB82AC838B188C198D1ABA25078A4B
:100D5000821208FE80928A06BE3000402E8A06EE7D
:100D600024C6402774FFB51513E51475F00AA4FED8
:100D7000EA24D02EF51470BFD20680BBE51575F0BD
:100D80000AA4FEEA24D02EF51580ACBA2E0A74FF10
:100D9000B515A4751500809F8A06BE6100400E8AB5
:100DA00006EE248540075302DFD2018002C201BA59
:100DB00020028075BA2303020E38BA2A03020E3DC0
:100DC000BA2B02805FBA2D028055BA4202805FBA08
:100DD0004303020E82BA4403020FBDBA4503020F59
:100DE000D7BA4603020FD3BA4703020FDBBA49034F
:100DF000020FBDBA4C02803BBA4E03020FDFBA4F5E
:100E000003020FC4BA5003020F56BA5303020EA6D0
:100E1000BA5503020FC9BA5803020FCE021009D205
:100E200005020D37D207020D37D208020D37D20A5C
:100E3000020D37D20B020D37D20C020D3774FFB5FD
:100E40001520300A0BE51B14F8881B8614020D3799
:100E5000E51B24FEF8881B8606088607188E1402F8
:100E60000D37300A0BE51B14F8881B8615020D3769
:100E7000E51B24FEF8881B8606088607188E1502D7
:100E80000D37300A0AE51B14F8881B8602800FE52F
:100E90001B24FEF8881B8603088604188B028A82AE
:100EA0001208FE02100EE51B24FDF8881B860308BD
:100EB000860408860518188B0C8C0D8D0E8B828C81
:100EC000838DF0121420AB82AC838B1674FFB515A2
:100ED0000385161520051DC3E51695145016E51457
:100EE000C39516F514AB141514EB60087582201227
:100EF00008FE80F1850C82850D83850EF01212CCE0
:100F0000FBFA6029AB151515C3E464808BF063F020
:100F10008095F050188A821208FEAB0CAC0DAD0E15
:100F20000BBB00010C8B0C8C0D8D0E80C7200503B4
:100F300002100EC3E5169514400302100EE514C30B
:100F40009516F514AB141514EB700302100E758290
:100F5000201208FE80EEE51B24FDF8881B8603089E
:100F6000860408860518188B0C8C0D8D0EE50EFB7B
:100F700030E7047A438013EB546060047A50800AAF
:100F8000EB30E6047A4980027A588A82C00212085D
:100F9000FE75823A1208FE7582301208FE7582785C
:100FA0001208FED002BA4902800BBA5002800685B0
:100FB0000D82120931850C821209318051D20975D6
:100FC000130A804A751308804575130A804075130B
:100FD00010803BD2028037D2038033D204802FE5C9
:100FE0001B24FDF8881B860308860408860518184C
:100FF0008B0C8C0D8D0E8B828C838DF0E511121471
:1010000007A3E51212140780058A821208FE200247
:1010100006200303300470E51B24FCF8881B8603BC
:101020000886040886050886061818188B0C8C0D8F
:101030008D0E8E0FE50CE50DE50EE50F8B828C8392
:101040008DF0EE1212E874FFB51503751506300425
:1010500027747F550FFB8B10E510EB2BFB8B10E5F6
:101060000E30E70674014510F510E51024684006BF
:10107000749925104002D203300306120BFA020CB9
:10108000E8120987020CE8E5137003020CE87B41C3
:10109000300A2BE51B14F8881BE6FC3395E0FDFEB7
:1010A000FF8C0C8D0D8E0E8F0F20095EAC0C7D0019
:1010B0007E007F008C0C8D0D8E0E8F0F804C300BC0
:1010C0001FE51B24FCF8881B860408860508860695
:1010D0000886071818188C0C8D0D8E0E8F0F802A1D
:1010E000E51B24FEF8881B860408860518ED339559
:1010F000E0FEFF8C0C8D0D8E0E8F0F20090CAC0CBA
:10110000AD0D7E007F008E0E8F0F300C43E50C4539
:101110000D450E450F60397408B5130C758230C04B
:10112000031208FED00380287410B5132375823093
:10113000C0031208FED00330010C758278C0031280
:1011400008FED003800A758258C0031208FED0033F
:10115000300925AC0CAD0DAE0EE50FFF30E717C31F
:10116000E49CFCE49DFDE49EFEE49FFF8C0C8D0D51
:101170008E0E8F0F8002C209751600D20D8B00757E
:101180001000C000120948D000200D0DE510C4FC6D
:10119000E6FD4CF61888038002A6100516B20DE590
:1011A0000C450D450E450F70D68803E51470037588
:1011B000140120061A200517E51604FCC3951450E7
:1011C0000E758220C0031208FED003151480E9308A
:1011D000090E75822DC0031208FED0031514802459
:1011E000E516602030070E75822BC0031208FED072
:1011F000031514800F30080C758220C0031208FEFE
:10120000D003151420051EAC141514C3E5169C500C
:10121000273006047C3080027C208C82C0031208B8
:10122000FED00380E2C3E51695145009E514C3957A
:1012300016F51480037514008B00AB161516EB60C1
:1012400022B20D200D0A08E6C4540FFB8B10800754
:101250008603740F5BF510851082C000120918D048
:101260000080D7200503020CE8AB141514EB7003C3
:10127000020CE87582201208FE80EE8A821208FEB7
:10128000020CE885118285128322AA82BA0A08100C
:10129000990280FB75990D10990280FB8A9922FCB6
:1012A000ABF0AA83A982749EF582C2D1EC30E71616
:1012B000D2D1E9F42401F9EAF43400FAEBF4340071
:1012C000FBECF43400FC1208400207F120F7143064
:1012D000F6148883A88220F507E6A8837583002288
:1012E000E280F7E49322E022C0E0F845824583459E
:1012F000F07009F5F0FBFCFDFE0213B6E823A2F73F
:1013000092E0F8A982AA83D2F7ABF07C007E07C3F3
:10131000749798404074FF2EFE740A89F0A4F985F2
:10132000F082740A8AF0A4FA85F083740A8BF0A420
:10133000FB740529F9EA3582FAEB3583FB74003535
:10134000F0FCC3EC13FCEB13FBEA13FAE913F90806
:10135000EC70EF80BAE8C3947FF88B838EF0E4FBE7
:10136000FCFDFEFF08C3E933F9EA33FAE58333F500
:1013700083EB3BD4FBEC3CD4FCED3DD4FDEE3ED402
:10138000FEEF3FD4FF602D05F074052BD4FBE43C49
:10139000D4FCE43DD4FDE43ED4FEE43FD4FF7582AA
:1013A00004C3EF13FFEE13FEED13FDEC13FCEB1380
:1013B000FBD582EDD8AF783CD0E020E704762B80D7
:1013C00002762D087906E7C4540F4430F608B906B2
:1013D00003762E08E7540F4430F60819B902E77671
:1013E0004508E5F020E704762B8004762DF4040808
:1013F00075F00A844430F608E5F04430F608E4F667
:1014000090003C75F0402220F71030F6118883A838
:101410008220F507F6A88375830022F280F7F02278
:10142000AA82AB83ACF07D007E008A828B838CF035
:101430001212CCFFA3AA82AB83EF60070DBD00EAB6
:101440000E80E78D828E83220000000000000000E5
:00000001FF
