:1000000002002E2020202020202020202020202020
:100010002020200025342E33666D730025332E33C7
:100020006656001B5B324A000000000202547581D4
:10003000751200D2E582600302009A780079007A96
:10004000007B007C007D00EC4D601C88828983E48D
:1000500093A3A882A9838A828B83F0A3AA82AB830D
:100060001CBCFFE31D80E07582007583007C007D71
:1000700000EC4D600AE4F0A31CBCFFF51D80F27596
:1000800082007583007C007D00EC4D600AE4F0A3E3
:100090001CBCFFF51D80F212009F12091F80FE7527
:1000A000220075231E75240075250075260075270E
:1000B00000752800752900752A03E4F52B752C00BE
:1000C000E4F52DF52E752F00753000753100753271
:1000D000002253D9BF75FF8075EF0643A90343B2D1
:1000E00003759810758D30538EF4438E08858D8B73
:1000F00053890F438920D28ED29943A60343A4018A
:1001000075E10175E24075820022AA82438E407536
:1001100092D07593FF8592948593957591047B0099
:10012000C3EB9A500BE59130E7FB53917F0B80F0C6
:1001300075910022AA82AB83BA0004BB000122752C
:1001400082F9C002C00312010A7582F912010A7510
:1001500082F912010A7582FA12010AD003D0021A3A
:10016000BAFF011B80D25389F0438901C28C2275EA
:10017000C800438E1075CA7875CBEC75CCFF75CD71
:10018000FFD2ADD2CA2275BCF875E88075D10822BD
:10019000AA828511F005F07401800225E0D5F0FBFC
:1001A000FBEA24FC4033EA2A2A9001AD730201B92C
:1001B0000201C10201C90201D1EBF452F1EB42D4B8
:1001C00022EBF452F2EB42D522EBF452F3EB42D69F
:1001D00022EBF4FA52F4EB42DF228582BB75BA1FA0
:1001E000D2EC20ECFDD2EC20ECFDAABD7B00ADBE34
:1001F0007C00EC2AF582ED3BF583221201DA120B2A
:100200003AAA82AB83ACF0FDC002C003C004C005B3
:1002100090DD2F75F0547440120BA6AA82AB83AC0C
:10022000F0FDE58124FCF581E4C0E0C0E07480C00D
:10023000E07444C0E08A828B838CF0ED120D90AAAA
:1002400082AB83ACF0FDE58124FCF5818A828B834F
:100250008CF0ED22C0E0C0D075D000C2CF0522E501
:1002600022249B5003752200C3E52495229200B3FB
:1002700092A5C3E52595229200B392A2C3E52695E7
:10028000229200B392A3C3E52795229200B392A4D1
:10029000D0D0D0E032D29575822812010AC29522C0
:1002A000AA828AE0A2E79290A2E69291A2E59292B7
:1002B000A2E49293C00212029575822812010AD01C
:1002C000028AE0A2E39290A2E29291A2E19292A22B
:1002D000E09293020295AA82D2A18A821202A09091
:1002E0000002020134AA82C2A18A821202A09000F6
:1002F00005020134C295C297900014120134758230
:10030000331202E57582331202E57582321202E57C
:100310007582281202E575820C1202E575820112BF
:1003200002E5900014020134AA82AB83ACF074029F
:10033000B53D047DC080027D808D82C002C003C0B7
:10034000041202E5900005120134D004D003D0025B
:100350007D007E00ED2AFFEE3BF88C018F828883C2
:1003600089F0120B1EFF60208F82C002C003C00400
:10037000C005C0061202D6D006D005D004D003D0E6
:10038000020DBD00CF0E80CC3001248D028E03C340
:10039000EA9410EB648094805015758220C002C0EE
:1003A000031202D6D003D0020ABA00E30B80E02287
:1003B000753D01D20190000375F080120328753D50
:1003C00002D20190000375F080020328758A00753F
:1003D0008C00C28D7529003096FD2096FDD28C20B0
:1003E0009609108D0280F8052980F4309609108D49
:1003F0000280F8052980F4C28C852982120C49AA52
:1004000082AB83ACF0FDC002C003C004C005900005
:100410000075F0807447120BA6AA82AB83ACF0FD86
:10042000E58124FCF581858C82C002C003C004C034
:1004300005120C49AE82AF83A8F0F9C006C007C010
:1004400000C00190000075F0807443120BA6AE82CC
:10045000AF83A8F0F9E58124FCF581D005D004D064
:1004600003D002C006C007C000C0018A828B838C03
:10047000F0ED120C54AA82AB83ACF0FDE58124FCB4
:10048000F581AE8A7F008E828F83C002C003C004D4
:10049000C005120D83AE82AF83A8F0F9D005D00459
:1004A000D003D002C006C007C000C0018A828B837F
:1004B0008CF0ED120C54AA82AB83ACF0FDE58124E4
:1004C000FCF581C002C003C004C00590126F75F036
:1004D000837439120BA685822F85833085F031F520
:1004E00032E58124FCF58122E4C0E0C0E0745CC008
:1004F000E07443C0E0852F828530838531F0E5329A
:10050000120B46AA82E58124FCF581EA602BE4C047
:10051000E0C0E074B4C0E07443C0E0852F82853051
:10052000838531F0E532120B76AA82E58124FCF551
:1005300081EA6005E4F52AF52BE4C0E0C0E074B47C
:10054000C0E07443C0E0852F828530838531F0E5BB
:1005500032120B46AA82E58124FCF581EA602CE484
:10056000C0E0C0E074E1C0E07443C0E0852F828544
:1005700030838531F0E532120B76AA82E58124FCC6
:10058000F581EA6006752A03E4F52BE4C0E0C0E0DB
:100590007407C0E07443C0E0852F828530838531C5
:1005A000F0E532120B46AA82E58124FCF581EA606F
:1005B0002CE4C0E0C0E0745CC0E07443C0E0852F70
:1005C000828530838531F0E532120B76AA82E5818F
:1005D00024FCF581EA6006752A05E4F52B22858264
:1005E0003E85833F85F040C37405952AE4952B50E2
:1005F0000122E52A252A252A9005FC7302082202F9
:10060000082F02084B02060E020718020868AA3ECD
:10061000AB3FAC408A828B838CF0120B1EFDA31281
:100620000B1EFEA3120B1EFFA3120B1EF8C002C06E
:1006300003C0047462C0E07410C0E074F8C0E074D9
:100640003EC0E08D828E838FF0E8120D78AD82AED1
:1006500083AFF0F8E58124FCF58174ACC0E0741C34
:10066000C0E074DAC0E0743DC0E08D828E838FF00C
:10067000E8120B46AD82E58124FCF581D004D0035D
:10068000D002ED600D7525007524008523277526A1
:10069000002274042AFAE43BFB8A828B838CF012DA
:1006A0000B1EFAA3120B1EFBA3120B1EFCA3120BB4
:1006B0001EFD741BC0E0742FC0E074CDC0E0743E1A
:1006C000C0E08A828B838CF0ED120D78AA82AB8316
:1006D000ACF0FDE58124FCF58174ACC0E0741CC075
:1006E000E0745AC0E0743DC0E08A828B838CF0EDE8
:1006F000120B46AA82E58124FCF581EA600D852370
:10070000257524007527007526002285232575246C
:100710000085232775260022AA3EAB3FAC408A8283
:100720008B838CF0120B1EFDA3120B1EFEA3120B6B
:100730001EFFA3120B1EF8C002C003C0047462C0E7
:10074000E07410C0E074F8C0E0743EC0E08D828EAA
:10075000838FF0E8120D78AD82AE83AFF0F8E581BB
:1007600024FCF58174ACC0E0741CC0E074DAC0E015
:10077000743DC0E08D828E838FF0E8120B46AD820F
:10078000E58124FCF581D004D003D002ED600D7525
:1007900025007524007527008523262274042AFA73
:1007A000E43BFB8A828B838CF0120B1EFAA3120BA4
:1007B0001EFBA3120B1EFCA3120B1EFD741BC0E03C
:1007C000742FC0E074CDC0E0743EC0E08A828B8399
:1007D0008CF0ED120D78AA82AB83ACF0FDE581249C
:1007E000FCF58174ACC0E0741CC0E0745AC0E074C5
:1007F0003DC0E08A828B838CF0ED120B46AA82E525
:100800008124FCF581EA600D752500852324752778
:10081000007526002285232575240085232775264B
:10082000002275250075240075270075260022E436
:10083000F525F524E52375F003A4F527752600902A
:1008400003E8120134E4F52AF52B22E52375F003C1
:10085000A4F5257524007527007526009003E8127D
:100860000134E4F52AF52B22E52375F003A4F525E0
:10087000E4F524F527E52375F003A4F5269004B0EC
:10088000120134E4F52AF52B2285824185834285C5
:10089000F043C02FC030C031C0327414C0E07400C7
:1008A000C0E07480C0E07433C0E07400C0E0744005
:1008B000C0E0120D32E58124F6F581753D01D201CB
:1008C00090003375F040120328AA41AB42AC438A32
:1008D000828B838CF0120B1EFAA3120B1EFBA31249
:1008E0000B1EFCA3120B1EFDC002C003C004C005FA
:1008F000741CC0E07400C0E07480C0E07433C0E0D9
:100900007400C0E07440C0E0120D32E58124F6F5B9
:1009100081753D02D20190003375F0400203281228
:10092000016612016F1202F4D2AF751104758201D3
:1009300012019075110075820212019075110775F0
:1009400082021201901201867423C0E07400C0E09C
:100950007480C0E0120CC215811581158175820F5B
:100960001201FBAA82AB83ACF0FD8A448B458C4616
:100970008D477582041201FBAA82AB83ACF0FD8A1D
:10098000488B498C4A8D4B7582081201FBAA82ABB9
:1009900083ACF0FD8A4C8B4D8C4E8D4F758A007563
:1009A0008C00C28D75290074CDC0E074CCC0E0C04D
:1009B000E0743DC0E08544828545838546F0E54787
:1009C000120B76AA82E58124FCF581EA7003020A03
:1009D000F8D28C74CDC0E074CCC0E0C0E0743DC0EF
:1009E000E08544828545838546F0E547120B76AA6B
:1009F00082E58124FCF581EA601E75820F1201FBFD
:100A0000AA82AB83ACF0FD8A448B458C468D47109F
:100A10008D0280BF052980BBC28C852982120C49BA
:100A2000AA82AB83ACF0FDC002C003C004C0059035
:100A3000000075F0807447120BA6858250858351A3
:100A400085F052F553E58124FCF581858C82120CEA
:100A500049AE82AF83AAF0FBC006C007C002C00344
:100A600090000075F0807443120BA6AA82AB83AC91
:100A7000F0FDE58124FCF581C002C003C004C0057F
:100A80008550828551838552F0E553120C5485823E
:100A90005085835185F052F553E58124FCF581AEF4
:100AA0008A7F008E828F83120D83AE82AF83AAF07D
:100AB000FBC006C007C002C00385508285518385F4
:100AC00052F0E553120C54AA82AB83ACF0FDE581E1
:100AD00024FCF581C002C003C004C00590126F75EC
:100AE000F0837439120BA685822F85833085F0310F
:100AF000F532E58124FCF5811204E890004475F09C
:100B0000401205DE90004475F04012088990000103
:100B1000120134052DE4B52D02052E02095D20F7E2
:100B20001430F6148883A88220F507E6A88375831D
:100B30000022E280F7E49322E022E4AC83AB82FA65
:100B4000F9748E020EB8FFA8811818120EE0D2D1E7
:100B500033E6400730E70B7582012220E7067582F5
:100B60000022C2D1120EC2E97003F5822230D101F7
:100B7000B3E433F58222FFA8811818120EE0D2D117
:100B800033E6400730E70B7582002220E7067582C6
:100B90000122C2D1120EC2E97003F5822220D101D6
:100BA000B3E433F58222120F8DBC0003020F2CEF49
:100BB00060FA30D502B2D1E583B4FF03020F42E5FB
:100BC00082B4FF03020F42258340072482400B02B8
:100BD0000F2C2483145003020F42F582EA8DF0A4F7
:100BE000A8F0EA8EF0A428F8E435F0F9EB8DF0A433
:100BF00028E935F0F9E433CA8FF0A429F9EA35F091
:100C0000FAEBF88EF0A429F9EA35F0FAE433FBECBC
:100C10008DF0A429F9EA35F0FAE43BFBE88FF0A463
:100C20002AFAEB35F0FBE433CCFD8EF0A42AFAEB84
:100C300035F0FBE43CFCED8FF0A42BFBEC35F0FC35
:100C400020E703120F5A020F0BE4AC82FBFAF9748F
:100C500086020EB8120F8D7900E583B58202800DF1
:100C60005003120FBBE583C39582120FD5E5D0C4A4
:100C700065D020E117EA2DFAEB3EFBEC3FFC500972
:100C80007401120FD5EC4480FC020F0BC3EA9DFAED
:100C9000EB9EFBEC9FFC500FC3E499F9E49AFAE455
:100CA0009BFBE49CFCB2D1120F5A020F0B0219A459
:100CB00085826285836385F064851065900CAD0242
:100CC00013F7C008858108E50824FBF565E50824CD
:100CD000FBF88662088663088664900CAD1213F7F1
:100CE000D00822AA82AB09AC0AAD0B8B828C838D13
:100CF000F0EA1219B90509E4B50902050A2285824C
:100D00000985830A85F00B850C62850D63850E6469
:100D1000850F65900CE31213F7AA82AB83AC09AD83
:100D20000AAE0B8C828D838EF0E41219B98A828B05
:100D30008322C008858108E50824F8F565E50824C4
:100D4000FBF8860908860A08860BE50824F8F88669
:100D500062088663088664900CE31213F7AA82ABDC
:100D600083AC09AD0AAE0B8C828D838EF0E4121930
:100D7000B98A828B83D00822A8811818C6B2E7C628
:100D8000020C54AC83AB827A007900748E0219DBBA
:100D9000120F8D30D502B2D1BF0009BC0003020F83
:100DA0004F020F42BC0003020F2CE583B4FF0BE59A
:100DB00082B4FF03020F4F020F2CE582B4FF03023F
:100DC0000F42C395835007247F400B020F2C2480D1
:100DD000145003020F42C0E0E4CCCBCAF98D118E4F
:100DE000128F13EF54F0C4F5147583068514F0EBDD
:100DF00084F582E9C4F9EAC4FAEBC4FBEC540FC4ED
:100E00007803D6FC18EBD6FB18EAD6FA8582F0ED0B
:100E1000A4A8F0FD8582F0EEA428FEE435F0F88564
:100E200082F0EFA428FFE435F0F8E99DF9EA9EFA94
:100E3000EB9FFBEC98FCAD11AE12AF1330E7101531
:100E400082E92DF9EA3EFAEB3FFBE43CFC80EDC081
:100E500082D58398C3E933F9EA33FAEB33FBEC33F9
:100E6000FCC3E99DEA9EEB9FEC9400B3E413F9D038
:100E700002D0E0C44AFAD003D0E0C44BFBD004D087
:100E8000E0F5F0540FC44CFCD082158230F40FD33F
:100E9000EC13FCEB13FBEA13FAE913F90582E930D2
:100EA000E70A74012AFAE43BFBE43CFC020F23FC52
:100EB000ABF0AA83A982749EC2D1F582120F5A02A6
:100EC0000F0B7901AA82E68F82B5821318E6B5F07E
:100ED0000E18E6B5830918E68A82B58202790022E7
:100EE000B4800FE5F0700AE5837006E58270027F3A
:100EF00000EFB6801518B6001018B6000B18B60033
:100F00000608080876002208080822B98003EA13B8
:100F1000B34010EA2401FAE43BFBE43CFC50047CBF
:100F2000800582BC000EBB000BBA0008E4F5F0F5AA
:100F300083F58222A2D1E582138CF092F78B838A0B
:100F40008222E4F583F58275F080F4A2D11322E4C5
:100F5000F583F58275F0C0747F227804EC7011E59A
:100F60008224F8500AF582E4C9CACBFCD8EF22ECFF
:100F70007820058220E713D5820122C3E933F9EAFC
:100F800033FAEB33FBEC33FCD8EA158222AA82ABAE
:100F900083A2F73392D16002D2F7F582ACF0E581FB
:100FA00024F9F8E6FD08E6FE0886F008E6A2F73325
:100FB00092D56002D2F7F583AFF022E582C583F5C2
:100FC00082A2D133A2D592D11392D5ECCFFCEBCE35
:100FD000FBEACDFA226040F82582500274FFF582C8
:100FE000E824F8501ECCCBCAF9E4CC24F85014CB3A
:100FF000CAF9E4CB24F8500BCAF9E4CA24F8500328
:1010000079002224086010F8C3EC13FCEB13FBEA10
:1010100013FAE913F9D8F122AA827429C0E07410F6
:10102000C0E0C054C0558A8222055BE4B55B02056E
:101030005C22AA8274302AFA24C6500A74072AFA5B
:101040003002034302208A82021018E582FAC45457
:101050000FF582C002121032D002740F5AF58202CC
:101060001032AA56AB57AC58AD59AE5A756120EE46
:101070002EFEED235401FF4206EA2AFAEB33FBEC85
:1010800033FCED33FDC3EE955D4008EEC3955DFE88
:10109000430201D561D98A568B578C588D598E5A87
:1010A000227872E624D075F00AA4FA7873E624D088
:1010B0002AFA78718603BB2D04C3E49AFA755D01A0
:1010C000C3E464808AF063F08095F0502975610371
:1010D0008A0374F62561401C055DE561142466F8F9
:1010E000E5612466F98704A604772E1BEBFA6004F9
:1010F000056180DE8B02EA30E70D78678603786849
:10110000A6037867762E0AE55F600AE55F04FB2593
:101110005DF55D8005300D02055D78668603E4BBF4
:101120002D0104FB7006200803300902055D30061E
:10113000030211E8300757EB600C75822DC00212D4
:101140001018D002801C30080C75822BC0021210BF
:1011500018D002800D30090A758220C002121018C2
:10116000D00278678604BC2E0C758230C002121043
:1011700018D002155EAC5E155EC3E55D9C400302AF
:10118000122C758230C002121018D00280E7AC5EBB
:10119000155EC3E55D9C500C758220C002121018CC
:1011A000D00280EA78668604BC2D0C75822DC002C0
:1011B000121018D002801C30080C75822BC002124D
:1011C0001018D002800D30090A758220C00212105A
:1011D00018D00278678604BC2E52758230C0021285
:1011E0001018D002155E8044EB600E75822DC0028F
:1011F000121018D002155E802030080E75822BC0A8
:1012000002121018D002155E800F30090C75822072
:10121000C002121018D002155E78678603BB2E0C30
:10122000758230C002121018D002155E756101C2BD
:101230000FE5612466F88603BB45030212E9BB2E65
:10124000348A03C3E464808BF063F08095F0500F20
:10125000758230C003121018D0031B8B0280E48B00
:1012600002D20FE55F7038200D030212E975822E5D
:101270001210188074300F278A03EB30E71FC3E485
:101280006480855FF063F08095F0500C758230C00B
:1012900003121018D003155F0B8B0280DD8B023018
:1012A0000F0EC3E46480855FF063F08095F05021F9
:1012B000E5612466F886038B82C002121018D00202
:1012C000300F0EE5612466F88603BB2E02800215FE
:1012D0005F155EC3E46480855FF063F08095F04045
:1012E00003200F050561021231C3E46480855FF0BD
:1012F00063F08095F0500A758230121018155F80E7
:10130000E830060FAA5E155EEA60087582201210AA
:101310001880F122E55F7003300D0D7407255FFA28
:10132000E55EC39AF55E8006E55E24FAF55E7561BA
:101330000078668602BA2B0F20080C78667620208B
:101340000905756101055E200619AA5EC3E4648083
:101350008AF063F08095F0500A75822012101815FB
:101360005E80E7C20FE5612466F88602BA0002805B
:1013700069BA451F3002027665C3E46480855FF078
:1013800063F08095F0500A758230121018155F8056
:10139000E8D20FC3E5619402E433FA7014EA700EE8
:1013A000C3E46480855FF063F08095F04003300F04
:1013B00016E5612466F886028A82121018E5612417
:1013C000FD5012155F800E7402B56109300D06756F
:1013D000822E1210180561021365300619AA5EC329
:1013E000E464808AF063F08095F0500A75822012E0
:1013F0001018155E80E722858254858355E4F55BDD
:10140000F55CAA62AB63AC648A828B838CF0120BAE
:101410001EFD74012AF562E43BF5638C64EDFA70FD
:101420000302199DBA25028003021995C206C2075C
:10143000C208C209C20AC20BC20CC20DC203C20456
:10144000C205755D00755E00755FFFAB62AC63AD94
:10145000648B828C838DF0120B1EFAA3AB82AC835B
:101460008B628C638D64BA25078A82121018809271
:101470008A06BE3000402E8A06EE24C6402774FF3E
:10148000B55F13E55E75F00AA4FEEA24D02EF55E82
:1014900070BFD20780BBE55F75F00AA4FEEA24D0D6
:1014A0002EF55F80ACBA2E0A74FFB55FA4755F009D
:1014B000809F8A06BE6100400E8A06EE24854007A2
:1014C0005302DFD2028002C202BA20028075BA2320
:1014D00003021552BA2A03021557BA2B02805FBACB
:1014E0002D028055BA4202805FBA430302159CBAAE
:1014F00044030216D7BA45030216F1BA4603021690
:10150000EDBA47030216F5BA49030216D7BA4C02E0
:10151000803BBA4E030216F9BA4F030216DEBA50E8
:1015200003021670BA53030215C0BA55030216E33C
:10153000BA58030216E8021723D206021451D20841
:10154000021451D209021451D20B021451D20C02CE
:101550001451D20D02145174FFB55F20300B0BE50E
:101560006514F88865865E021451E56524FEF888E6
:10157000658606088607188E5E021451300B0BE54F
:101580006514F88865865F021451E56524FEF888C5
:10159000658606088607188E5F021451300B0AE52F
:1015A0006514F888658602800FE56524FEF8886575
:1015B0008603088604188B028A82121018021728E4
:1015C000E56524FDF8886586030886040886051805
:1015D000188B568C578D588B828C838DF0121B1E66
:1015E000AB82AC838B6074FFB55F0385605F2006C0
:1015F0001DC3E560955E5016E55EC39560F55EAB74
:101600005E155EEB600875822012101880F1855619
:10161000828557838558F0120B1EFBFA6029AB5F59
:10162000155FC3E464808BF063F08095F050188AF6
:1016300082121018AB56AC57AD580BBB00010C8B87
:10164000568C578D5880C7200603021728C3E560C3
:10165000955E4003021728E55EC39560F55EAB5EBC
:10166000155EEB700302172875822012101880EEA9
:10167000E56524FDF8886586030886040886051854
:10168000188B568C578D58E558FB30E7047A438009
:1016900013EB546060047A50800AEB30E6047A4918
:1016A00080027A588A82C00212101875823A12108B
:1016B00018758230121018758278121018D002BA7C
:1016C0004902800BBA5002800685578212104B8562
:1016D000568212104B8051D20A755D0A804A755DA0
:1016E000088045755D0A8040755D10803BD203809F
:1016F00037D2048033D205802FE56524FDF8886554
:10170000860308860408860518188B568C578D5852
:101710008B828C838DF0E55B1219B9A3E55C1219FD
:10172000B980058A821210182003062004033005B0
:1017300070E56524FCF8886586030886040886053C
:101740000886061818188B568C578D588E59E556F2
:10175000E557E558E5598B828C838DF0EE1219FF21
:1017600074FFB55F03755F06300527747F5559FB1D
:101770008B5AE55AEB2BFB8B5AE55830E706740180
:10178000455AF55AE55A246840067499255A40028C
:10179000D2043004061213140214021210A102140F
:1017A00002E55D70030214027B6B300B2BE56514C0
:1017B000F88865E6FC3395E0FDFEFF8C568D578E6C
:1017C000588F59200A5EAC567D007E007F008C56F3
:1017D0008D578E588F59804C300C1FE56524FCF8CE
:1017E000886586040886050886060886071818187E
:1017F0008C568D578E588F59802AE56524FEF888BF
:1018000065860408860518ED3395E0FEFF8C568D3D
:10181000578E588F59200A0CAC56AD577E007F006A
:101820008E588F59300D43E55645574558455960F8
:10183000397408B55D0C758230C003121018D003DE
:1018400080287410B55D23758230C003121018D043
:101850000330020C758278C003121018D003800A7E
:10186000758258C003121018D003300A25AC56AD4B
:1018700057AE58E559FF30E717C3E49CFCE49DFDE3
:10188000E49EFEE49FFF8C568D578E588F59800240
:10189000C20A756000D20E8B00755A00C00012108B
:1018A00062D000200E0DE55AC4FCE6FD4CF6188807
:1018B000038002A65A0560B20EE5564557455845C5
:1018C0005970D68803E55E7003755E0120071A2003
:1018D0000617E56004FCC3955E500E758220C003B8
:1018E000121018D003155E80E9300A0E75822DC0E3
:1018F00003121018D003155E8024E56060203008C4
:101900000E75822BC003121018D003155E800F30A5
:10191000090C758220C003121018D003155E200632
:101920001EAC5E155EC3E5609C50273007047C301A
:1019300080027C208C82C003121018D00380E2C386
:10194000E560955E5009E55EC39560F55E800375C0
:101950005E008B00AB601560EB6022B20E200E0AB9
:1019600008E6C4540FFB8B5A80078603740F5BF59F
:101970005A855A82C000121032D00080D720060348
:10198000021402AB5E155EEB700302140275822036
:1019900012101880EE8A82121018021402855B82DF
:1019A000855C8322AA82BA0A0810990280FB759985
:1019B0000D10990280FB8A992220F71030F61188C9
:1019C00083A88220F507F6A88375830022F280F7AA
:1019D000F022FCABF0AA83A982749EF582C2D1ECFE
:1019E00030E716D2D1E9F42401F9EAF43400FAEB35
:1019F000F43400FBECF43400FC120F5A020F0BC05D
:101A0000E0F84582458345F07009F5F0FBFCFDFEEA
:101A1000021ACDE823A2F792E0F8A982AA83D2F7AE
:101A2000ABF07C007E07C3749798404074FF2EFE95
:101A3000740A89F0A4F985F082740A8AF0A4FA8500
:101A4000F083740A8BF0A4FB740529F9EA3582FA55
:101A5000EB3583FB740035F0FCC3EC13FCEB13FB9C
:101A6000EA13FAE913F908EC70EF80BAE8C3947F3F
:101A7000F88B838EF0E4FBFCFDFEFF08C3E933F92D
:101A8000EA33FAE58333F583EB3BD4FBEC3CD4FC3F
:101A9000ED3DD4FDEE3ED4FEEF3FD4FF602D05F0CA
:101AA00074052BD4FBE43CD4FCE43DD4FDE43ED4EB
:101AB000FEE43FD4FF758204C3EF13FFEE13FEED87
:101AC00013FDEC13FCEB13FBD582EDD8AF7866D099
:101AD000E020E704762B8002762D087906E7C454CF
:101AE0000F4430F608B90603762E08E7540F443049
:101AF000F60819B902E7764508E5F020E704762BE9
:101B00008004762DF4040875F00A844430F608E564
:101B1000F04430F608E4F690006675F04022AA82A0
:101B2000AB83ACF07D007E008A828B838CF0120B3D
:101B30001EFFA3AA82AB83EF60070DBD00EA0E80F3
:101B4000E78D828E8322000000000000000000006C
:00000001FF
