:1000000002002E00000000000000000000000000C0
:1000200000000000000000000000000202CB75810B
:100030006E120149E582600302009A780079007A25
:10004000007B007C007D00EC4D601C88828983E48D
:1000500093A3A882A9838A828B83F0A3AA82AB830D
:100060001CBCFFE31D80E07582007583007C007D71
:1000700000EC4D600AE4F0A31CBCFFF51D80F27596
:1000800082007583007C007D00EC4D600AE4F0A3E3
:100090001CBCFFF51D80F21200E712098280FE45AC
:1000A0006E74657265642073746F70206D6F646523
:1000B00000456E746572656420666F727761726464
:1000C000206D6F64650046726571203D2025352ED8
:1000D000336620485A2C204D6F6465203D202564EE
:1000E0000D001B5B324A0075220075231E7524002B
:1000F000752500752600752700752800752900757F
:100100002A00752B00752C00752D00E4F52EF52FB7
:100110007530007531007532007533007534007527
:100120003500753600753700753800753900753A39
:1001300000753B00753C00753D00753E00753F0045
:10014000754000E4F541F5422253D9BF75FF807533
:10015000EF0643A90343B203759810758D30538E93
:10016000F4438E08858D8B53890F438920D28ED21C
:100170009943A60343A40175E10175E2407582002D
:1001800022AA82438E407592D07593FF8592948502
:1001900093957591047B00C3EB9A500BE59130E782
:1001A000FB53917F0B80F075910022AA82AB83BA3A
:1001B0000004BB0001227582F9C002C00312018154
:1001C0007582F91201817582F91201817582FA1224
:1001D0000181D003D0021ABAFF011B80D25389F0EB
:1001E000438901C28C2275C800438E1075CA787588
:1001F000CBEC75CCFF75CDFFD2ADD2CA2275BCF861
:1002000075E88075D10822AA82851CF005F074017A
:10021000800225E0D5F0FBFBEA24FC4033EA2A2AE1
:1002200090022473020230020238020240020248A5
:10023000EBF452F1EB42D422EBF452F2EB42D52232
:10024000EBF452F3EB42D622EBF4FA52F4EB42DF3A
:10025000228582BB75BA1FD2EC20ECFDD2EC20ECDB
:10026000FDAABD7B00ADBE7C00EC2AF582ED3BF51E
:100270008322120251120A59AA82AB83ACF0FDC04C
:1002800002C003C004C00590DD2F75F05474401205
:100290000AC5AA82AB83ACF0FDE58124FCF581E4BC
:1002A000C0E0C0E07480C0E07444C0E08A828B8308
:1002B0008CF0ED120C67AA82AB83ACF0FDE58124D3
:1002C000FCF5818A828B838CF0ED22C0E0C0D07572
:1002D000D000C2CF0522E522249B5003752200C323
:1002E000E52495229200B392A5C3E52595229200BC
:1002F000B392A2C3E52695229200B392A3C3E52749
:1003000095229200B392A4D0D0D0E032758A0075C5
:100310008C00C28D7529002096FD3096FDD28C3060
:100320009609108D0280F8052980F4209609108D19
:100330000280F8052980F4C28C852982120B68AAF4
:1003400082AB83ACF0FDC002C003C004C0059000C6
:100350000075F0807447120AC5AA82AB83ACF0FD29
:10036000E58124FCF581858C82C002C003C004C0F5
:1003700005120B68AE82AF83A8F0F9C006C007C0B3
:1003800000C00190000075F0807443120AC5AE826F
:10039000AF83A8F0F9E58124FCF581D005D004D025
:1003A00003D002C006C007C000C0018A828B838CC4
:1003B000F0ED120B73AA82AB83ACF0FDE58124FC57
:1003C000F581AE8A7F008E828F83C002C003C00495
:1003D000C005120C5AAE82AF83A8F0F9D005D00444
:1003E000D003D002C006C007C000C0018A828B8340
:1003F0008CF0ED120B73AA82AB83ACF0FDE5812487
:10040000FCF581C002C003C004C0059037BD75F083
:10041000867434120AC5AA82AB83ACF0FDE5812450
:10042000FCF581C002C003C004C00590000075F057
:1004300080743F120C6785822A85832B85F02CF50A
:100440002DE58124FCF5812212030CE54025402591
:10045000E0FA2430F8A62A08A62B08A62C08A62D18
:1004600005407404B54003754000754300754400B1
:100470007C00BC0400400302057AEC2C25E0FD243E
:1004800030F88606088607088603088602181818BA
:10049000C004C005E4C0E074B6C0E07482C0E0747B
:1004A00046C0E08E828F838BF0EA120A65AA82E54D
:1004B0008124FCF581D005D004EA603CED2430F8BD
:1004C0008602088603088605088606181818C004E0
:1004D000E4C0E0745AC0E07485C0E07446C0E08AAD
:1004E000828B838DF0EE120A95AA82E58124FCF5B9
:1004F00081D004EA60020543EC2C25E0FA2430F8B0
:100500008603088605088606088607181818C0029C
:10051000C004E4C0E07438C0E07467C0E07446C052
:10052000E08B828D838EF0EF120A65AB82E5812429
:10053000FCF581D004D002EB603CEA2430F886025E
:10054000088603088605088606181818C004E4C043
:10055000E074A8C0E07470C0E07446C0E08A828B8A
:10056000838DF0EE120A95AA82E58124FCF581D0F4
:1005700004EA600205440C020472E54424FD501BA9
:10058000E4F52EF52F749FC0E07400C0E07480C0C5
:10059000E0120BE115811581158122E54324FD5000
:1005A00075752E03E4F52F74B1C0E07400C0E074DB
:1005B00080C0E0120BE1158115811581E4C0E07463
:1005C000E0C0E07476C0E07446C0E0852A82852BE6
:1005D00083852CF0E52D120A95AA82E58124FCF58D
:1005E00081EA7027C0E074B0C0E0747EC0E0744659
:1005F000C0E0852A82852B83852CF0E52D120A65C3
:10060000AA82E58124FCF581EA60087523001203C3
:100610000C80A975231E2285824585834685F04777
:10062000E4B52E07E4B52F030209537403B52E0673
:10063000E4B52F02800D7404B52E07E4B52F030234
:10064000074D22AA45AB46AC478A828B838CF012B9
:100650000A3DFDA3120A3DFEA3120A3DFFA3120AA2
:100660003DF8C002C003C0047462C0E07410C0E072
:1006700074F8C0E0743EC0E08D828E838FF0E81283
:100680000C4FAD82AE83AFF0F8E58124FCF58174A8
:10069000ACC0E0741CC0E074DAC0E0743DC0E08D12
:1006A000828E838FF0E8120A65AD82E58124FCF525
:1006B00081D004D003D002ED600D752500752400B3
:1006C0008523277526002274042AFAE43BFB8A82DC
:1006D0008B838CF0120A3DFAA3120A3DFBA3120A87
:1006E0003DFCA3120A3DFD741BC0E0742FC0E074F2
:1006F000CDC0E0743EC0E08A828B838CF0ED120C9A
:100700004FAA82AB83ACF0FDE58124FCF58174AC8B
:10071000C0E0741CC0E0745AC0E0743DC0E08A823E
:100720008B838CF0ED120A65AA82E58124FCF581A9
:10073000EA600D85232575240075270075260022A3
:1007400085232575240085232775260022854548A5
:1007500085464985474A854882854983854AF012FE
:100760000A3DFDA3120A3DFEA3120A3DFFA3120A91
:100770003DF8C005C006C007C00074BCC0E074747A
:10078000C0E07453C0E0743EC0E08D828E838FF071
:10079000E8120A65A982E58124FCF581D000D00722
:1007A000D006D005E9600302082E74042548F9E458
:1007B0003549FAAB4A89828A838BF0120A3DF54F9C
:1007C000A3120A3DF550A3120A3DF551A3120A3DAA
:1007D000F552C005C006C007C000C04FC050C05190
:1007E000C0528D828E838FF0E8120C6785824B8514
:1007F000834C85F04DF54EE58124FCF581E4C0E0A5
:10080000C0E07480C0E0743FC0E0854B82854C83BB
:10081000854DF0E54E120A65AA82E58124FCF5813A
:10082000D000D007D006D005EA70030208B37404E4
:100830002548FAE43549FBAC4A8A828B838CF01256
:100840000A3DFAA3120A3DFBA3120A3DFCA3120AB9
:100850003DF9C002C003C004C0018D828E838FF0B9
:10086000E8120C67AA82AB83ACF0FDE58124FCF5AD
:100870008174CDC0E074CCC0E0748CC0E0743FC023
:10088000E08A828B838CF0ED120A65AA82E58124CE
:10089000FCF581EA6010E52325E0F5267527007553
:1008A00024007525002285232475250075260075F2
:1008B0002700227491C0E074EDC0E0741CC0E074A5
:1008C0003EC0E0854F828550838551F0E552120A83
:1008D00065AA82E58124FCF581EA7025C0E0C0E0CC
:1008E0007480C0E0743FC0E0854B82854C83854DA9
:1008F000F0E54E120A95AA82E58124FCF581EA60B2
:100900004574CDC0E074CCC0E0744CC0E0743FC00E
:10091000E0854B82854C83854DF0E54E120A95AA01
:1009200082E58124FCF581EA600FE4F526F527E5F0
:100930002325E0F524752500227524007525008502
:1009400023267527002285232475250085232675F7
:1009500027002275250075240075270075260022C2
:10096000C02EC02FC02AC02BC02CC02D74C6C0E022
:100970007400C0E07480C0E0120BE1E58124F7F55B
:1009800081221201DD1201E6D2AF751C04758201CD
:10099000120207751C00758202120207751C07758A
:1009A00082021202071201FD74E2C0E07400C0E08E
:1009B0007480C0E0120BE1158115811581751C58FA
:1009C000751D02854182854283120C02E582858372
:1009D000F045F0700312044875820F120272AA8269
:1009E000AB83ACF0FD8A538B548C558D56758204C5
:1009F000120272AA82AB83ACF0FD8A578B588C59D5
:100A00008D5A758208120272AA82AB83ACF0FD8AFD
:100A10005B8B5C8C5D8D5E90005375F04012061709
:100A200090005375F0401209609000141201AB74ED
:100A3000142541F541E43542F5420209BD20F71481
:100A400030F6148883A88220F507E6A88375830012
:100A500022E280F7E49322E022E4AC83AB82FAF94D
:100A6000748E020D8FFFA8811818120DB7D2D133E2
:100A7000E6400730E70B7582012220E70675820009
:100A800022C2D1120D99E97003F5822230D101B34F
:100A9000E433F58222FFA8811818120DB7D2D133A2
:100AA000E6400730E70B7582002220E706758201D9
:100AB00022C2D1120D99E97003F5822220D101B32F
:100AC000E433F58222120E64BC0003020E03EF60D1
:100AD000FA30D502B2D1E583B4FF03020E19E582E4
:100AE000B4FF03020E19258340072482400B020E37
:100AF000032483145003020E19F582EA8DF0A4A892
:100B0000F0EA8EF0A428F8E435F0F9EB8DF0A42893
:100B1000E935F0F9E433CA8FF0A429F9EA35F0FA9F
:100B2000EBF88EF0A429F9EA35F0FAE433FBEC8D0A
:100B3000F0A429F9EA35F0FAE43BFBE88FF0A42AA7
:100B4000FAEB35F0FBE433CCFD8EF0A42AFAEB355A
:100B5000F0FBE43CFCED8FF0A42BFBEC35F0FC202B
:100B6000E703120E31020DE2E4AC82FBFAF974865F
:100B7000020D8F120E647900E583B58202800D505C
:100B800003120E92E583C39582120EACE5D0C465C4
:100B9000D020E117EA2DFAEB3EFBEC3FFC50097444
:100BA00001120EACEC4480FC020DE2C3EA9DFAEBAC
:100BB0009EFBEC9FFC500FC3E499F9E49AFAE49B86
:100BC000FBE49CFCB2D1120E31020DE202187B85CF
:100BD000821885831985F01A85091B900BCC0212A7
:100BE000CEC008858108E50824FBF51BE50824FB39
:100BF000F8861808861908861A900BCC1212CED0E7
:100C00000822E51C451D60467A01E51C25E0F51C1F
:100C1000E51D334012F51DE582951CE583951D40C9
:100C2000030A80E6C3E51D13F51DE51C13F51CC37F
:100C3000E582951CF5F0E583951D4005F58385F06B
:100C400082C3E51D13F51DE51C13F51CDAE122A88E
:100C5000811818C6B2E7C6020B73AC83AB827A0068
:100C60007900748E021899120E6430D502B2D1BF89
:100C70000009BC0003020E26020E19BC0003020E7E
:100C800003E583B4FF0BE582B4FF03020E26020ED8
:100C900003E582B4FF03020E19C395835007247F36
:100CA000400B020E032480145003020E19C0E0E42E
:100CB000CCCBCAF98D1C8E1D8F1EEF54F0C4F51FCE
:100CC000758306851FF0EB84F582E9C4F9EAC4FA5E
:100CD000EBC4FBEC540FC47803D6FC18EBD6FB181E
:100CE000EAD6FA8582F0EDA4A8F0FD8582F0EEA4A4
:100CF00028FEE435F0F88582F0EFA428FFE435F013
:100D0000F8E99DF9EA9EFAEB9FFBEC98FCAD1CAE6E
:100D10001DAF1E30E7101582E92DF9EA3EFAEB3FD0
:100D2000FBE43CFC80EDC082D58398C3E933F9EA4B
:100D300033FAEB33FBEC33FCC3E99DEA9EEB9FEC0B
:100D40009400B3E413F9D002D0E0C44AFAD003D03F
:100D5000E0C44BFBD004D0E0F5F0540FC44CFCD001
:100D600082158230F40FD3EC13FCEB13FBEA13FA79
:100D7000E913F90582E930E70A74012AFAE43BFB3A
:100D8000E43CFC020DFAFCABF0AA83A982749EC27B
:100D9000D1F582120E31020DE27901AA82E68F822C
:100DA000B5821318E6B5F00E18E6B5830918E68A81
:100DB00082B58202790022B4800FE5F0700AE583E3
:100DC0007006E58270027F00EFB6801518B600103D
:100DD00018B6000B18B600060808087600220808A6
:100DE0000822B98003EA13B34010EA2401FAE43B75
:100DF000FBE43CFC50047C800582BC000EBB000B75
:100E0000BA0008E4F5F0F583F58222A2D1E5821359
:100E10008CF092F78B838A8222E4F583F58275F059
:100E200080F4A2D11322E4F583F58275F0C0747FBB
:100E3000227804EC7011E58224F8500AF582E4C9A6
:100E4000CACBFCD8EF22EC7820058220E713D582AC
:100E50000122C3E933F9EA33FAEB33FBEC33FCD874
:100E6000EA158222AA82AB83A2F73392D16002D222
:100E7000F7F582ACF0E58124F9F8E6FD08E6FE0816
:100E800086F008E6A2F73392D56002D2F7F583AF79
:100E9000F022E582C583F582A2D133A2D592D11387
:100EA00092D5ECCFFCEBCEFBEACDFA226040F825E0
:100EB00082500274FFF582E824F8501ECCCBCAF9A8
:100EC000E4CC24F85014CBCAF9E4CB24F8500BCA74
:100ED000F9E4CA24F8500379002224086010F8C30A
:100EE000EC13FCEB13FBEA13FAE913F9D8F122AA8D
:100EF000827400C0E0740FC0E0C00AC00B8A822276
:100F00000511E4B51102051222AA8274302AFA24CE
:100F1000C6500A74072AFA3001034302208A82026B
:100F20000EEFE582FAC4540FF582C002120F09D009
:100F300002740F5AF582020F09AA0CAB0DAC0EAD6C
:100F40000FAE10751720EE2EFEED235401FF420662
:100F5000EA2AFAEB33FBEC33FCED33FDC3EE9513D9
:100F60004008EEC39513FE430201D517D98A0C8BB6
:100F70000D8C0E8D0F8E1022786BE624D075F00A42
:100F8000A4FA786CE624D02AFA786A8603BB2D048A
:100F9000C3E49AFA751301C3E464808AF063F080B5
:100FA00095F050297517038A0374F62517401C0520
:100FB00013E51714245FF8E517245FF98704A604E6
:100FC000772E1BEBFA6004051780DE8B02EA30E710
:100FD0000D786086037861A6037860762E0AE515A1
:100FE000600AE51504FB2513F5138005300C020596
:100FF00013785F8603E4BB2D0104FB700620070312
:1010000030080205133005030210BF300657EB60AD
:101010000C75822DC002120EEFD002801C30070C1E
:1010200075822BC002120EEFD002800D30080A75B7
:101030008220C002120EEFD00278608604BC2E0C13
:10104000758230C002120EEFD0021514AC141514C4
:10105000C3E5139C4003021103758230C002120ED7
:10106000EFD00280E7AC141514C3E5139C500C7547
:101070008220C002120EEFD00280EA785F8604BCA4
:101080002D0C75822DC002120EEFD002801C30078D
:101090000C75822BC002120EEFD002800D30080AB0
:1010A000758220C002120EEFD00278608604BC2E3A
:1010B00052758230C002120EEFD00215148044EB3C
:1010C000600E75822DC002120EEFD0021514802022
:1010D00030070E75822BC002120EEFD0021514805D
:1010E0000F30080C758220C002120EEFD0021514CA
:1010F00078608603BB2E0C758230C002120EEFD0D2
:10110000021514751701C20EE517245FF88603BB9C
:1011100045030211C0BB2E348A03C3E464808BF004
:1011200063F08095F0500F758230C003120EEFD03F
:10113000031B8B0280E48B02D20EE5157038200C65
:10114000030211C075822E120EEF8074300E278AB2
:1011500003EB30E71FC3E464808515F063F08095EE
:10116000F0500C758230C003120EEFD00315150B32
:101170008B0280DD8B02300E0EC3E464808515F097
:1011800063F08095F05021E517245FF886038B8289
:10119000C002120EEFD002300E0EE517245FF88663
:1011A00003BB2E02800215151514C3E46480851557
:1011B000F063F08095F04003200E0505170211083A
:1011C000C3E464808515F063F08095F0500A758261
:1011D00030120EEF151580E830050FAA141514EA29
:1011E0006008758220120EEF80F122E51570033041
:1011F0000C0D74072515FAE514C39AF5148006E55D
:101200001424FAF514751700785F8602BA2B0F20A4
:10121000070C785F76202008057517010514200556
:1012200019AA14C3E464808AF063F08095F0500A30
:10123000758220120EEF151480E7C20EE517245FA9
:10124000F88602BA00028069BA451F30010276654D
:10125000C3E464808515F063F08095F0500A7582D0
:1012600030120EEF151580E8D20EC3E5179402E494
:1012700033FA7014EA700EC3E464808515F063F0ED
:101280008095F04003300E16E517245FF886028A39
:1012900082120EEFE51724FD50121515800E740210
:1012A000B51709300C0675822E120EEF05170212C3
:1012B0003C300519AA14C3E464808AF063F0809579
:1012C000F0500A758220120EEF151480E7228582F5
:1012D0000A85830BE4F511F512AA18AB19AC1A8A2A
:1012E000828B838CF0120A3DFD74012AF518E43BD1
:1012F000F5198C1AEDFA7003021874BA25028003EE
:1013000002186CC205C206C207C208C209C20AC2DC
:101310000BC20CC202C203C204751300751400751F
:1013200015FFAB18AC19AD1A8B828C838DF0120AA5
:101330003DFAA3AB82AC838B188C198D1ABA2507A2
:101340008A82120EEF80928A06BE3000402E8A06F4
:10135000EE24C6402774FFB51513E51475F00AA4F2
:10136000FEEA24D02EF51470BFD20680BBE51575B9
:10137000F00AA4FEEA24D02EF51580ACBA2E0A7429
:10138000FFB515A4751500809F8A06BE6100400E4A
:101390008A06EE248540075302DFD2018002C20193
:1013A000BA20028075BA2303021429BA2A03021450
:1013B0002EBA2B02805FBA2D028055BA4202805F9E
:1013C000BA4303021473BA44030215AEBA450302CA
:1013D00015C8BA46030215C4BA47030215CCBA4968
:1013E000030215AEBA4C02803BBA4E030215D0BAC6
:1013F0004F030215B5BA5003021547BA530302143E
:1014000097BA55030215BABA58030215BF0215FA66
:10141000D205021328D207021328D208021328D2B9
:101420000A021328D20B021328D20C02132874FFCD
:10143000B51520300A0BE51B14F8881B861402131F
:1014400028E51B24FEF8881B8606088607188E14DC
:10145000021328300A0BE51B14F8881B86150213AB
:1014600028E51B24FEF8881B8606088607188E15BB
:10147000021328300A0AE51B14F8881B8602800F25
:10148000E51B24FEF8881B8603088604188B028A55
:1014900082120EEF0215FFE51B24FDF8881B860360
:1014A00008860408860518188B0C8C0D8D0E8B820F
:1014B0008C838DF01219F5AB82AC838B1674FFB55B
:1014C000150385161520051DC3E51695145016E560
:1014D00014C39516F514AB141514EB60087582202F
:1014E000120EEF80F1850C82850D83850EF0120AB5
:1014F0003DFBFA6029AB151515C3E464808BF063DE
:10150000F08095F050188A82120EEFAB0CAC0DAD46
:101510000E0BBB00010C8B0C8C0D8D0E80C72005B3
:10152000030215FFC3E516951440030215FFE514E9
:10153000C39516F514AB141514EB70030215FF7563
:101540008220120EEF80EEE51B24FDF8881B860337
:1015500008860408860518188B0C8C0D8D0EE50E78
:10156000FB30E7047A438013EB546060047A5080C8
:101570000AEB30E6047A4980027A588A82C0021265
:101580000EEF75823A120EEF758230120EEF7582F1
:1015900078120EEFD002BA4902800BBA50028006D0
:1015A000850D82120F22850C82120F228051D209E2
:1015B00075130A804A751308804575130A804075B3
:1015C0001310803BD2028037D2038033D204802FA5
:1015D000E51B24FDF8881B86030886040886051889
:1015E000188B0C8C0D8D0E8B828C838DF0E5111277
:1015F00019DCA3E5121219DC80058A82120EEF2095
:101600000206200303300470E51B24FCF8881B86C7
:10161000030886040886050886061818188B0C8CA3
:101620000D8D0E8E0FE50CE50DE50EE50F8B828C12
:10163000838DF0EE1218BD74FFB5150375150630D5
:101640000427747F550FFB8B10E510EB2BFB8B10E1
:10165000E50E30E70674014510F510E510246840EA
:1016600006749925104002D2033003061211EB02D2
:1016700012D9120F780212D9E51370030212D97B26
:1016800064300A2BE51B14F8881BE6FC3395E0FD5B
:10169000FEFF8C0C8D0D8E0E8F0F20095EAC0C7D25
:1016A000007E007F008C0C8D0D8E0E8F0F804C30D5
:1016B0000B1FE51B24FCF8881B860408860508869A
:1016C000060886071818188C0C8D0D8E0E8F0F804B
:1016D0002AE51B24FEF8881B860408860518ED33CE
:1016E00095E0FEFF8C0C8D0D8E0E8F0F20090CAC3B
:1016F0000CAD0D7E007F008E0E8F0F300C43E50C7D
:10170000450D450E450F60397408B5130C758230D0
:10171000C003120EEFD00380287410B51323758216
:1017200030C003120EEFD00330010C758278C00375
:10173000120EEFD003800A758258C003120EEFD04C
:1017400003300925AC0CAD0DAE0EE50FFF30E717E9
:10175000C3E49CFCE49DFDE49EFEE49FFF8C0C8DA5
:101760000D8E0E8F0F8002C209751600D20D8B00F0
:10177000751000C000120F39D000200D0DE510C407
:10178000FCE6FD4CF61888038002A6100516B20D83
:10179000E50C450D450E450F70D68803E514700322
:1017A00075140120061A200517E51604FCC39514CC
:1017B000500E758220C003120EEFD003151480E97D
:1017C00030090E75822DC003120EEFD00315148060
:1017D00024E516602030070E75822BC003120EEF31
:1017E000D0031514800F30080C758220C003120E30
:1017F000EFD003151420051EAC141514C3E5169C78
:1018000050273006047C3080027C208C82C003127A
:101810000EEFD00380E2C3E51695145009E514C31A
:101820009516F51480037514008B00AB161516EB96
:101830006022B20D200D0A08E6C4540FFB8B108005
:10184000078603740F5BF510851082C000120F0924
:10185000D00080D72005030212D9AB141514EB7009
:10186000030212D9758220120EEF80EE8A82120EC8
:10187000EF0212D985118285128322AA82BA0A0840
:1018800010990280FB75990D10990280FB8A9922AC
:10189000FCABF0AA83A982749EF582C2D1EC30E73A
:1018A00016D2D1E9F42401F9EAF43400FAEBF43465
:1018B00000FBECF43400FC120E31020DE2C0E0F843
:1018C0004582458345F07009F5F0FBFCFDFE0219E9
:1018D0008BE823A2F792E0F8A982AA83D2F7ABF0B3
:1018E0007C007E07C3749798404074FF2EFE740AF4
:1018F00089F0A4F985F082740A8AF0A4FA85F0834D
:10190000740A8BF0A4FB740529F9EA3582FAEB35E9
:1019100083FB740035F0FCC3EC13FCEB13FBEA1300
:10192000FAE913F908EC70EF80BAE8C3947FF88BFA
:10193000838EF0E4FBFCFDFEFF08C3E933F9EA33D4
:10194000FAE58333F583EB3BD4FBEC3CD4FCED3D73
:10195000D4FDEE3ED4FEEF3FD4FF602D05F07405BC
:101960002BD4FBE43CD4FCE43DD4FDE43ED4FEE4C3
:101970003FD4FF758204C3EF13FFEE13FEED13FD9A
:10198000EC13FCEB13FBD582EDD8AF785FD0E020F1
:10199000E704762B8002762D087906E7C4540F44BD
:1019A00030F608B90603762E08E7540F4430F608DF
:1019B00019B902E7764508E5F020E704762B8004A4
:1019C000762DF4040875F00A844430F608E5F044F6
:1019D00030F608E4F690005F75F0402220F71030F2
:1019E000F6118883A88220F507F6A8837583002264
:1019F000F280F7F022AA82AB83ACF07D007E008AF1
:101A0000828B838CF0120A3DFFA3AA82AB83EF6026
:101A1000070DBD00EA0E80E78D828E832200000054
:00000001FF
