:1000000002002E00000000000000000000000000C0
:1000200000000000000000000000000202E47581F2
:100030004B120162E582600302009A780079007A2F
:10004000007B007C007D00EC4D601C88828983E48D
:1000500093A3A882A9838A828B83F0A3AA82AB830D
:100060001CBCFFE31D80E07582007583007C007D71
:1000700000EC4D600AE4F0A31CBCFFF51D80F27596
:1000800082007583007C007D00EC4D600AE4F0A3E3
:100090001CBCFFF51D80F212011412058E80FE6655
:1000A00072657175656E6379203D20256620487AFA
:1000B0000A004C65667428626C75652920696E6457
:1000C00020766F6C74616765203D20256620560A96
:1000D000005269676874287265642920696E64201B
:1000E000766F6C74616765203D20256620560A0096
:1000F00046726F6E7420696E647563746F722076D9
:100100006F6C74616765203D20256620560A001BD0
:100110005B324A0075220075233275240075250074
:10012000752600752700752800752900E4F52AF565
:100130002B752C00752D00752E00752F0075300065
:1001400075310075320075330075340075350075F2
:100150003600753700753800753900753A00753B03
:10016000002253D9BF75FF8075EF0643A90343B240
:1001700003759810758D30538EF4438E08858D8BE2
:1001800053890F438920D28ED29943A60343A410EA
:1001900075E10175E24075820022AA82438E4075A6
:1001A00092D07593FF8592948593957591047B0009
:1001B000C3EB9A500BE59130E7FB53917F0B80F036
:1001C00075910022AA82AB83BA0004BB000122759C
:1001D00082F9C002C00312019A7582F912019A7560
:1001E00082F912019A7582FA12019AD003D0021A8A
:1001F000BAFF011B80D25389F0438901C28C22755A
:10020000C800438E1075CA7875CBEC75CCFF75CDE0
:10021000FFD2ADD2CA2275BCF875E88075D108222C
:10022000AA82851CF005F07401800225E0D5F0FB60
:10023000FBEA24FC4033EA2A2A90023D7302024979
:10024000020251020259020261EBF452F1EB42D474
:1002500022EBF452F2EB42D522EBF452F3EB42D60E
:1002600022EBF4FA52F4EB42DF228582BB75BA1F0F
:10027000D2EC20ECFDD2EC20ECFDAABD7B00ADBEA3
:100280007C00EC2AF582ED3BF5832212026A12050E
:10029000DDAA82AB83ACF0FDC002C003C004C00580
:1002A0009020C575F0587440120619AA82AB83AC31
:1002B000F0FDE58124FCF581E4C0E0C0E07480C07D
:1002C000E07444C0E08A828B838CF0ED120763AA4D
:1002D00082AB83ACF0FDE58124FCF5818A828B83BF
:1002E0008CF0ED22C0E0C0D075D000C2CF0522E571
:1002F00022249B5003752200C3E52495229200B36B
:1003000092A2C3E52595229200B392A5C3E5269556
:10031000229200B392A4C3E52795229200B392A340
:10032000D0D0D0E032758A00758C00C28D7529005E
:100330002096FD3096FDD28C309609108D0280F803
:10034000052980F4209609108D0280F8052980F493
:10035000C28C8529821206BCAA82AB83ACF0FDC098
:1003600002C003C004C00590000075F080744712FD
:100370000619AA82AB83ACF0FDE58124FCF58185EA
:100380008C82C002C003C004C0051206BCAE82AF9E
:1003900083A8F0F9C006C007C000C0019000007536
:1003A000F0807443120619AE82AF83A8F0F9E5819C
:1003B00024FCF581D005D004D003D002C006C007CC
:1003C000C000C0018A828B838CF0ED1206C7AA821E
:1003D000AB83ACF0FDE58124FCF581AE8A7F008E15
:1003E000828F83C002C003C004C005120756AE82CC
:1003F000AF83A8F0F9D005D004D003D002C006C066
:1004000007C000C0018A828B838CF0ED1206C7AA58
:1004100082AB83ACF0FDE58124FCF581C002C00312
:10042000C004C0059037BD75F0867434120619AA51
:1004300082AB83ACF0FDE58124FCF581C002C003F2
:10044000C004C00590000075F080743F12076385FA
:10045000822C85832D85F02EF52FE58124FCF581F6
:1004600022020325C02CC02DC02EC02F749FC0E0D7
:100470007400C0E07480C0E0120735E58124F9F50E
:1004800081C030C031C032C03374B2C0E07400C02B
:10049000E07480C0E0120735E58124F9F581C034AD
:1004A000C035C036C03774D1C0E07400C0E074807D
:1004B000C0E0120735E58124F9F581C038C039C0A4
:1004C0003AC03B74F0C0E07400C0E07480C0E01239
:1004D0000735E58124F9F5812275820F12028B859B
:1004E000823085833185F032F53375820712028BB5
:1004F00085823485833585F036F53775820812029A
:100500008B85823885833985F03AF53B227433C078
:10051000E0C0E074D3C0E0743FC0E0853082853134
:10052000838532F0E5331205E9AA82E58124FCF5E2
:1005300081EA6013E52324F1F525752400740F2565
:1005400023F527752600227433C0E0C0E07493C001
:10055000E0743FC0E08534828535838536F0E53729
:100560001205E9AA82E58124FCF581EA6013740F83
:100570002523F525752400E52324F1F527752600AC
:100580002285232575240085232775260022120144
:10059000F61201FFD2AF752800751C077582011293
:1005A0000220751C00758202120220751C077582DC
:1005B00002120220120216740FC0E07401C0E0742F
:1005C00080C0E01207351581158115811204611272
:1005D00004D912050D9000641201C480EFE4AC83CD
:1005E000AB82FAF9748E02088BFFA88118181208E2
:1005F000B3D2D133E6400730E70B7582012220E702
:100600000675820022C2D1120895E97003F5822294
:1006100030D101B3E433F58222120960BC00030239
:1006200008FFEF60FA30D502B2D1E583B4FF0302D0
:100630000915E582B4FF03020915258340072482CA
:10064000400B0208FF2483145003020915F582EAC7
:100650008DF0A4A8F0EA8EF0A428F8E435F0F9EBC8
:100660008DF0A428E935F0F9E433CA8FF0A429F914
:10067000EA35F0FAEBF88EF0A429F9EA35F0FAE45D
:1006800033FBEC8DF0A429F9EA35F0FAE43BFBE802
:100690008FF0A42AFAEB35F0FBE433CCFD8EF0A406
:1006A0002AFAEB35F0FBE43CFCED8FF0A42BFBECDD
:1006B00035F0FC20E70312092D0208DEE4AC82FBD2
:1006C000FAF9748602088B1209607900E583B58215
:1006D00002800D500312098EE583C395821209A88A
:1006E000E5D0C465D020E117EA2DFAEB3EFBEC3FE4
:1006F000FC500974011209A8EC4480FC0208DEC316
:10070000EA9DFAEB9EFBEC9FFC500FC3E499F9E4E1
:100710009AFAE49BFBE49CFCB2D112092D0208DE9C
:1007200002137785821885831985F01A85091B9035
:100730000720020DCAC008858108E50824FBF51BC7
:10074000E50824FBF8861808861908861A90072001
:10075000120DCAD00822AC83AB827A007900748E65
:1007600002139512096030D502B2D1BF0009BC0056
:1007700003020922020915BC00030208FFE583B445
:10078000FF0BE582B4FF030209220208FFE582B4F1
:10079000FF03020915C395835007247F400B02080D
:1007A000FF2480145003020915C0E0E4CCCBCAF941
:1007B0008D1C8E1D8F1EEF54F0C4F51F75830685AA
:1007C0001FF0EB84F582E9C4F9EAC4FAEBC4FBEC50
:1007D000540FC47803D6FC18EBD6FB18EAD6FA857A
:1007E00082F0EDA4A8F0FD8582F0EEA428FEE435A9
:1007F000F0F88582F0EFA428FFE435F0F8E99DF9E0
:10080000EA9EFAEB9FFBEC98FCAD1CAE1DAF1E30D0
:10081000E7101582E92DF9EA3EFAEB3FFBE43CFCD8
:1008200080EDC082D58398C3E933F9EA33FAEB331C
:10083000FBEC33FCC3E99DEA9EEB9FEC9400B3E430
:1008400013F9D002D0E0C44AFAD003D0E0C44BFB85
:10085000D004D0E0F5F0540FC44CFCD082158230A7
:10086000F40FD3EC13FCEB13FBEA13FAE913F905CD
:1008700082E930E70A74012AFAE43BFBE43CFC021B
:1008800008F6FCABF0AA83A982749EC2D1F582124D
:10089000092D0208DE7901AA82E68F82B58213183B
:1008A000E6B5F00E18E6B5830918E68A82B582022D
:1008B000790022B4800FE5F0700AE5837006E582C6
:1008C00070027F00EFB6801518B6001018B6000B46
:1008D00018B6000608080876002208080822B98021
:1008E00003EA13B34010EA2401FAE43BFBE43CFCC6
:1008F00050047C800582BC000EBB000BBA0008E4EB
:10090000F5F0F583F58222A2D1E582138CF092F7FF
:100910008B838A8222E4F583F58275F080F4A2D17C
:100920001322E4F583F58275F0C0747F227804EC1D
:100930007011E58224F8500AF582E4C9CACBFCD8CC
:10094000EF22EC7820058220E713D5820122C3E94B
:1009500033F9EA33FAEB33FBEC33FCD8EA158222A5
:10096000AA82AB83A2F73392D16002D2F7F582ACB0
:10097000F0E58124F9F8E6FD08E6FE0886F008E6D1
:10098000A2F73392D56002D2F7F583AFF022E58269
:10099000C583F582A2D133A2D592D11392D5ECCFE3
:1009A000FCEBCEFBEACDFA226040F82582500274BF
:1009B000FFF582E824F8501ECCCBCAF9E4CC24F829
:1009C0005014CBCAF9E4CB24F8500BCAF9E4CA247A
:1009D000F8500379002224086010F8C3EC13FCEBF4
:1009E00013FBEA13FAE913F9D8F122AA8274FCC0C6
:1009F000E07409C0E0C00AC00B8A82220511E4B588
:100A00001102051222AA8274302AFA24C6500A74EE
:100A1000072AFA3001034302208A820209EBE582A9
:100A2000FAC4540FF582C002120A05D002740F5A9C
:100A3000F582020A05AA0CAB0DAC0EAD0FAE107517
:100A40001720EE2EFEED235401FF4206EA2AFAEBB0
:100A500033FBEC33FCED33FDC3EE95134008EEC3DE
:100A60009513FE430201D517D98A0C8B0D8C0E8D80
:100A70000F8E10227848E624D075F00AA4FA78493F
:100A8000E624D02AFA78478603BB2D04C3E49AFAF9
:100A9000751301C3E464808AF063F08095F05029F7
:100AA0007517038A0374F62517401C0513E5171400
:100AB000243CF8E517243CF98704A604772E1BEBA9
:100AC000FA6004051780DE8B02EA30E70D783D8678
:100AD00003783EA603783D762E0AE515600AE515F3
:100AE00004FB2513F5138005300C020513783C86B2
:100AF00003E4BB2D0104FB70062007033008020548
:100B000013300503020BBB300657EB600C75822DCA
:100B1000C0021209EBD002801C30070C75822BC07A
:100B2000021209EBD002800D30080A758220C00243
:100B30001209EBD002783D8604BC2E0C758230C0C1
:100B4000021209EBD0021514AC141514C3E5139C62
:100B50004003020BFF758230C0021209EBD0028005
:100B6000E7AC141514C3E5139C500C758220C00229
:100B70001209EBD00280EA783C8604BC2D0C758209
:100B80002DC0021209EBD002801C30070C75822B9D
:100B9000C0021209EBD002800D30080A758220C015
:100BA000021209EBD002783D8604BC2E52758230C9
:100BB000C0021209EBD00215148044EB600E75825E
:100BC0002DC0021209EBD0021514802030070E75DB
:100BD000822BC0021209EBD0021514800F30080CD2
:100BE000758220C0021209EBD0021514783D8603ED
:100BF000BB2E0C758230C0021209EBD002151475A1
:100C00001701C20EE517243CF88603BB4503020C0E
:100C1000BCBB2E348A03C3E464808BF063F0809500
:100C2000F0500F758230C0031209EBD0031B8B020A
:100C300080E48B02D20EE5157038200C03020CBC48
:100C400075822E1209EB8074300E278A03EB30E791
:100C50001FC3E464808515F063F08095F0500C7537
:100C60008230C0031209EBD00315150B8B0280DD17
:100C70008B02300E0EC3E464808515F063F080951E
:100C8000F05021E517243CF886038B82C00212093C
:100C9000EBD002300E0EE517243CF88603BB2E0283
:100CA000800215151514C3E464808515F063F08087
:100CB00095F04003200E050517020C04C3E4648080
:100CC0008515F063F08095F0500A7582301209EBBB
:100CD000151580E830050FAA141514EA600875820E
:100CE000201209EB80F122E5157003300C0D74071A
:100CF0002515FAE514C39AF5148006E51424FAF5CF
:100D000014751700783C8602BA2B0F20070C783C2C
:100D100076202008057517010514200519AA14C3AB
:100D2000E464808AF063F08095F0500A75822012A6
:100D300009EB151480E7C20EE517243CF88602BAC9
:100D400000028069BA451F3001027665C3E4648001
:100D50008515F063F08095F0500A7582301209EB2A
:100D6000151580E8D20EC3E5179402E433FA701427
:100D7000EA700EC3E464808515F063F08095F0405E
:100D800003300E16E517243CF886028A821209EB1E
:100D9000E51724FD50121515800E7402B5170930A1
:100DA0000C0675822E1209EB0517020D3830051955
:100DB000AA14C3E464808AF063F08095F0500A7549
:100DC00082201209EB151480E72285820A85830BA5
:100DD000E4F511F512AA18AB19AC1A8A828B838C30
:100DE000F01213B9FD74012AF518E43BF5198C1AB9
:100DF000EDFA7003021370BA25028003021368C271
:100E000005C206C207C208C209C20AC20BC20CC28E
:100E100002C203C2047513007514007515FFAB18E8
:100E2000AC19AD1A8B828C838DF01213B9FAA3AB77
:100E300082AC838B188C198D1ABA25078A82120905
:100E4000EB80928A06BE3000402E8A06EE24C64011
:100E50002774FFB51513E51475F00AA4FEEA24D033
:100E60002EF51470BFD20680BBE51575F00AA4FEFE
:100E7000EA24D02EF51580ACBA2E0A74FFB515A45D
:100E8000751500809F8A06BE6100400E8A06EE241A
:100E90008540075302DFD2018002C201BA200280DE
:100EA00075BA2303020F25BA2A03020F2ABA2B02AE
:100EB000805FBA2D028055BA4202805FBA430302B6
:100EC0000F6FBA44030210AABA45030210C4BA460F
:100ED000030210C0BA47030210C8BA49030210AA9D
:100EE000BA4C02803BBA4E030210CCBA4F03021038
:100EF000B1BA5003021043BA5303020F93BA550319
:100F00000210B6BA58030210BB0210F6D205020E48
:100F100024D207020E24D208020E24D20A020E2482
:100F2000D20B020E24D20C020E2474FFB515203011
:100F30000A0BE51B14F8881B8614020E24E51B24FB
:100F4000FEF8881B8606088607188E14020E2430C9
:100F50000A0BE51B14F8881B8615020E24E51B24DA
:100F6000FEF8881B8606088607188E15020E2430A8
:100F70000A0AE51B14F8881B8602800FE51B24FE75
:100F8000F8881B8603088604188B028A821209EBF4
:100F90000210FBE51B24FDF8881B86030886040865
:100FA000860518188B0C8C0D8D0E8B828C838DF022
:100FB00012150DAB82AC838B1674FFB51503851625
:100FC0001520051DC3E51695145016E514C3951696
:100FD000F514AB141514EB60087582201209EB8030
:100FE000F1850C82850D83850EF01213B9FBFA6032
:100FF00029AB151515C3E464808BF063F08095F080
:1010000050188A821209EBAB0CAC0DAD0E0BBB0075
:10101000010C8B0C8C0D8D0E80C72005030210FB7C
:10102000C3E516951440030210FBE514C39516F5AD
:1010300014AB141514EB70030210FB758220120917
:10104000EB80EEE51B24FDF8881B86030886040868
:10105000860518188B0C8C0D8D0EE50EFB30E70401
:101060007A438013EB546060047A50800AEB30E6D8
:10107000047A4980027A588A82C0021209EB75828A
:101080003A1209EB7582301209EB7582781209EB7E
:10109000D002BA4902800BBA50028006850D821236
:1010A0000A1E850C82120A1E8051D20975130A800D
:1010B0004A751308804575130A8040751310803BEC
:1010C000D2028037D2038033D204802FE51B24FD67
:1010D000F8881B860308860408860518188B0C8C74
:1010E0000D8D0E8B828C838DF0E5111214F4A3E527
:1010F000121214F480058A821209EB2002062003E2
:1011000003300470E51B24FCF8881B860308860462
:101110000886050886061818188B0C8C0D8D0E8E07
:101120000FE50CE50DE50EE50F8B828C838DF0EE5F
:101130001213D574FFB51503751506300427747F97
:10114000550FFB8B10E510EB2BFB8B10E50E30E7FA
:101150000674014510F510E51024684006749925C1
:10116000104002D203300306120CE7020DD5120A1A
:1011700074020DD5E5137003020DD57B41300A2BA7
:10118000E51B14F8881BE6FC3395E0FDFEFF8C0C94
:101190008D0D8E0E8F0F20095EAC0C7D007E007FC2
:1011A000008C0C8D0D8E0E8F0F804C300B1FE51BAD
:1011B00024FCF8881B86040886050886060886072E
:1011C0001818188C0C8D0D8E0E8F0F802AE51B249D
:1011D000FEF8881B860408860518ED3395E0FEFFAF
:1011E0008C0C8D0D8E0E8F0F20090CAC0CAD0D7E6E
:1011F000007F008E0E8F0F300C43E50C450D450E21
:10120000450F60397408B5130C758230C00312099C
:10121000EBD00380287410B51323758230C00312FD
:1012200009EBD00330010C758278C0031209EBD0B2
:1012300003800A758258C0031209EBD003300925D8
:10124000AC0CAD0DAE0EE50FFF30E717C3E49CFC10
:10125000E49DFDE49EFEE49FFF8C0C8D0D8E0E8FB1
:101260000F8002C209751600D20D8B00751000C0E8
:1012700000120A35D000200D0DE510C4FCE6FD4C2F
:10128000F61888038002A6100516B20DE50C450D70
:10129000450E450F70D68803E514700375140120C0
:1012A000061A200517E51604FCC39514500E758226
:1012B00020C0031209EBD003151480E930090E7524
:1012C000822DC0031209EBD00315148024E51660AB
:1012D0002030070E75822BC0031209EBD0031514C2
:1012E000800F30080C758220C0031209EBD0031563
:1012F0001420051EAC141514C3E5169C50273006A7
:10130000047C3080027C208C82C0031209EBD00365
:1013100080E2C3E51695145009E514C39516F5143B
:1013200080037514008B00AB161516EB6022B20D0E
:10133000200D0A08E6C4540FFB8B10800786037447
:101340000F5BF510851082C000120A05D00080D70F
:10135000200503020DD5AB141514EB7003020DD557
:101360007582201209EB80EE8A821209EB020DD5FC
:1013700085118285128322AA82BA0A0810990280F6
:10138000FB75990D10990280FB8A9922FCABF0AA9B
:1013900083A982749EF582C2D1EC30E716D2D1E9DE
:1013A000F42401F9EAF43400FAEBF43400FBECF431
:1013B0003400FC12092D0208DE20F71430F61488E0
:1013C00083A88220F507E6A88375830022E280F7D0
:1013D000E49322E022C0E0F84582458345F070099D
:1013E000F5F0FBFCFDFE0214A3E823A2F792E0F85F
:1013F000A982AA83D2F7ABF07C007E07C3749798CA
:10140000404074FF2EFE740A89F0A4F985F08274BE
:101410000A8AF0A4FA85F083740A8BF0A4FB7405A1
:1014200029F9EA3582FAEB3583FB740035F0FCC309
:10143000EC13FCEB13FBEA13FAE913F908EC70EF79
:1014400080BAE8C3947FF88B838EF0E4FBFCFDFE4A
:10145000FF08C3E933F9EA33FAE58333F583EB3B5D
:10146000D4FBEC3CD4FCED3DD4FDEE3ED4FEEF3F8E
:10147000D4FF602D05F074052BD4FBE43CD4FCE4D0
:101480003DD4FDE43ED4FEE43FD4FF758204C3EFB7
:1014900013FFEE13FEED13FDEC13FCEB13FBD582F3
:1014A000EDD8AF783CD0E020E704762B8002762D93
:1014B000087906E7C4540F4430F608B90603762EBF
:1014C00008E7540F4430F60819B902E7764508E5F5
:1014D000F020E704762B8004762DF4040875F00ADA
:1014E000844430F608E5F04430F608E4F690003C19
:1014F00075F0402220F71030F6118883A88220F57D
:1015000007F6A88375830022F280F7F022AA82AB47
:1015100083ACF07D007E008A828B838CF01213B93D
:10152000FFA3AA82AB83EF60070DBD00EA0E80E740
:101530008D828E8322000000000000000000000069
:00000001FF
