:1000000002002E2020202020202020202020202020
:100010002020200046523D25352E3066204D203DC3
:10002000202564001B5B324A0000000202847581B7
:1000300080120102E582600302009A780079007A5A
:10004000007B007C007D00EC4D601C88828983E48D
:1000500093A3A882A9838A828B83F0A3AA82AB830D
:100060001CBCFFE31D80E07582007583007C007D71
:1000700000EC4D600AE4F0A31CBCFFF51D80F27596
:1000800082007583007C007D00EC4D600AE4F0A3E3
:100090001CBCFFF51D80F212009F12096780FE75DF
:1000A000220075231E75240075250075260075270E
:1000B00000752800752900752A00752B00752C0025
:1000C000752D00752E03E4F52F7530007531007520
:1000D000320075330075340075350075360075379C
:1000E00000753800753900753A00753B00753C00A5
:1000F000753D00753E00753F00754000E4F541F523
:10010000422253D9BF75FF8075EF0643A90343B25E
:1001100003759810758D30538EF4438E08858D8B42
:1001200053890F438920D28ED29943A60343A40159
:1001300075E10175E24075820022AA82438E407506
:1001400092D07593FF8592948593957591047B0069
:10015000C3EB9A500BE59130E7FB53917F0B80F096
:1001600075910022AA82AB83BA0004BB00012275FC
:1001700082F9C002C00312013A7582F912013A7580
:1001800082F912013A7582FA12013AD003D0021AAA
:10019000BAFF011B80D25389F0438901C28C2275BA
:1001A000C800438E1075CA7875CBEC75CCFF75CD41
:1001B000FFD2ADD2CA2275BCF875E88075D108228D
:1001C000AA828511F005F07401800225E0D5F0FBCC
:1001D000FBEA24FC4033EA2A2A9001DD730201E99C
:1001E0000201F10201F9020201EBF452F1EB42D4F7
:1001F00022EBF452F2EB42D522EBF452F3EB42D66F
:1002000022EBF4FA52F4EB42DF228582BB75BA1F6F
:10021000D2EC20ECFDD2EC20ECFDAABD7B00ADBE03
:100220007C00EC2AF582ED3BF5832212020A120AC9
:100230003BAA82AB83ACF0FDC002C003C004C00582
:1002400090DD2F75F0547440120AA7AA82AB83ACDC
:10025000F0FDE58124FCF581E4C0E0C0E07480C0DD
:10026000E07444C0E08A828B838CF0ED120CDEAA2D
:1002700082AB83ACF0FDE58124FCF5818A828B831F
:100280008CF0ED22C0E0C0D075D000C2CF0522E5D1
:1002900022249B5003752200C3E52495229200B3CB
:1002A00092A5C3E52595229200B392A2C3E52695B7
:1002B000229200B392A3C3E52795229200B392A4A1
:1002C000D0D0D0E032D29575822812013AC2952260
:1002D000AA828AE0A2E79290A2E69291A2E5929287
:1002E000A2E49293C0021202C575822812013AD08C
:1002F000028AE0A2E39290A2E29291A2E19292A2FB
:10030000E092930202C5AA82D2A18A821202D09000
:100310000002020164AA82C2A18A821202D0900065
:1003200005020164C295C29790001412016475829F
:1003300033120315758233120315758232120315B9
:1003400075822812031575820C120315758201122D
:100350000315900014020164AA82AB83ACF074020E
:10036000B54D047DC080027D808D82C002C003C077
:1003700004120315900005120164D004D003D002CA
:100380007D007E00ED2AFFEE3BF88C018F82888392
:1003900089F0120A1FFF60208F82C002C003C004D0
:1003A000C005C006120306D006D005D004D003D085
:1003B000020DBD00CF0E80CC3001248D028E03C310
:1003C000EA9410EB648094805015758220C002C0BE
:1003D00003120306D003D0020ABA00E30B80E02226
:1003E000754D01D20190000375F080120358754DD0
:1003F00002D20190000375F080020358758A0075DF
:100400008C00C28D7529002096FD3096FDD28C306F
:100410009609108D0280F8052980F4209609108D28
:100420000280F8052980F4C28C852982120B4AAA21
:1004300082AB83ACF0FDC002C003C004C0059000D5
:100440000075F0807447120AA7AA82AB83ACF0FD56
:10045000E58124FCF581858C82C002C003C004C004
:1004600005120B4AAE82AF83A8F0F9C006C007C0E0
:1004700000C00190000075F0807443120AA7AE829C
:10048000AF83A8F0F9E58124FCF581D005D004D034
:1004900003D002C006C007C000C0018A828B838CD3
:1004A000F0ED120B55AA82AB83ACF0FDE58124FC84
:1004B000F581AE8A7F008E828F83C002C003C004A4
:1004C000C005120CD1AE82AF83A8F0F9D005D004DC
:1004D000D003D002C006C007C000C0018A828B834F
:1004E0008CF0ED120B55AA82AB83ACF0FDE58124B4
:1004F000FCF581C002C003C004C0059037BD75F093
:10050000867434120AA7AA82AB83ACF0FDE581247D
:10051000FCF581C002C003C004C00590000075F066
:1005200080743F120CDE85822A85832B85F02CF5A2
:100530002DE58124FCF581221203FCE540254025B0
:10054000E0FA2430F8A62A08A62B08A62C08A62D27
:1005500005407404B54003754000754E00754F00AA
:100560007C00BC04004003020668EC2C25E0FD245E
:1005700030F88606088607088603088602181818C9
:10058000C004C005E4C0E0C0E0747AC0E07446C0B6
:10059000E08E828F838BF0EA120A47AA82E58124DB
:1005A000FCF581D005D004EA603CED2430F88602E9
:1005B000088603088605088606181818C004E4C0D3
:1005C000E074A0C0E0748CC0E07446C0E08A828B06
:1005D000838DF0EE120A77AA82E58124FCF581D0A2
:1005E00004EA6002054EEC2C25E0FA2430F886037C
:1005F000088605088606088607181818C002C00471
:10060000E4C0E07480C0E0743BC0E07446C0E08B9E
:10061000828D838EF0EF120A47AB82E58124FCF5D0
:1006200081D004D002EB603CEA2430F886020886D0
:1006300003088605088606181818C004E4C0E0748C
:10064000C0C0E0745AC0E07446C0E08A828B838DDB
:10065000F0EE120A77AA82E58124FCF581D004EA43
:100660006002054F0C020562E54F24FD5006E4F5DB
:100670002EF52F22E54E24FD5006752E03E4F52FAE
:100680002285825085835185F052C37405952EE4EE
:10069000952F500122E52E252E252E90069F7302C0
:1006A00008C50208D20208EE0206B10207BB020921
:1006B0000BAA50AB51AC528A828B838CF0120A1F6A
:1006C000FDA3120A1FFEA3120A1FFFA3120A1FF89E
:1006D000C002C003C0047462C0E07410C0E074F8CB
:1006E000C0E0743EC0E08D828E838FF0E8120CC6AD
:1006F000AD82AE83AFF0F8E58124FCF58174ACC027
:10070000E0741CC0E074DAC0E0743DC0E08D828EFD
:10071000838FF0E8120A47AD82E58124FCF581D091
:1007200004D003D002ED600D7525007524008523EB
:10073000277526002274042AFAE43BFB8A828B8305
:100740008CF0120A1FFAA3120A1FFBA3120A1FFC45
:10075000A3120A1FFD741BC0E0742FC0E074CDC04B
:10076000E0743EC0E08A828B838CF0ED120CC6AA46
:1007700082AB83ACF0FDE58124FCF58174ACC0E074
:10078000741CC0E0745AC0E0743DC0E08A828B8360
:100790008CF0ED120A47AA82E58124FCF581EA601B
:1007A0000D852325752400752700752600228523D5
:1007B0002575240085232775260022AA50AB51AC4D
:1007C000528A828B838CF0120A1FFDA3120A1FFE2D
:1007D000A3120A1FFFA3120A1FF8C002C003C0041D
:1007E0007462C0E07410C0E074F8C0E0743EC0E011
:1007F0008D828E838FF0E8120CC6AD82AE83AFF08F
:10080000F8E58124FCF58174ACC0E0741CC0E07490
:10081000DAC0E0743DC0E08D828E838FF0E8120A6A
:1008200047AD82E58124FCF581D004D003D002EDF0
:10083000600D752500752400752700852326227418
:10084000042AFAE43BFB8A828B838CF0120A1FFA9B
:10085000A3120A1FFBA3120A1FFCA3120A1FFD7496
:100860001BC0E0742FC0E074CDC0E0743EC0E08ACD
:10087000828B838CF0ED120CC6AA82AB83ACF0FDA8
:10088000E58124FCF58174ACC0E0741CC0E0745AAE
:10089000C0E0743DC0E08A828B838CF0ED120A4781
:1008A000AA82E58124FCF581EA600D752500852387
:1008B00024752700752600228523257524008523AD
:1008C00027752600227525007524007527007526DA
:1008D0000022E4F525F524E52375F003A4F527753A
:1008E00026009003E8120164E4F52EF52F22E5239B
:1008F00075F003A4F5257524007527007526009072
:1009000003E8120164E4F52EF52F22E52375F003C8
:10091000A4F525E4F524F527E52375F003A4F526D1
:100920009004B0120164E4F52EF52F22C02EC02FE2
:10093000C02AC02BC02CC02D7414C0E07400C0E0CD
:100940007480C0E07443C0E07400C0E07440C0E054
:10095000120C80E58124F4F581754D01D2019000DF
:100960004375F04002035812019612019F120324AE
:10097000D2AF7511047582011201C0751100758224
:10098000021201C07511077582021201C01201B670
:100990007424C0E07400C0E07480C0E0120BC31582
:1009A0008115811581751164E4F5128541828542B6
:1009B00083120BE4E5828583F045F070061205385A
:1009C00012092C75820F12022BAA82AB83ACF0FDA8
:1009D0008A538B548C558D5675820412022BAA8231
:1009E000AB83ACF0FD8A578B588C598D5A758208B1
:1009F00012022BAA82AB83ACF0FD8A5B8B5C8C5D10
:100A00008D5E90005375F040120681900014120123
:100A10006474142541F541E43542F5420209A520EC
:100A2000F71430F6148883A88220F507E6A88375AA
:100A3000830022E280F7E49322E022E4AC83AB82DD
:100A4000FAF9748E020E06FFA8811818120E2ED223
:100A5000D133E6400730E70B7582012220E70675A7
:100A6000820022C2D1120E10E97003F5822230D129
:100A700001B3E433F58222FFA8811818120E2ED29A
:100A8000D133E6400730E70B7582002220E7067578
:100A9000820122C2D1120E10E97003F5822220D108
:100AA00001B3E433F58222120EDBBC0003020E7A9E
:100AB000EF60FA30D502B2D1E583B4FF03020E90A5
:100AC000E582B4FF03020E90258340072482400B89
:100AD000020E7A2483145003020E90F582EA8DF000
:100AE000A4A8F0EA8EF0A428F8E435F0F9EB8DF034
:100AF000A428E935F0F9E433CA8FF0A429F9EA35DE
:100B0000F0FAEBF88EF0A429F9EA35F0FAE433FBB9
:100B1000EC8DF0A429F9EA35F0FAE43BFBE88FF01C
:100B2000A42AFAEB35F0FBE433CCFD8EF0A42AFACC
:100B3000EB35F0FBE43CFCED8FF0A42BFBEC35F047
:100B4000FC20E703120EA8020E59E4AC82FBFAF96E
:100B50007486020E06120EDB7900E583B5820280F0
:100B60000D5003120F09E583C39582120F23E5D0C0
:100B7000C465D020E117EA2DFAEB3EFBEC3FFC50B8
:100B8000097401120F23EC4480FC020E59C3EA9D44
:100B9000FAEB9EFBEC9FFC500FC3E499F9E49AFA40
:100BA000E49BFBE49CFCB2D1120EA8020E59021881
:100BB000F285826D85836E85F06F851070900BAE27
:100BC000021345C008858108E50824FBF570E50897
:100BD00024FBF8866D08866E08866F900BAE1213A4
:100BE00045D00822E511451260467A01E51125E05D
:100BF000F511E512334012F512E5829511E5839562
:100C00001240030A80E6C3E51213F512E51113F54D
:100C100011C3E5829511F5F0E58395124005F58342
:100C200085F082C3E51213F512E51113F511DAE12F
:100C300022AA82AB09AC0AAD0B8B828C838DF0EAC1
:100C40001219070509E4B50902050A2285820985FA
:100C5000830A85F00B850C6D850D6E850E6F850FF3
:100C600070900C31121345AA82AB83AC09AD0AAE69
:100C70000B8C828D838EF0E41219078A828B83227B
:100C8000C008858108E50824F8F570E50824FBF81C
:100C9000860908860A08860BE50824F8F8866D0898
:100CA000866E08866F900C31121345AA82AB83AC16
:100CB00009AD0AAE0B8C828D838EF0E41219078A7F
:100CC000828B83D00822A8811818C6B2E7C6020B0F
:100CD00055AC83AB827A007900748E021929120E0A
:100CE000DB30D502B2D1BF0009BC0003020E9D0269
:100CF0000E90BC0003020E7AE583B4FF0BE582B4CC
:100D0000FF03020E9D020E7AE582B4FF03020E90ED
:100D1000C395835007247F400B020E7A2480145021
:100D200003020E90C0E0E4CCCBCAF98D118E128F75
:100D300013EF54F0C4F5147583068514F0EB84F5B5
:100D400082E9C4F9EAC4FAEBC4FBEC540FC478039B
:100D5000D6FC18EBD6FB18EAD6FA8582F0EDA4A8EB
:100D6000F0FD8582F0EEA428FEE435F0F88582F0EF
:100D7000EFA428FFE435F0F8E99DF9EA9EFAEB9F2D
:100D8000FBEC98FCAD11AE12AF1330E7101582E901
:100D90002DF9EA3EFAEB3FFBE43CFC80EDC082D546
:100DA0008398C3E933F9EA33FAEB33FBEC33FCC342
:100DB000E99DEA9EEB9FEC9400B3E413F9D002D0D6
:100DC000E0C44AFAD003D0E0C44BFBD004D0E0F535
:100DD000F0540FC44CFCD082158230F40FD3EC13C6
:100DE000FCEB13FBEA13FAE913F90582E930E70A91
:100DF00074012AFAE43BFBE43CFC020E71FCABF00C
:100E0000AA83A982749EC2D1F582120EA8020E593D
:100E10007901AA82E68F82B5821318E6B5F00E1822
:100E2000E6B5830918E68A82B58202790022B48089
:100E30000FE5F0700AE5837006E58270027F00EF2F
:100E4000B6801518B6001018B6000B18B6000608C4
:100E5000080876002208080822B98003EA13B34084
:100E600010EA2401FAE43BFBE43CFC50047C8005DE
:100E700082BC000EBB000BBA0008E4F5F0F583F568
:100E80008222A2D1E582138CF092F78B838A822290
:100E9000E4F583F58275F080F4A2D11322E4F583A2
:100EA000F58275F0C0747F227804EC7011E582241D
:100EB000F8500AF582E4C9CACBFCD8EF22EC7820BE
:100EC000058220E713D5820122C3E933F9EA33FA18
:100ED000EB33FBEC33FCD8EA158222AA82AB83A267
:100EE000F73392D16002D2F7F582ACF0E58124F9B4
:100EF000F8E6FD08E6FE0886F008E6A2F73392D58C
:100F00006002D2F7F583AFF022E582C583F582A2B5
:100F1000D133A2D592D11392D5ECCFFCEBCEFBEA24
:100F2000CDFA226040F82582500274FFF582E82451
:100F3000F8501ECCCBCAF9E4CC24F85014CBCAF933
:100F4000E4CB24F8500BCAF9E4CA24F85003790022
:100F50002224086010F8C3EC13FCEB13FBEA13FA2D
:100F6000E913F9D8F122AA827477C0E0740FC0E0C7
:100F7000C05FC0608A82220566E4B566020567220A
:100F8000AA8274302AFA24C6500A74072AFA300258
:100F9000034302208A82020F66E582FAC4540FF5E9
:100FA00082C002120F80D002740F5AF582020F80A5
:100FB000AA61AB62AC63AD64AE65756C20EE2EFECB
:100FC000ED235401FF4206EA2AFAEB33FBEC33FC33
:100FD000ED33FDC3EE95684008EEC39568FE43020D
:100FE00001D56CD98A618B628C638D648E652278A1
:100FF0007DE624D075F00AA4FA787EE624D02AFA99
:10100000787C8603BB2D04C3E49AFA756801C3E4B7
:1010100064808AF063F08095F05029756C038A0330
:1010200074F6256C401C0568E56C142471F8E56CB9
:101030002471F98704A604772E1BEBFA6004056C73
:1010400080DE8B02EA30E70D787286037873A603A0
:101050007872762E0AE56A600AE56A04FB2568F56F
:10106000688005300D02056878718603E4BB2D01A8
:1010700004FB7006200803300902056830060302ED
:101080001136300757EB600C75822DC002120F66C7
:10109000D002801C30080C75822BC002120F66D063
:1010A00002800D30090A758220C002120F66D0023C
:1010B00078728604BC2E0C758230C002120F66D086
:1010C000021569AC691569C3E5689C400302117A91
:1010D000758230C002120F66D00280E7AC691569D4
:1010E000C3E5689C500C758220C002120F66D002C6
:1010F00080EA78718604BC2D0C75822DC002120F17
:1011000066D002801C30080C75822BC002120F665C
:10111000D002800D30090A758220C002120F66D0FD
:101120000278728604BC2E52758230C002120F669D
:10113000D00215698044EB600E75822DC002120F3B
:1011400066D0021569802030080E75822BC002120D
:101150000F66D0021569800F30090C758220C0021D
:10116000120F66D002156978728603BB2E0C758249
:1011700030C002120F66D0021569756C01C20FE50E
:101180006C2471F88603BB4503021237BB2E348AE8
:1011900003C3E464808BF063F08095F0500F758298
:1011A00030C003120F66D0031B8B0280E48B02D287
:1011B0000FE56A7038200D0302123775822E120F68
:1011C000668074300F278A03EB30E71FC3E4648026
:1011D000856AF063F08095F0500C758230C0031280
:1011E0000F66D003156A0B8B0280DD8B02300F0E69
:1011F000C3E46480856AF063F08095F05021E56C6B
:101200002471F886038B82C002120F66D002300F61
:101210000EE56C2471F88603BB2E028002156A1558
:1012200069C3E46480856AF063F08095F040032030
:101230000F05056C02117FC3E46480856AF063F0DA
:101240008095F0500A758230120F66156A80E8307A
:10125000060FAA691569EA6008758220120F668078
:10126000F122E56A7003300D0D7407256AFAE5690D
:10127000C39AF5698006E56924FAF569756C00780A
:10128000718602BA2B0F20080C7871762020090590
:10129000756C010569200619AA69C3E464808AF0A7
:1012A00063F08095F0500A758220120F66156980F0
:1012B000E7C20FE56C2471F88602BA00028069BAB1
:1012C000451F3002027665C3E46480856AF063F0EE
:1012D0008095F0500A758230120F66156A80E8D248
:1012E0000FC3E56C9402E433FA7014EA700EC3E4A1
:1012F0006480856AF063F08095F04003300F16E556
:101300006C2471F886028A82120F66E56C24FD5007
:1013100012156A800E7402B56C09300D0675822EA6
:10132000120F66056C0212B3300619AA69C3E46491
:10133000808AF063F08095F0500A758220120F6663
:10134000156980E72285825F858360E4F566F5672D
:10135000AA6DAB6EAC6F8A828B838CF0120A1FFD74
:1013600074012AF56DE43BF56E8C6FEDFA700302A3
:1013700018EBBA250280030218E3C206C207C208AE
:10138000C209C20AC20BC20CC20DC203C204C2050A
:10139000756800756900756AFFAB6DAC6EAD6F8BDB
:1013A000828C838DF0120A1FFAA3AB82AC838B6D03
:1013B0008C6E8D6FBA25078A82120F6680928A061C
:1013C000BE3000402E8A06EE24C6402774FFB56A60
:1013D00013E56975F00AA4FEEA24D02EF56970BF02
:1013E000D20780BBE56A75F00AA4FEEA24D02EF588
:1013F0006A80ACBA2E0A74FFB56AA4756A00809F31
:101400008A06BE6100400E8A06EE2485400753021C
:10141000DFD2028002C202BA20028075BA23030220
:1014200014A0BA2A030214A5BA2B02805FBA2D02B7
:101430008055BA4202805FBA43030214EABA4403F9
:10144000021625BA450302163FBA460302163BBAF6
:101450004703021643BA4903021625BA4C02803BE1
:10146000BA4E03021647BA4F0302162CBA500302B3
:1014700015BEBA530302150EBA5503021631BA58F7
:1014800003021636021671D20602139FD208021307
:101490009FD20902139FD20B02139FD20C02139FFB
:1014A000D20D02139F74FFB56A20300B0BE5701448
:1014B000F88870866902139FE57024FEF8887086AC
:1014C00006088607188E6902139F300B0BE570140F
:1014D000F88870866A02139FE57024FEF88870868B
:1014E00006088607188E6A02139F300B0AE57014EF
:1014F000F888708602800FE57024FEF888708603F5
:10150000088604188B028A82120F66021676E5702E
:1015100024FDF88870860308860408860518188B51
:10152000618C628D638B828C838DF0121A6CAB821E
:10153000AC838B6B74FFB56A03856B6A20061DC391
:10154000E56B95695016E569C3956BF569AB69154F
:1015500069EB6008758220120F6680F185618285D3
:1015600062838563F0120A1FFBFA6029AB6A156A71
:10157000C3E464808BF063F08095F050188A821287
:101580000F66AB61AC62AD630BBB00010C8B618C71
:10159000628D6380C7200603021676C3E56B9569EA
:1015A0004003021676E569C3956BF569AB69156969
:1015B000EB7003021676758220120F6680EEE570DE
:1015C00024FDF88870860308860408860518188BA1
:1015D000618C628D63E563FB30E7047A438013EB33
:1015E000546060047A50800AEB30E6047A49800245
:1015F0007A588A82C002120F6675823A120F667597
:101600008230120F66758278120F66D002BA4902D4
:10161000800BBA50028006856282120F9985618222
:10162000120F998051D20A75680A804A756808803D
:101630004575680A8040756810803BD2038037D2B8
:10164000048033D205802FE57024FDF8887086036E
:1016500008860408860518188B618C628D638B825E
:101660008C838DF0E566121907A3E56712190780D0
:10167000058A82120F66200306200403300570E5F8
:101680007024FCF88870860308860408860508869E
:10169000061818188B618C628D638E64E561E562B3
:1016A000E563E5648B828C838DF0EE12194D74FF37
:1016B000B56A03756A06300527747F5564FB8B6530
:1016C000E565EB2BFB8B65E56330E706740145654B
:1016D000F565E56524684006749925654002D204E5
:1016E000300406121262021350120FEF021350E57B
:1016F0006870030213507B76300B2BE57014F8886A
:1017000070E6FC3395E0FDFEFF8C618D628E638F89
:1017100064200A5EAC617D007E007F008C618D627A
:101720008E638F64804C300C1FE57024FCF8887049
:1017300086040886050886060886071818188C612E
:101740008D628E638F64802AE57024FEF88870862F
:101750000408860518ED3395E0FEFF8C618D628EDE
:10176000638F64200A0CAC61AD627E007F008E63E3
:101770008F64300D43E561456245634564603974AB
:1017800008B5680C758230C003120F66D00380283C
:101790007410B56823758230C003120F66D0033011
:1017A000020C758278C003120F66D003800A75821E
:1017B00058C003120F66D003300A25AC61AD62AE8B
:1017C00063E564FF30E717C3E49CFCE49DFDE49E01
:1017D000FEE49FFF8C618D628E638F648002C20A7B
:1017E000756B00D20E8B00756500C000120FB0D073
:1017F00000200E0DE565C4FCE6FD4CF6188803805C
:1018000002A665056BB20EE56145624563456470ED
:10181000D68803E569700375690120071A20061749
:10182000E56B04FCC39569500E758220C003120F4E
:1018300066D003156980E9300A0E75822DC0031247
:101840000F66D00315698024E56B602030080E75A3
:10185000822BC003120F66D0031569800F30090C6C
:10186000758220C003120F66D003156920061EACD6
:10187000691569C3E56B9C50273007047C308002F2
:101880007C208C82C003120F66D00380E2C3E56B1C
:1018900095695009E569C3956BF569800375690021
:1018A0008B00AB6B156BEB6022B20E200E0A08E6C4
:1018B000C4540FFB8B6580078603740F5BF5658549
:1018C0006582C000120F80D00080D720060302136B
:1018D00050AB691569EB7003021350758220120F2B
:1018E0006680EE8A82120F660213508566828567D3
:1018F0008322AA82BA0A0810990280FB75990D10FA
:10190000990280FB8A992220F71030F6118883A86B
:101910008220F507F6A88375830022F280F7F02273
:10192000FCABF0AA83A982749EF582C2D1EC30E7A9
:1019300016D2D1E9F42401F9EAF43400FAEBF434D4
:1019400000FBECF43400FC120EA8020E59C0E0F8C3
:101950004582458345F07009F5F0FBFCFDFE021A57
:101960001BE823A2F792E0F8A982AA83D2F7ABF092
:101970007C007E07C3749798404074FF2EFE740A63
:1019800089F0A4F985F082740A8AF0A4FA85F083BC
:10199000740A8BF0A4FB740529F9EA3582FAEB3559
:1019A00083FB740035F0FCC3EC13FCEB13FBEA1370
:1019B000FAE913F908EC70EF80BAE8C3947FF88B6A
:1019C000838EF0E4FBFCFDFEFF08C3E933F9EA3344
:1019D000FAE58333F583EB3BD4FBEC3CD4FCED3DE3
:1019E000D4FDEE3ED4FEEF3FD4FF602D05F074052C
:1019F0002BD4FBE43CD4FCE43DD4FDE43ED4FEE433
:101A00003FD4FF758204C3EF13FFEE13FEED13FD09
:101A1000EC13FCEB13FBD582EDD8AF7871D0E0204E
:101A2000E704762B8002762D087906E7C4540F442C
:101A300030F608B90603762E08E7540F4430F6084E
:101A400019B902E7764508E5F020E704762B800413
:101A5000762DF4040875F00A844430F608E5F04465
:101A600030F608E4F690007175F04022AA82AB834C
:101A7000ACF07D007E008A828B838CF0120A1FFFFF
:101A8000A3AA82AB83EF60070DBD00EA0E80E78D4D
:101A9000828E832200000000000000000000000091
:00000001FF
