:1000000002002E00000000000000000000000000C0
:100020000000000000000000000000020294758142
:100030005D120112E582600302009A780079007A6D
:10004000007B007C007D00EC4D601C88828983E48D
:1000500093A3A882A9838A828B83F0A3AA82AB830D
:100060001CBCFFE31D80E07582007583007C007D71
:1000700000EC4D600AE4F0A31CBCFFF51D80F27596
:1000800082007583007C007D00EC4D600AE4F0A3E3
:100090001CBCFFF51D80F21200E512068980FE46A9
:1000A000726571203D2025352E336620485A2C205C
:1000B000426C7565203D2025352E336620562C2058
:1000C000526564203D2025352E336620562C20466F
:1000D000726F6E74203D2025352E336620560D003C
:1000E0001B5B324A0075220075233275240075258A
:1000F00000752600752700752800752900E4F52A8B
:10010000F52B752C00752D00752E00752F007530A0
:10011000032253D9BF75FF8075EF0643A90343B28D
:1001200003759810758D30538EF4438E08858D8B32
:1001300053890F438920D28ED29943A60343A40149
:1001400075E10175E24075820022AA82438E4075F6
:1001500092D07593FF8592948593957591047B0059
:10016000C3EB9A500BE59130E7FB53917F0B80F086
:1001700075910022AA82AB83BA0004BB00012275EC
:1001800082F9C002C00312014A7582F912014A7550
:1001900082F912014A7582FA12014AD003D0021A7A
:1001A000BAFF011B80D25389F0438901C28C2275AA
:1001B000C800438E1075CA7875CBEC75CCFF75CD31
:1001C000FFD2ADD2CA2275BCF875E88075D108227D
:1001D000AA82851CF005F07401800225E0D5F0FBB1
:1001E000FBEA24FC4033EA2A2A9001ED730201F96C
:1001F000020201020209020211EBF452F1EB42D4B5
:1002000022EBF452F2EB42D522EBF452F3EB42D65E
:1002100022EBF4FA52F4EB42DF228582BB75BA1F5F
:10022000D2EC20ECFDD2EC20ECFDAABD7B00ADBEF3
:100230007C00EC2AF582ED3BF5832212021A1207AC
:100240003CAA82AB83ACF0FDC002C003C004C00571
:1002500090DD2F75F0547440120778AA82AB83ACFE
:10026000F0FDE58124FCF581E4C0E0C0E07480C0CD
:10027000E07444C0E08A828B838CF0ED1208C2AA3D
:1002800082AB83ACF0FDE58124FCF5818A828B830F
:100290008CF0ED22C0E0C0D075D000C2CF0522E5C1
:1002A00022249B5003752200C3E52495229200B3BB
:1002B00092A2C3E52595229200B392A5C3E52695A7
:1002C000229200B392A4C3E52795229200B392A391
:1002D000D0D0D0E032758A00758C00C28D752900AF
:1002E0002096FD3096FDD28C309609108D0280F854
:1002F000052980F4209609108D0280F8052980F4E4
:10030000C28C85298212081BAA82AB83ACF0FDC087
:1003100002C003C004C00590000075F0807447124D
:100320000778AA82AB83ACF0FDE58124FCF58185DA
:100330008C82C002C003C004C00512081BAE82AF8D
:1003400083A8F0F9C006C007C000C0019000007586
:10035000F0807443120778AE82AF83A8F0F9E5818C
:1003600024FCF581D005D004D003D002C006C0071C
:10037000C000C0018A828B838CF0ED120826AA820D
:10038000AB83ACF0FDE58124FCF581AE8A7F008E65
:10039000828F83C002C003C004C0051208B5AE82BC
:1003A000AF83A8F0F9D005D004D003D002C006C0B6
:1003B00007C000C0018A828B838CF0ED120826AA48
:1003C00082AB83ACF0FDE58124FCF581C002C00363
:1003D000C004C0059037BD75F0867434120778AA42
:1003E00082AB83ACF0FDE58124FCF581C002C00343
:1003F000C004C00590000075F080743F1208C285EB
:10040000822C85832D85F02EF52FE58124FCF58146
:10041000220202D585823185833285F033E4B530FE
:10042000030205D27403B530028001228531348580
:1004300032358533368534828535838536F012072B
:1004400020FDA3120720FEA3120720FFA3120720FE
:10045000F8C005C006C007C000E4C0E0C0E0C0E0CE
:10046000743FC0E08D828E838FF0E8120748A98226
:10047000E58124FCF581D000D007D006D005E970D5
:100480000302050C74042534F9E43535FAAB3689DA
:10049000828A838BF0120720F9A3120720FAA31295
:1004A0000720FBA3120720FCC005C006C007C00040
:1004B000C001C002C003C0048D828E838FF0E81299
:1004C00008C2AA82AB83ACF0F9E58124FCF581E493
:1004D000C0E0C0E07480C0E0743FC0E08A828B83DB
:1004E0008CF0E9120748AA82E58124FCF581D0004E
:1004F000D007D006D005EA6013740F2523F52575C3
:100500002400E52324ECF527752600227404253405
:10051000FAE43535FBAC368A828B838CF0120720E7
:10052000F537A3120720F538A3120720F539A312D7
:100530000720F53AC005C006C007C000749AC0E0A5
:100540007499C0E07419C0E0743FC0E085378285BB
:1005500038838539F0E53A120748AA82E58124FC00
:10056000F581D000D007D006D005EA6058C005C09C
:1005700006C007C0008537828538838539F0E53AA3
:100580001208C2AA82AB83ACF0FDE58124FCF581A0
:10059000E4C0E0C0E07480C0E0743FC0E08A828BB9
:1005A000838CF0ED120748AA82E58124FCF581EAEC
:1005B0006013E52324ECF525752400740F2523F53D
:1005C0002775260022852325752400852327752677
:1005D00000227525007524007527007526002285E8
:1005E000823B85833C85F03D7408253BFAE4353C2D
:1005F000FBAC3D8A828B838CF0120720FAA3120792
:1006000020FBA3120720FCA3120720FD7404253B46
:10061000FEE4353CFFA83D8E828F8388F0120720D0
:10062000F53EA3120720F53FA3120720F540A312C1
:100630000720F541AE3BAF3CA83D8E828F8388F00A
:10064000120720FEA3120720FFA3120720F8A3120F
:100650000720F9C002C003C004C005C03EC03FC0AF
:1006600040C041C006C007C000C001C02CC02DC0A2
:100670002EC02F749FC0E07400C0E07480C0E012F0
:100680000894E58124EDF581221201A61201AFD272
:10069000AF751C077582011201D0751C00758202AE
:1006A0001201D0751C077582021201D01201C674A6
:1006B000E0C0E07400C0E07480C0E01208941581CE
:1006C0001581158112041175820F12023BAA82ABAB
:1006D00083ACF0FD8A428B438C448D4575820712B2
:1006E000023BAA82AB83ACF0FD8A468B478C488DD7
:1006F0004975820812023BAA82AB83ACF0FD8A4A9C
:100700008B4B8C4C8D4D90004275F0401204149030
:10071000004275F0401205DF90006412017480A45D
:1007200020F71430F6148883A88220F507E6A88302
:1007300075830022E280F7E49322E022E4AC83ABED
:1007400082FAF9748E0209EAFFA8811818120A12B7
:10075000D2D133E6400730E70B7582012220E7064D
:1007600075820022C2D11209F4E97003F5822230A9
:10077000D101B3E433F58222120ABFBC0003020A9E
:100780005EEF60FA30D502B2D1E583B4FF03020A0E
:1007900074E582B4FF03020A742583400724824073
:1007A0000B020A5E2483145003020A74F582EA8D58
:1007B000F0A4A8F0EA8EF0A428F8E435F0F9EB8D67
:1007C000F0A428E935F0F9E433CA8FF0A429F9EA56
:1007D00035F0FAEBF88EF0A429F9EA35F0FAE433B3
:1007E000FBEC8DF0A429F9EA35F0FAE43BFBE88F45
:1007F000F0A42AFAEB35F0FBE433CCFD8EF0A42A0A
:10080000FAEB35F0FBE43CFCED8FF0A42BFBEC3570
:10081000F0FC20E703120A8C020A3DE4AC82FBFAEA
:10082000F974860209EA120ABF7900E583B58202EB
:10083000800D5003120AEDE583C39582120B07E584
:10084000D0C465D020E117EA2DFAEB3EFBEC3FFC6B
:1008500050097401120B07EC4480FC020A3DC3EA04
:100860009DFAEB9EFBEC9FFC500FC3E499F9E49AD0
:10087000FAE49BFBE49CFCB2D1120A8C020A3D0212
:1008800014D685821885831985F01A85091B90086E
:100890007F020F29C008858108E50824FBF51BE5C8
:1008A0000824FBF8861808861908861A90087F1213
:1008B0000F29D00822AC83AB827A007900748E02B3
:1008C00014F4120ABF30D502B2D1BF0009BC000334
:1008D000020A81020A74BC0003020A5EE583B4FFC7
:1008E0000BE582B4FF03020A81020A5EE582B4FFCF
:1008F00003020A74C395835007247F400B020A5EEB
:100900002480145003020A74C0E0E4CCCBCAF98DF1
:100910001C8E1D8F1EEF54F0C4F51F758306851FB6
:10092000F0EB84F582E9C4F9EAC4FAEBC4FBEC54B9
:100930000FC47803D6FC18EBD6FB18EAD6FA8582EA
:10094000F0EDA4A8F0FD8582F0EEA428FEE435F0D9
:10095000F88582F0EFA428FFE435F0F8E99DF9EA84
:100960009EFAEB9FFBEC98FCAD1CAE1DAF1E30E772
:10097000101582E92DF9EA3EFAEB3FFBE43CFC80DE
:10098000EDC082D58398C3E933F9EA33FAEB33FB40
:10099000EC33FCC3E99DEA9EEB9FEC9400B3E413B7
:1009A000F9D002D0E0C44AFAD003D0E0C44BFBD067
:1009B00004D0E0F5F0540FC44CFCD082158230F422
:1009C0000FD3EC13FCEB13FBEA13FAE913F90582DE
:1009D000E930E70A74012AFAE43BFBE43CFC020A32
:1009E00055FCABF0AA83A982749EC2D1F582120A8B
:1009F0008C020A3D7901AA82E68F82B5821318E63D
:100A0000B5F00E18E6B5830918E68A82B582027938
:100A10000022B4800FE5F0700AE5837006E582706D
:100A2000027F00EFB6801518B6001018B6000B183C
:100A3000B6000608080876002208080822B98003D4
:100A4000EA13B34010EA2401FAE43BFBE43CFC5017
:100A5000047C800582BC000EBB000BBA0008E4F5E4
:100A6000F0F583F58222A2D1E582138CF092F78B08
:100A7000838A8222E4F583F58275F080F4A2D11393
:100A800022E4F583F58275F0C0747F227804EC705F
:100A900011E58224F8500AF582E4C9CACBFCD8EFEC
:100AA00022EC7820058220E713D5820122C3E933A6
:100AB000F9EA33FAEB33FBEC33FCD8EA158222AACD
:100AC00082AB83A2F73392D16002D2F7F582ACF009
:100AD000E58124F9F8E6FD08E6FE0886F008E6A2BE
:100AE000F73392D56002D2F7F583AFF022E582C5E5
:100AF00083F582A2D133A2D592D11392D5ECCFFC4B
:100B0000EBCEFBEACDFA226040F82582500274FF5A
:100B1000F582E824F8501ECCCBCAF9E4CC24F85076
:100B200014CBCAF9E4CB24F8500BCAF9E4CA24F870
:100B3000500379002224086010F8C3EC13FCEB1377
:100B4000FBEA13FAE913F9D8F122AA82745BC0E038
:100B5000740BC0E0C00AC00B8A82220511E4B511F3
:100B600002051222AA8274302AFA24C6500A740797
:100B70002AFA3001034302208A82020B4AE582FAF4
:100B8000C4540FF582C002120B64D002740F5AF5E0
:100B900082020B64AA0CAB0DAC0EAD0FAE10751734
:100BA00020EE2EFEED235401FF4206EA2AFAEB3333
:100BB000FBEC33FCED33FDC3EE95134008EEC3951B
:100BC00013FE430201D517D98A0C8B0D8C0E8D0FA5
:100BD0008E1022785AE624D075F00AA4FA785BE6E3
:100BE00024D02AFA78598603BB2D04C3E49AFA75F7
:100BF0001301C3E464808AF063F08095F050297596
:100C000017038A0374F62517401C0513E5171424EF
:100C10004EF8E517244EF98704A604772E1BEBFA4D
:100C20006004051780DE8B02EA30E70D784F8603FB
:100C30007850A603784F762E0AE515600AE515046C
:100C4000FB2513F5138005300C020513784E86033F
:100C5000E4BB2D0104FB70062007033008020513D6
:100C6000300503020D1A300657EB600C75822DC05B
:100C700002120B4AD002801C30070C75822BC00276
:100C8000120B4AD002800D30080A758220C0021271
:100C90000B4AD002784F8604BC2E0C758230C002FD
:100CA000120B4AD0021514AC141514C3E5139C4062
:100CB00003020D5E758230C002120B4AD00280E73B
:100CC000AC141514C3E5139C500C758220C002129D
:100CD0000B4AD00280EA784E8604BC2D0C75822D1A
:100CE000C002120B4AD002801C30070C75822BC048
:100CF00002120B4AD002800D30080A758220C00211
:100D0000120B4AD002784F8604BC2E52758230C036
:100D100002120B4AD00215148044EB600E75822D2E
:100D2000C002120B4AD0021514802030070E7582C3
:100D30002BC002120B4AD0021514800F30080C751C
:100D40008220C002120B4AD0021514784F8603BBD2
:100D50002E0C758230C002120B4AD0021514751782
:100D600001C20EE517244EF88603BB4503020E1B95
:100D7000BB2E348A03C3E464808BF063F08095F06B
:100D8000500F758230C003120B4AD0031B8B0280B8
:100D9000E48B02D20EE5157038200C03020E1B7591
:100DA000822E120B4A8074300E278A03EB30E71F25
:100DB000C3E464808515F063F08095F0500C758273
:100DC00030C003120B4AD00315150B8B0280DD8B4C
:100DD00002300E0EC3E464808515F063F08095F058
:100DE0005021E517244EF886038B82C002120B4A6D
:100DF000D002300E0EE517244EF88603BB2E02807B
:100E00000215151514C3E464808515F063F0809510
:100E1000F04003200E050517020D63C3E4648085CE
:100E200015F063F08095F0500A758230120B4A1568
:100E30001580E830050FAA141514EA6008758220A1
:100E4000120B4A80F122E5157003300C0D74072552
:100E500015FAE514C39AF5148006E51424FAF5147E
:100E6000751700784E8602BA2B0F20070C784E7645
:100E7000202008057517010514200519AA14C3E4DC
:100E800064808AF063F08095F0500A758220120B1E
:100E90004A151480E7C20EE517244EF88602BA0000
:100EA000028069BA451F3001027665C3E46480851B
:100EB00015F063F08095F0500A758230120B4A15D8
:100EC0001580E8D20EC3E5179402E433FA7014EAF1
:100ED000700EC3E464808515F063F08095F04003E4
:100EE000300E16E517244EF886028A82120B4AE568
:100EF0001724FD50121515800E7402B51709300C19
:100F00000675822E120B4A0517020E97300519AA94
:100F100014C3E464808AF063F08095F0500A75820F
:100F200020120B4A151480E72285820A85830BE480
:100F3000F511F512AA18AB19AC1A8A828B838CF0C2
:100F4000120720FD74012AF518E43BF5198C1AEDFF
:100F5000FA70030214CFBA250280030214C7C20537
:100F6000C206C207C208C209C20AC20BC20CC20230
:100F7000C203C2047513007514007515FFAB18ACDD
:100F800019AD1A8B828C838DF0120720FAA3AB82E5
:100F9000AC838B188C198D1ABA25078A82120B4ADA
:100FA00080928A06BE3000402E8A06EE24C6402774
:100FB00074FFB51513E51475F00AA4FEEA24D02ECB
:100FC000F51470BFD20680BBE51575F00AA4FEEAE1
:100FD00024D02EF51580ACBA2E0A74FFB515A47571
:100FE0001500809F8A06BE6100400E8A06EE2485A9
:100FF00040075302DFD2018002C201BA200280758D
:10100000BA2303021084BA2A03021089BA2B028081
:101010005FBA2D028055BA4202805FBA43030210C4
:10102000CEBA4403021209BA4503021223BA460398
:1010300002121FBA4703021227BA4903021209BA61
:101040004C02803BBA4E0302122BBA4F030212101D
:10105000BA50030211A2BA53030210F2BA550302A6
:101060001215BA580302121A021255D205020F8342
:10107000D207020F83D208020F83D20A020F83D253
:101080000B020F83D20C020F8374FFB51520300AB8
:101090000BE51B14F8881B8614020F83E51B24FE46
:1010A000F8881B8606088607188E14020F83300AFC
:1010B0000BE51B14F8881B8615020F83E51B24FE25
:1010C000F8881B8606088607188E15020F83300ADB
:1010D0000AE51B14F8881B8602800FE51B24FEF826
:1010E000881B8603088604188B028A82120B4A0228
:1010F000125AE51B24FDF8881B860308860408861F
:101100000518188B0C8C0D8D0E8B828C838DF01234
:101110001650AB82AC838B1674FFB515038516157C
:1011200020051DC3E51695145016E514C39516F554
:1011300014AB141514EB6008758220120B4A80F171
:10114000850C82850D83850EF0120720FBFA60293D
:10115000AB151515C3E464808BF063F08095F050F7
:10116000188A82120B4AAB0CAC0DAD0E0BBB000102
:101170000C8B0C8C0D8D0E80C720050302125AC3F8
:10118000E5169514400302125AE514C39516F5149A
:10119000AB141514EB700302125A758220120B4A1D
:1011A00080EEE51B24FDF8881B860308860408866C
:1011B0000518188B0C8C0D8D0EE50EFB30E7047AAC
:1011C000438013EB546060047A50800AEB30E604ED
:1011D0007A4980027A588A82C002120B4A75823A92
:1011E000120B4A758230120B4A758278120B4AD064
:1011F00002BA4902800BBA50028006850D82120B9A
:101200007D850C82120B7D8051D20975130A804AAC
:10121000751308804575130A8040751310803BD202
:10122000028037D2038033D204802FE51B24FDF8DF
:10123000881B860308860408860518188B0C8C0DFD
:101240008D0E8B828C838DF0E511121637A3E5127B
:1012500012163780058A82120B4A200206200303E9
:10126000300470E51B24FCF8881B860308860408FC
:1012700086050886061818188B0C8C0D8D0E8E0F9F
:10128000E50CE50DE50EE50F8B828C838DF0EE12FB
:10129000151874FFB51503751506300427747F55AE
:1012A0000FFB8B10E510EB2BFB8B10E50E30E706E8
:1012B00074014510F510E510246840067499251056
:1012C0004002D203300306120E46020F34120BD333
:1012D000020F34E5137003020F347B53300A2BE501
:1012E0001B14F8881BE6FC3395E0FDFEFF8C0C8D8B
:1012F0000D8E0E8F0F20095EAC0C7D007E007F00EE
:101300008C0C8D0D8E0E8F0F804C300B1FE51B2427
:10131000FCF8881B860408860508860608860718D8
:1013200018188C0C8D0D8E0E8F0F802AE51B24FE55
:10133000F8881B860408860518ED3395E0FEFF8CBF
:101340000C8D0D8E0E8F0F20090CAC0CAD0D7E0098
:101350007F008E0E8F0F300C43E50C450D450E457A
:101360000F60397408B5130C758230C003120B4A34
:10137000D00380287410B51323758230C003120B7C
:101380004AD00330010C758278C003120B4AD00397
:10139000800A758258C003120B4AD003300925AC6D
:1013A0000CAD0DAE0EE50FFF30E717C3E49CFCE477
:1013B0009DFDE49EFEE49FFF8C0C8D0D8E0E8F0F25
:1013C0008002C209751600D20D8B00751000C00096
:1013D000120B94D000200D0DE510C4FCE6FD4CF678
:1013E0001888038002A6100516B20DE50C450D45C0
:1013F0000E450F70D68803E514700375140120069E
:101400001A200517E51604FCC39514500E758220AA
:10141000C003120B4AD003151480E930090E7582FF
:101420002DC003120B4AD00315148024E51660204A
:1014300030070E75822BC003120B4AD0031514809F
:101440000F30080C758220C003120B4AD00315140C
:1014500020051EAC141514C3E5169C502730060455
:101460007C3080027C208C82C003120B4AD0038027
:10147000E2C3E51695145009E514C39516F51480DA
:10148000037514008B00AB161516EB6022B20D200D
:101490000D0A08E6C4540FFB8B1080078603740FF7
:1014A0005BF510851082C000120B64D00080D7203D
:1014B0000503020F34AB141514EB7003020F3475DF
:1014C0008220120B4A80EE8A82120B4A020F348568
:1014D000118285128322AA82BA0A0810990280FB1F
:1014E00075990D10990280FB8A9922FCABF0AA83B2
:1014F000A982749EF582C2D1EC30E716D2D1E9F40C
:101500002401F9EAF43400FAEBF43400FBECF4348F
:1015100000FC120A8C020A3DC0E0F8458245834572
:10152000F07009F5F0FBFCFDFE0215E6E823A2F7DA
:1015300092E0F8A982AA83D2F7ABF07C007E07C3C1
:10154000749798404074FF2EFE740A89F0A4F985C0
:10155000F082740A8AF0A4FA85F083740A8BF0A4EE
:10156000FB740529F9EA3582FAEB3583FB74003503
:10157000F0FCC3EC13FCEB13FBEA13FAE913F908D4
:10158000EC70EF80BAE8C3947FF88B838EF0E4FBB5
:10159000FCFDFEFF08C3E933F9EA33FAE58333F5CE
:1015A00083EB3BD4FBEC3CD4FCED3DD4FDEE3ED4D0
:1015B000FEEF3FD4FF602D05F074052BD4FBE43C17
:1015C000D4FCE43DD4FDE43ED4FEE43FD4FF758278
:1015D00004C3EF13FFEE13FEED13FDEC13FCEB134E
:1015E000FBD582EDD8AF784ED0E020E704762B8093
:1015F00002762D087906E7C4540F4430F608B90680
:1016000003762E08E7540F4430F60819B902E7763E
:101610004508E5F020E704762B8004762DF40408D5
:1016200075F00A844430F608E5F04430F608E4F634
:1016300090004E75F0402220F71030F6118883A8F4
:101640008220F507F6A88375830022F280F7F02246
:10165000AA82AB83ACF07D007E008A828B838CF003
:10166000120720FFA3AA82AB83EF60070DBD00EA3B
:101670000E80E78D828E83220000000000000000B3
:00000001FF
